{"contract/yield_shop.sol":{"LendingSystem":{"abi":[{"inputs":[{"internalType":"address","name":"_mntToken","type":"address"},{"internalType":"address","name":"_usdcToken","type":"address"}],"stateMutability":"nonpayable","type":"constructor"},{"inputs":[],"name":"EnforcedPause","type":"error"},{"inputs":[],"name":"ExpectedPause","type":"error"},{"inputs":[{"internalType":"address","name":"owner","type":"address"}],"name":"OwnableInvalidOwner","type":"error"},{"inputs":[{"internalType":"address","name":"account","type":"address"}],"name":"OwnableUnauthorizedAccount","type":"error"},{"inputs":[],"name":"ReentrancyGuardReentrantCall","type":"error"},{"anonymous":false,"inputs":[{"indexed":true,"internalType":"uint256","name":"loanId","type":"uint256"},{"indexed":true,"internalType":"address","name":"borrower","type":"address"},{"indexed":false,"internalType":"uint256","name":"collateralAmount","type":"uint256"}],"name":"CollateralLiquidated","type":"event"},{"anonymous":false,"inputs":[{"indexed":true,"internalType":"uint256","name":"loanId","type":"uint256"},{"indexed":true,"internalType":"address","name":"borrower","type":"address"},{"indexed":false,"internalType":"uint256","name":"collateralAmount","type":"uint256"},{"indexed":false,"internalType":"uint256","name":"borrowedAmount","type":"uint256"},{"indexed":false,"internalType":"uint256","name":"duration","type":"uint256"}],"name":"LoanCreated","type":"event"},{"anonymous":false,"inputs":[{"indexed":true,"internalType":"uint256","name":"loanId","type":"uint256"},{"indexed":true,"internalType":"address","name":"borrower","type":"address"},{"indexed":false,"internalType":"uint256","name":"repaidAmount","type":"uint256"},{"indexed":false,"internalType":"bool","name":"onTime","type":"bool"}],"name":"LoanRepaid","type":"event"},{"anonymous":false,"inputs":[{"indexed":true,"internalType":"address","name":"previousOwner","type":"address"},{"indexed":true,"internalType":"address","name":"newOwner","type":"address"}],"name":"OwnershipTransferred","type":"event"},{"anonymous":false,"inputs":[{"indexed":false,"internalType":"address","name":"account","type":"address"}],"name":"Paused","type":"event"},{"anonymous":false,"inputs":[{"indexed":true,"internalType":"address","name":"user","type":"address"},{"indexed":false,"internalType":"uint256","name":"oldLevel","type":"uint256"},{"indexed":false,"internalType":"uint256","name":"newLevel","type":"uint256"}],"name":"ReputationUpdated","type":"event"},{"anonymous":false,"inputs":[{"indexed":false,"internalType":"address","name":"account","type":"address"}],"name":"Unpaused","type":"event"},{"inputs":[],"name":"COLLATERAL_RATIO","outputs":[{"internalType":"uint256","name":"","type":"uint256"}],"stateMutability":"view","type":"function"},{"inputs":[],"name":"INTEREST_RATE","outputs":[{"internalType":"uint256","name":"","type":"uint256"}],"stateMutability":"view","type":"function"},{"inputs":[],"name":"MAX_REPUTATION","outputs":[{"internalType":"uint256","name":"","type":"uint256"}],"stateMutability":"view","type":"function"},{"inputs":[],"name":"REPUTATION_BONUS","outputs":[{"internalType":"uint256","name":"","type":"uint256"}],"stateMutability":"view","type":"function"},{"inputs":[{"internalType":"uint256","name":"loanId","type":"uint256"}],"name":"calculateInterest","outputs":[{"internalType":"uint256","name":"","type":"uint256"}],"stateMutability":"view","type":"function"},{"inputs":[{"internalType":"address","name":"user","type":"address"}],"name":"calculateInterestRate","outputs":[{"internalType":"uint256","name":"","type":"uint256"}],"stateMutability":"view","type":"function"},{"inputs":[{"internalType":"uint256","name":"collateralAmount","type":"uint256"},{"internalType":"uint256","name":"borrowAmount","type":"uint256"},{"internalType":"uint256","name":"duration","type":"uint256"},{"internalType":"address","name":"collateralToken","type":"address"},{"internalType":"address","name":"borrowToken","type":"address"}],"name":"createLoan","outputs":[{"internalType":"uint256","name":"","type":"uint256"}],"stateMutability":"nonpayable","type":"function"},{"inputs":[{"internalType":"uint256","name":"loanId","type":"uint256"}],"name":"getLoanDetails","outputs":[{"internalType":"address","name":"borrower","type":"address"},{"internalType":"uint256","name":"collateralAmount","type":"uint256"},{"internalType":"uint256","name":"borrowedAmount","type":"uint256"},{"internalType":"uint256","name":"interestRate","type":"uint256"},{"internalType":"uint256","name":"startTime","type":"uint256"},{"internalType":"uint256","name":"duration","type":"uint256"},{"internalType":"bool","name":"active","type":"bool"},{"internalType":"bool","name":"repaid","type":"bool"}],"stateMutability":"view","type":"function"},{"inputs":[{"internalType":"address","name":"user","type":"address"}],"name":"getUserLoans","outputs":[{"internalType":"uint256[]","name":"","type":"uint256[]"}],"stateMutability":"view","type":"function"},{"inputs":[{"internalType":"uint256","name":"loanId","type":"uint256"}],"name":"liquidateLoan","outputs":[],"stateMutability":"nonpayable","type":"function"},{"inputs":[{"internalType":"uint256","name":"","type":"uint256"}],"name":"loans","outputs":[{"internalType":"uint256","name":"id","type":"uint256"},{"internalType":"address","name":"borrower","type":"address"},{"internalType":"uint256","name":"collateralAmount","type":"uint256"},{"internalType":"uint256","name":"borrowedAmount","type":"uint256"},{"internalType":"uint256","name":"interestRate","type":"uint256"},{"internalType":"uint256","name":"startTime","type":"uint256"},{"internalType":"uint256","name":"duration","type":"uint256"},{"internalType":"bool","name":"active","type":"bool"},{"internalType":"bool","name":"repaid","type":"bool"},{"internalType":"address","name":"collateralToken","type":"address"},{"internalType":"address","name":"borrowToken","type":"address"}],"stateMutability":"view","type":"function"},{"inputs":[],"name":"mntToken","outputs":[{"internalType":"contract IERC20","name":"","type":"address"}],"stateMutability":"view","type":"function"},{"inputs":[],"name":"nextLoanId","outputs":[{"internalType":"uint256","name":"","type":"uint256"}],"stateMutability":"view","type":"function"},{"inputs":[],"name":"owner","outputs":[{"internalType":"address","name":"","type":"address"}],"stateMutability":"view","type":"function"},{"inputs":[],"name":"pause","outputs":[],"stateMutability":"nonpayable","type":"function"},{"inputs":[],"name":"paused","outputs":[{"internalType":"bool","name":"","type":"bool"}],"stateMutability":"view","type":"function"},{"inputs":[],"name":"renounceOwnership","outputs":[],"stateMutability":"nonpayable","type":"function"},{"inputs":[{"internalType":"uint256","name":"loanId","type":"uint256"}],"name":"repayLoan","outputs":[],"stateMutability":"nonpayable","type":"function"},{"inputs":[{"internalType":"address","name":"newOwner","type":"address"}],"name":"transferOwnership","outputs":[],"stateMutability":"nonpayable","type":"function"},{"inputs":[],"name":"unpause","outputs":[],"stateMutability":"nonpayable","type":"function"},{"inputs":[],"name":"usdcToken","outputs":[{"internalType":"contract IERC20","name":"","type":"address"}],"stateMutability":"view","type":"function"},{"inputs":[{"internalType":"address","name":"","type":"address"},{"internalType":"uint256","name":"","type":"uint256"}],"name":"userLoans","outputs":[{"internalType":"uint256","name":"","type":"uint256"}],"stateMutability":"view","type":"function"},{"inputs":[{"internalType":"address","name":"","type":"address"}],"name":"userReputation","outputs":[{"internalType":"uint256","name":"level","type":"uint256"},{"internalType":"uint256","name":"totalLoans","type":"uint256"},{"internalType":"uint256","name":"repaidOnTime","type":"uint256"},{"internalType":"uint256","name":"totalVolume","type":"uint256"},{"internalType":"uint256","name":"lastUpdate","type":"uint256"}],"stateMutability":"view","type":"function"}],"evm":{"bytecode":{"linkReferences":{},"object":"60c06040523480156200001157600080fd5b5060405162001708380380620017088339810160408190526200003491620000fb565b600160005533806200006057604051631e4fbdf760e01b81526000600482015260240160405180910390fd5b6200006b8162000084565b506001600160a01b039182166080521660a05262000133565b600180546001600160a01b03838116610100818102610100600160a81b031985161790945560405193909204169182907f8be0079c531659141344cd1fd0a4f28419497f9722a3daafe3b4186f6b6457e090600090a35050565b80516001600160a01b0381168114620000f657600080fd5b919050565b600080604083850312156200010f57600080fd5b6200011a83620000de565b91506200012a60208401620000de565b90509250929050565b60805160a0516115af6200015960003960006101800152600061031501526115af6000f3fe608060405234801561001057600080fd5b506004361061014d5760003560e01c8063950bc878116100c3578063d213c0f21161007c578063d213c0f2146103c5578063d8bad5bd146103cd578063d9e69a05146103e0578063e1ec3c68146103e9578063e503bb05146104c7578063f2fde38b1461052c57600080fd5b8063950bc8781461035e578063a57475e014610371578063ab7b1c8914610384578063c0d1884314610397578063ccdd9f5d146103aa578063cf7b4830146103bd57600080fd5b806366877b8d1161011557806366877b8d146101f1578063715018a6146103085780637f0554ca146103105780638456cb591461033757806387c514591461033f5780638da5cb5b1461034857600080fd5b806302bf321f1461015257806311eac8551461017b5780633f4ba83a146101ba5780635b72a33a146101c45780635c975abb146101db575b600080fd5b6101656101603660046113b3565b61053f565b60405161017291906113d5565b60405180910390f35b6101a27f000000000000000000000000000000000000000000000000000000000000000081565b6040516001600160a01b039091168152602001610172565b6101c26105ab565b005b6101cd6101f481565b604051908152602001610172565b60015460ff166040519015158152602001610172565b6102bf6101ff366004611419565b6000908152600360208181526040928390208351610160810185528154815260018201546001600160a01b0390811693820184905260028301549582018690529382015460608201819052600483015460808301819052600584015460a08401819052600685015460c08501819052600786015460ff808216151560e088018190526101008084049092161515918801829052620100009092048a1661012088015260089097015490981661014090950194909452949791959094939091565b604080516001600160a01b0390991689526020890197909752958701949094526060860192909252608085015260a0840152151560c0830152151560e082015261010001610172565b6101c26105bd565b6101a27f000000000000000000000000000000000000000000000000000000000000000081565b6101c26105cf565b6101cd60025481565b60015461010090046001600160a01b03166101a2565b6101cd61036c366004611432565b6105df565b6101cd61037f366004611419565b610a58565b6101c2610392366004611419565b610b58565b6101cd6103a53660046113b3565b610dac565b6101c26103b8366004611419565b610e2f565b6101cd60c881565b6101cd600581565b6101cd6103db366004611482565b611003565b6101cd613a9881565b6104666103f7366004611419565b600360208190526000918252604090912080546001820154600283015493830154600484015460058501546006860154600787015460089097015495976001600160a01b03958616979096949593949293919260ff80831693610100840490911692620100009004811691168b565b604080519b8c526001600160a01b039a8b1660208d01528b019890985260608a0196909652608089019490945260a088019290925260c0870152151560e0860152151561010085015282166101208401521661014082015261016001610172565b6105046104d53660046113b3565b600560205260009081526040902080546001820154600283015460038401546004909401549293919290919085565b604080519586526020860194909452928401919091526060830152608082015260a001610172565b6101c261053a3660046113b3565b611034565b6001600160a01b03811660009081526004602090815260409182902080548351818402810184019094528084526060939283018282801561059f57602002820191906000526020600020905b81548152602001906001019080831161058b575b50505050509050919050565b6105b361106f565b6105bb6110a2565b565b6105c561106f565b6105bb60006110f4565b6105d761106f565b6105bb61114e565b60006105e9611189565b6105f16111b3565b6000861161063b5760405162461bcd60e51b8152602060048201526012602482015271125b9d985b1a590818dbdb1b185d195c985b60721b60448201526064015b60405180910390fd5b600085116106835760405162461bcd60e51b8152602060048201526015602482015274125b9d985b1a5908189bdc9c9bddc8185b5bdd5b9d605a1b6044820152606401610632565b60008411801561069757506301e133808411155b6106d65760405162461bcd60e51b815260206004820152601060248201526f24b73b30b634b210323ab930ba34b7b760811b6044820152606401610632565b60006127106106e7613a98886114c2565b6106f191906114df565b9050808710156107435760405162461bcd60e51b815260206004820152601760248201527f496e73756666696369656e7420636f6c6c61746572616c0000000000000000006044820152606401610632565b6040516323b872dd60e01b8152336004820152306024820152604481018890526001600160a01b038516906323b872dd906064016020604051808303816000875af1158015610796573d6000803e3d6000fd5b505050506040513d601f19601f820116820180604052508101906107ba9190611501565b5060006107c633610dac565b6002805491925060009190826107db83611523565b9190505590506000600360008381526020019081526020016000209050818160000181905550338160010160006101000a8154816001600160a01b0302191690836001600160a01b0316021790555089816002018190555088816003018190555082816004018190555042816005018190555087816006018190555060018160070160006101000a81548160ff02191690831515021790555060008160070160016101000a81548160ff021916908315150217905550868160070160026101000a8154816001600160a01b0302191690836001600160a01b03160217905550858160080160006101000a8154816001600160a01b0302191690836001600160a01b0316021790555060046000336001600160a01b03166001600160a01b03168152602001908152602001600020829080600181540180825580915050600190039060005260206000200160009091909190915055856001600160a01b031663a9059cbb338b6040518363ffffffff1660e01b81526004016109719291906001600160a01b03929092168252602082015260400190565b6020604051808303816000875af1158015610990573d6000803e3d6000fd5b505050506040513d601f19601f820116820180604052508101906109b49190611501565b5033600090815260056020526040812060018101805491926109d583611523565b9190505550898160030160008282546109ee919061153c565b9091555050426004820155604080518c8152602081018c90529081018a9052339084907fb2cca1719ad611d325136b9c9a4357f412d33694d93c60d4c1b6e922d524cf599060600160405180910390a350909350505050610a4f6001600055565b95945050505050565b60008181526003602081815260408084208151610160810183528154815260018201546001600160a01b039081169482019490945260028201549281019290925292830154606082015260048301546080820152600583015460a08201819052600684015460c0830152600784015460ff808216151560e08501526101008083049091161515908401526201000090048316610120830152600890930154909116610140820152908290610b0c904261154f565b90508160c00151811115610b21575060c08101515b64496cebb8008183608001518460600151610b3c91906114c2565b610b4691906114c2565b610b5091906114df565b949350505050565b610b60611189565b6000818152600360205260409020600781015460ff16610bb45760405162461bcd60e51b815260206004820152600f60248201526e4c6f616e206e6f742061637469766560881b6044820152606401610632565b60018101546001600160a01b03163314610c045760405162461bcd60e51b81526020600482015260116024820152702737ba103637b0b7103137b93937bbb2b960791b6044820152606401610632565b6000610c0f83610a58565b90506000818360030154610c23919061153c565b60088401546040516323b872dd60e01b8152336004820152306024820152604481018390529192506001600160a01b0316906323b872dd906064016020604051808303816000875af1158015610c7d573d6000803e3d6000fd5b505050506040513d601f19601f82011682018060405250810190610ca19190611501565b506007830154600284015460405163a9059cbb60e01b81523360048201526024810191909152620100009091046001600160a01b03169063a9059cbb906044016020604051808303816000875af1158015610d00573d6000803e3d6000fd5b505050506040513d601f19601f82011682018060405250810190610d249190611501565b5060078301805461ffff191661010017905560068301546005840154600091610d4c9161153c565b4211159050610d5d336001836111d7565b604080518381528215156020820152339187917f2010de6ec11f83338b76cf98d4924c7ea74a036c590a8180872a82d2871c47ca910160405180910390a350505050610da96001600055565b50565b6001600160a01b0381166000908152600560209081526040808320815160a081018352815480825260018301549482019490945260028201549281019290925260038101546060830152600401546080820152908290610e0e9060c8906114c2565b90506101f48110610e23575060649392505050565b610b50816101f461154f565b610e37611189565b6000818152600360205260409020600781015460ff16610e8b5760405162461bcd60e51b815260206004820152600f60248201526e4c6f616e206e6f742061637469766560881b6044820152606401610632565b80600601548160050154610e9f919061153c565b4211610ee05760405162461bcd60e51b815260206004820152601060248201526f131bd85b881b9bdd08195e1c1a5c995960821b6044820152606401610632565b60078101546001600160a01b03620100009091041663a9059cbb610f126001546001600160a01b036101009091041690565b60028401546040516001600160e01b031960e085901b1681526001600160a01b03909216600483015260248201526044016020604051808303816000875af1158015610f62573d6000803e3d6000fd5b505050506040513d601f19601f82011682018060405250810190610f869190611501565b5060078101805460ff191690556001810154610fad906001600160a01b03166000806111d7565b600181015460028201546040519081526001600160a01b039091169083907fcafca847a6c6645c7dd7bb55a47759cd884f49bd6e8c273f4ee701e8b81bcda09060200160405180910390a350610da96001600055565b6004602052816000526040600020818154811061101f57600080fd5b90600052602060002001600091509150505481565b61103c61106f565b6001600160a01b03811661106657604051631e4fbdf760e01b815260006004820152602401610632565b610da9816110f4565b6001546001600160a01b036101009091041633146105bb5760405163118cdaa760e01b8152336004820152602401610632565b6110aa611374565b6001805460ff191690557f5db9ee0a495bf2e6ff9c91a7834c1ba4fdd244a5e8aa4e537bd38aeae4b073aa335b6040516001600160a01b03909116815260200160405180910390a1565b600180546001600160a01b03838116610100818102610100600160a81b031985161790945560405193909204169182907f8be0079c531659141344cd1fd0a4f28419497f9722a3daafe3b4186f6b6457e090600090a35050565b6111566111b3565b6001805460ff1916811790557f62e78cea01bee320cd4e420270b5ea74000d11b0c9f74754ebdbfc544b05a258336110d7565b6002600054036111ac57604051633ee5aeb560e01b815260040160405180910390fd5b6002600055565b60015460ff16156105bb5760405163d93c066560e01b815260040160405180910390fd5b6001600160a01b038316600090815260056020526040902080548380156111fb5750825b156112f75760028201805490600061121283611523565b919050555060008260010154836002015461271061123091906114c2565b61123a91906114df565b905061251c81101580156112535750600a836001015410155b1561126157600583556112f1565b612328811015801561127857506008836001015410155b1561128657600483556112f1565b611f40811015801561129d57506005836001015410155b156112ab57600383556112f1565b611b5881101580156112c257506003836001015410155b156112d057600283556112f1565b61138881101580156112e757506001836001015410155b156112f157600183555b50611312565b81541561131257815482600061130c83611562565b91905055505b815481146113675781546040516001600160a01b038716917f5b88a2e3fc1a53234357ab78c104df11c33ccfa79886793654565ad70b8afb6e9161135e91858252602082015260400190565b60405180910390a25b5042600490910155505050565b60015460ff166105bb57604051638dfc202b60e01b815260040160405180910390fd5b80356001600160a01b03811681146113ae57600080fd5b919050565b6000602082840312156113c557600080fd5b6113ce82611397565b9392505050565b6020808252825182820181905260009190848201906040850190845b8181101561140d578351835292840192918401916001016113f1565b50909695505050505050565b60006020828403121561142b57600080fd5b5035919050565b600080600080600060a0868803121561144a57600080fd5b85359450602086013593506040860135925061146860608701611397565b915061147660808701611397565b90509295509295909350565b6000806040838503121561149557600080fd5b61149e83611397565b946020939093013593505050565b634e487b7160e01b600052601160045260246000fd5b80820281158282048414176114d9576114d96114ac565b92915050565b6000826114fc57634e487b7160e01b600052601260045260246000fd5b500490565b60006020828403121561151357600080fd5b815180151581146113ce57600080fd5b600060018201611535576115356114ac565b5060010190565b808201808211156114d9576114d96114ac565b818103818111156114d9576114d96114ac565b600081611571576115716114ac565b50600019019056fea2646970667358221220107739e15783eee166e5505594ee05528ce475f89ef16d67f1ed4814077a858364736f6c63430008140033","opcodes":"PUSH1 0xC0 PUSH1 0x40 MSTORE CALLVALUE DUP1 ISZERO PUSH3 0x11 JUMPI PUSH1 0x0 DUP1 REVERT JUMPDEST POP PUSH1 0x40 MLOAD PUSH3 0x1708 CODESIZE SUB DUP1 PUSH3 0x1708 DUP4 CODECOPY DUP2 ADD PUSH1 0x40 DUP2 SWAP1 MSTORE PUSH3 0x34 SWAP2 PUSH3 0xFB JUMP JUMPDEST PUSH1 0x1 PUSH1 0x0 SSTORE CALLER DUP1 PUSH3 0x60 JUMPI PUSH1 0x40 MLOAD PUSH4 0x1E4FBDF7 PUSH1 0xE0 SHL DUP2 MSTORE PUSH1 0x0 PUSH1 0x4 DUP3 ADD MSTORE PUSH1 0x24 ADD PUSH1 0x40 MLOAD DUP1 SWAP2 SUB SWAP1 REVERT JUMPDEST PUSH3 0x6B DUP2 PUSH3 0x84 JUMP JUMPDEST POP PUSH1 0x1 PUSH1 0x1 PUSH1 0xA0 SHL SUB SWAP2 DUP3 AND PUSH1 0x80 MSTORE AND PUSH1 0xA0 MSTORE PUSH3 0x133 JUMP JUMPDEST PUSH1 0x1 DUP1 SLOAD PUSH1 0x1 PUSH1 0x1 PUSH1 0xA0 SHL SUB DUP4 DUP2 AND PUSH2 0x100 DUP2 DUP2 MUL PUSH2 0x100 PUSH1 0x1 PUSH1 0xA8 SHL SUB NOT DUP6 AND OR SWAP1 SWAP5 SSTORE PUSH1 0x40 MLOAD SWAP4 SWAP1 SWAP3 DIV AND SWAP2 DUP3 SWAP1 PUSH32 0x8BE0079C531659141344CD1FD0A4F28419497F9722A3DAAFE3B4186F6B6457E0 SWAP1 PUSH1 0x0 SWAP1 LOG3 POP POP JUMP JUMPDEST DUP1 MLOAD PUSH1 0x1 PUSH1 0x1 PUSH1 0xA0 SHL SUB DUP2 AND DUP2 EQ PUSH3 0xF6 JUMPI PUSH1 0x0 DUP1 REVERT JUMPDEST SWAP2 SWAP1 POP JUMP JUMPDEST PUSH1 0x0 DUP1 PUSH1 0x40 DUP4 DUP6 SUB SLT ISZERO PUSH3 0x10F JUMPI PUSH1 0x0 DUP1 REVERT JUMPDEST PUSH3 0x11A DUP4 PUSH3 0xDE JUMP JUMPDEST SWAP2 POP PUSH3 0x12A PUSH1 0x20 DUP5 ADD PUSH3 0xDE JUMP JUMPDEST SWAP1 POP SWAP3 POP SWAP3 SWAP1 POP JUMP JUMPDEST PUSH1 0x80 MLOAD PUSH1 0xA0 MLOAD PUSH2 0x15AF PUSH3 0x159 PUSH1 0x0 CODECOPY PUSH1 0x0 PUSH2 0x180 ADD MSTORE PUSH1 0x0 PUSH2 0x315 ADD MSTORE PUSH2 0x15AF PUSH1 0x0 RETURN INVALID PUSH1 0x80 PUSH1 0x40 MSTORE CALLVALUE DUP1 ISZERO PUSH2 0x10 JUMPI PUSH1 0x0 DUP1 REVERT JUMPDEST POP PUSH1 0x4 CALLDATASIZE LT PUSH2 0x14D JUMPI PUSH1 0x0 CALLDATALOAD PUSH1 0xE0 SHR DUP1 PUSH4 0x950BC878 GT PUSH2 0xC3 JUMPI DUP1 PUSH4 0xD213C0F2 GT PUSH2 0x7C JUMPI DUP1 PUSH4 0xD213C0F2 EQ PUSH2 0x3C5 JUMPI DUP1 PUSH4 0xD8BAD5BD EQ PUSH2 0x3CD JUMPI DUP1 PUSH4 0xD9E69A05 EQ PUSH2 0x3E0 JUMPI DUP1 PUSH4 0xE1EC3C68 EQ PUSH2 0x3E9 JUMPI DUP1 PUSH4 0xE503BB05 EQ PUSH2 0x4C7 JUMPI DUP1 PUSH4 0xF2FDE38B EQ PUSH2 0x52C JUMPI PUSH1 0x0 DUP1 REVERT JUMPDEST DUP1 PUSH4 0x950BC878 EQ PUSH2 0x35E JUMPI DUP1 PUSH4 0xA57475E0 EQ PUSH2 0x371 JUMPI DUP1 PUSH4 0xAB7B1C89 EQ PUSH2 0x384 JUMPI DUP1 PUSH4 0xC0D18843 EQ PUSH2 0x397 JUMPI DUP1 PUSH4 0xCCDD9F5D EQ PUSH2 0x3AA JUMPI DUP1 PUSH4 0xCF7B4830 EQ PUSH2 0x3BD JUMPI PUSH1 0x0 DUP1 REVERT JUMPDEST DUP1 PUSH4 0x66877B8D GT PUSH2 0x115 JUMPI DUP1 PUSH4 0x66877B8D EQ PUSH2 0x1F1 JUMPI DUP1 PUSH4 0x715018A6 EQ PUSH2 0x308 JUMPI DUP1 PUSH4 0x7F0554CA EQ PUSH2 0x310 JUMPI DUP1 PUSH4 0x8456CB59 EQ PUSH2 0x337 JUMPI DUP1 PUSH4 0x87C51459 EQ PUSH2 0x33F JUMPI DUP1 PUSH4 0x8DA5CB5B EQ PUSH2 0x348 JUMPI PUSH1 0x0 DUP1 REVERT JUMPDEST DUP1 PUSH4 0x2BF321F EQ PUSH2 0x152 JUMPI DUP1 PUSH4 0x11EAC855 EQ PUSH2 0x17B JUMPI DUP1 PUSH4 0x3F4BA83A EQ PUSH2 0x1BA JUMPI DUP1 PUSH4 0x5B72A33A EQ PUSH2 0x1C4 JUMPI DUP1 PUSH4 0x5C975ABB EQ PUSH2 0x1DB JUMPI JUMPDEST PUSH1 0x0 DUP1 REVERT JUMPDEST PUSH2 0x165 PUSH2 0x160 CALLDATASIZE PUSH1 0x4 PUSH2 0x13B3 JUMP JUMPDEST PUSH2 0x53F JUMP JUMPDEST PUSH1 0x40 MLOAD PUSH2 0x172 SWAP2 SWAP1 PUSH2 0x13D5 JUMP JUMPDEST PUSH1 0x40 MLOAD DUP1 SWAP2 SUB SWAP1 RETURN JUMPDEST PUSH2 0x1A2 PUSH32 0x0 DUP2 JUMP JUMPDEST PUSH1 0x40 MLOAD PUSH1 0x1 PUSH1 0x1 PUSH1 0xA0 SHL SUB SWAP1 SWAP2 AND DUP2 MSTORE PUSH1 0x20 ADD PUSH2 0x172 JUMP JUMPDEST PUSH2 0x1C2 PUSH2 0x5AB JUMP JUMPDEST STOP JUMPDEST PUSH2 0x1CD PUSH2 0x1F4 DUP2 JUMP JUMPDEST PUSH1 0x40 MLOAD SWAP1 DUP2 MSTORE PUSH1 0x20 ADD PUSH2 0x172 JUMP JUMPDEST PUSH1 0x1 SLOAD PUSH1 0xFF AND PUSH1 0x40 MLOAD SWAP1 ISZERO ISZERO DUP2 MSTORE PUSH1 0x20 ADD PUSH2 0x172 JUMP JUMPDEST PUSH2 0x2BF PUSH2 0x1FF CALLDATASIZE PUSH1 0x4 PUSH2 0x1419 JUMP JUMPDEST PUSH1 0x0 SWAP1 DUP2 MSTORE PUSH1 0x3 PUSH1 0x20 DUP2 DUP2 MSTORE PUSH1 0x40 SWAP3 DUP4 SWAP1 KECCAK256 DUP4 MLOAD PUSH2 0x160 DUP2 ADD DUP6 MSTORE DUP2 SLOAD DUP2 MSTORE PUSH1 0x1 DUP3 ADD SLOAD PUSH1 0x1 PUSH1 0x1 PUSH1 0xA0 SHL SUB SWAP1 DUP2 AND SWAP4 DUP3 ADD DUP5 SWAP1 MSTORE PUSH1 0x2 DUP4 ADD SLOAD SWAP6 DUP3 ADD DUP7 SWAP1 MSTORE SWAP4 DUP3 ADD SLOAD PUSH1 0x60 DUP3 ADD DUP2 SWAP1 MSTORE PUSH1 0x4 DUP4 ADD SLOAD PUSH1 0x80 DUP4 ADD DUP2 SWAP1 MSTORE PUSH1 0x5 DUP5 ADD SLOAD PUSH1 0xA0 DUP5 ADD DUP2 SWAP1 MSTORE PUSH1 0x6 DUP6 ADD SLOAD PUSH1 0xC0 DUP6 ADD DUP2 SWAP1 MSTORE PUSH1 0x7 DUP7 ADD SLOAD PUSH1 0xFF DUP1 DUP3 AND ISZERO ISZERO PUSH1 0xE0 DUP9 ADD DUP2 SWAP1 MSTORE PUSH2 0x100 DUP1 DUP5 DIV SWAP1 SWAP3 AND ISZERO ISZERO SWAP2 DUP9 ADD DUP3 SWAP1 MSTORE PUSH3 0x10000 SWAP1 SWAP3 DIV DUP11 AND PUSH2 0x120 DUP9 ADD MSTORE PUSH1 0x8 SWAP1 SWAP8 ADD SLOAD SWAP1 SWAP9 AND PUSH2 0x140 SWAP1 SWAP6 ADD SWAP5 SWAP1 SWAP5 MSTORE SWAP5 SWAP8 SWAP2 SWAP6 SWAP1 SWAP5 SWAP4 SWAP1 SWAP2 JUMP JUMPDEST PUSH1 0x40 DUP1 MLOAD PUSH1 0x1 PUSH1 0x1 PUSH1 0xA0 SHL SUB SWAP1 SWAP10 AND DUP10 MSTORE PUSH1 0x20 DUP10 ADD SWAP8 SWAP1 SWAP8 MSTORE SWAP6 DUP8 ADD SWAP5 SWAP1 SWAP5 MSTORE PUSH1 0x60 DUP7 ADD SWAP3 SWAP1 SWAP3 MSTORE PUSH1 0x80 DUP6 ADD MSTORE PUSH1 0xA0 DUP5 ADD MSTORE ISZERO ISZERO PUSH1 0xC0 DUP4 ADD MSTORE ISZERO ISZERO PUSH1 0xE0 DUP3 ADD MSTORE PUSH2 0x100 ADD PUSH2 0x172 JUMP JUMPDEST PUSH2 0x1C2 PUSH2 0x5BD JUMP JUMPDEST PUSH2 0x1A2 PUSH32 0x0 DUP2 JUMP JUMPDEST PUSH2 0x1C2 PUSH2 0x5CF JUMP JUMPDEST PUSH2 0x1CD PUSH1 0x2 SLOAD DUP2 JUMP JUMPDEST PUSH1 0x1 SLOAD PUSH2 0x100 SWAP1 DIV PUSH1 0x1 PUSH1 0x1 PUSH1 0xA0 SHL SUB AND PUSH2 0x1A2 JUMP JUMPDEST PUSH2 0x1CD PUSH2 0x36C CALLDATASIZE PUSH1 0x4 PUSH2 0x1432 JUMP JUMPDEST PUSH2 0x5DF JUMP JUMPDEST PUSH2 0x1CD PUSH2 0x37F CALLDATASIZE PUSH1 0x4 PUSH2 0x1419 JUMP JUMPDEST PUSH2 0xA58 JUMP JUMPDEST PUSH2 0x1C2 PUSH2 0x392 CALLDATASIZE PUSH1 0x4 PUSH2 0x1419 JUMP JUMPDEST PUSH2 0xB58 JUMP JUMPDEST PUSH2 0x1CD PUSH2 0x3A5 CALLDATASIZE PUSH1 0x4 PUSH2 0x13B3 JUMP JUMPDEST PUSH2 0xDAC JUMP JUMPDEST PUSH2 0x1C2 PUSH2 0x3B8 CALLDATASIZE PUSH1 0x4 PUSH2 0x1419 JUMP JUMPDEST PUSH2 0xE2F JUMP JUMPDEST PUSH2 0x1CD PUSH1 0xC8 DUP2 JUMP JUMPDEST PUSH2 0x1CD PUSH1 0x5 DUP2 JUMP JUMPDEST PUSH2 0x1CD PUSH2 0x3DB CALLDATASIZE PUSH1 0x4 PUSH2 0x1482 JUMP JUMPDEST PUSH2 0x1003 JUMP JUMPDEST PUSH2 0x1CD PUSH2 0x3A98 DUP2 JUMP JUMPDEST PUSH2 0x466 PUSH2 0x3F7 CALLDATASIZE PUSH1 0x4 PUSH2 0x1419 JUMP JUMPDEST PUSH1 0x3 PUSH1 0x20 DUP2 SWAP1 MSTORE PUSH1 0x0 SWAP2 DUP3 MSTORE PUSH1 0x40 SWAP1 SWAP2 KECCAK256 DUP1 SLOAD PUSH1 0x1 DUP3 ADD SLOAD PUSH1 0x2 DUP4 ADD SLOAD SWAP4 DUP4 ADD SLOAD PUSH1 0x4 DUP5 ADD SLOAD PUSH1 0x5 DUP6 ADD SLOAD PUSH1 0x6 DUP7 ADD SLOAD PUSH1 0x7 DUP8 ADD SLOAD PUSH1 0x8 SWAP1 SWAP8 ADD SLOAD SWAP6 SWAP8 PUSH1 0x1 PUSH1 0x1 PUSH1 0xA0 SHL SUB SWAP6 DUP7 AND SWAP8 SWAP1 SWAP7 SWAP5 SWAP6 SWAP4 SWAP5 SWAP3 SWAP4 SWAP2 SWAP3 PUSH1 0xFF DUP1 DUP4 AND SWAP4 PUSH2 0x100 DUP5 DIV SWAP1 SWAP2 AND SWAP3 PUSH3 0x10000 SWAP1 DIV DUP2 AND SWAP2 AND DUP12 JUMP JUMPDEST PUSH1 0x40 DUP1 MLOAD SWAP12 DUP13 MSTORE PUSH1 0x1 PUSH1 0x1 PUSH1 0xA0 SHL SUB SWAP11 DUP12 AND PUSH1 0x20 DUP14 ADD MSTORE DUP12 ADD SWAP9 SWAP1 SWAP9 MSTORE PUSH1 0x60 DUP11 ADD SWAP7 SWAP1 SWAP7 MSTORE PUSH1 0x80 DUP10 ADD SWAP5 SWAP1 SWAP5 MSTORE PUSH1 0xA0 DUP9 ADD SWAP3 SWAP1 SWAP3 MSTORE PUSH1 0xC0 DUP8 ADD MSTORE ISZERO ISZERO PUSH1 0xE0 DUP7 ADD MSTORE ISZERO ISZERO PUSH2 0x100 DUP6 ADD MSTORE DUP3 AND PUSH2 0x120 DUP5 ADD MSTORE AND PUSH2 0x140 DUP3 ADD MSTORE PUSH2 0x160 ADD PUSH2 0x172 JUMP JUMPDEST PUSH2 0x504 PUSH2 0x4D5 CALLDATASIZE PUSH1 0x4 PUSH2 0x13B3 JUMP JUMPDEST PUSH1 0x5 PUSH1 0x20 MSTORE PUSH1 0x0 SWAP1 DUP2 MSTORE PUSH1 0x40 SWAP1 KECCAK256 DUP1 SLOAD PUSH1 0x1 DUP3 ADD SLOAD PUSH1 0x2 DUP4 ADD SLOAD PUSH1 0x3 DUP5 ADD SLOAD PUSH1 0x4 SWAP1 SWAP5 ADD SLOAD SWAP3 SWAP4 SWAP2 SWAP3 SWAP1 SWAP2 SWAP1 DUP6 JUMP JUMPDEST PUSH1 0x40 DUP1 MLOAD SWAP6 DUP7 MSTORE PUSH1 0x20 DUP7 ADD SWAP5 SWAP1 SWAP5 MSTORE SWAP3 DUP5 ADD SWAP2 SWAP1 SWAP2 MSTORE PUSH1 0x60 DUP4 ADD MSTORE PUSH1 0x80 DUP3 ADD MSTORE PUSH1 0xA0 ADD PUSH2 0x172 JUMP JUMPDEST PUSH2 0x1C2 PUSH2 0x53A CALLDATASIZE PUSH1 0x4 PUSH2 0x13B3 JUMP JUMPDEST PUSH2 0x1034 JUMP JUMPDEST PUSH1 0x1 PUSH1 0x1 PUSH1 0xA0 SHL SUB DUP2 AND PUSH1 0x0 SWAP1 DUP2 MSTORE PUSH1 0x4 PUSH1 0x20 SWAP1 DUP2 MSTORE PUSH1 0x40 SWAP2 DUP3 SWAP1 KECCAK256 DUP1 SLOAD DUP4 MLOAD DUP2 DUP5 MUL DUP2 ADD DUP5 ADD SWAP1 SWAP5 MSTORE DUP1 DUP5 MSTORE PUSH1 0x60 SWAP4 SWAP3 DUP4 ADD DUP3 DUP3 DUP1 ISZERO PUSH2 0x59F JUMPI PUSH1 0x20 MUL DUP3 ADD SWAP2 SWAP1 PUSH1 0x0 MSTORE PUSH1 0x20 PUSH1 0x0 KECCAK256 SWAP1 JUMPDEST DUP2 SLOAD DUP2 MSTORE PUSH1 0x20 ADD SWAP1 PUSH1 0x1 ADD SWAP1 DUP1 DUP4 GT PUSH2 0x58B JUMPI JUMPDEST POP POP POP POP POP SWAP1 POP SWAP2 SWAP1 POP JUMP JUMPDEST PUSH2 0x5B3 PUSH2 0x106F JUMP JUMPDEST PUSH2 0x5BB PUSH2 0x10A2 JUMP JUMPDEST JUMP JUMPDEST PUSH2 0x5C5 PUSH2 0x106F JUMP JUMPDEST PUSH2 0x5BB PUSH1 0x0 PUSH2 0x10F4 JUMP JUMPDEST PUSH2 0x5D7 PUSH2 0x106F JUMP JUMPDEST PUSH2 0x5BB PUSH2 0x114E JUMP JUMPDEST PUSH1 0x0 PUSH2 0x5E9 PUSH2 0x1189 JUMP JUMPDEST PUSH2 0x5F1 PUSH2 0x11B3 JUMP JUMPDEST PUSH1 0x0 DUP7 GT PUSH2 0x63B JUMPI PUSH1 0x40 MLOAD PUSH3 0x461BCD PUSH1 0xE5 SHL DUP2 MSTORE PUSH1 0x20 PUSH1 0x4 DUP3 ADD MSTORE PUSH1 0x12 PUSH1 0x24 DUP3 ADD MSTORE PUSH18 0x125B9D985B1A590818DBDB1B185D195C985B PUSH1 0x72 SHL PUSH1 0x44 DUP3 ADD MSTORE PUSH1 0x64 ADD JUMPDEST PUSH1 0x40 MLOAD DUP1 SWAP2 SUB SWAP1 REVERT JUMPDEST PUSH1 0x0 DUP6 GT PUSH2 0x683 JUMPI PUSH1 0x40 MLOAD PUSH3 0x461BCD PUSH1 0xE5 SHL DUP2 MSTORE PUSH1 0x20 PUSH1 0x4 DUP3 ADD MSTORE PUSH1 0x15 PUSH1 0x24 DUP3 ADD MSTORE PUSH21 0x125B9D985B1A5908189BDC9C9BDDC8185B5BDD5B9D PUSH1 0x5A SHL PUSH1 0x44 DUP3 ADD MSTORE PUSH1 0x64 ADD PUSH2 0x632 JUMP JUMPDEST PUSH1 0x0 DUP5 GT DUP1 ISZERO PUSH2 0x697 JUMPI POP PUSH4 0x1E13380 DUP5 GT ISZERO JUMPDEST PUSH2 0x6D6 JUMPI PUSH1 0x40 MLOAD PUSH3 0x461BCD PUSH1 0xE5 SHL DUP2 MSTORE PUSH1 0x20 PUSH1 0x4 DUP3 ADD MSTORE PUSH1 0x10 PUSH1 0x24 DUP3 ADD MSTORE PUSH16 0x24B73B30B634B210323AB930BA34B7B7 PUSH1 0x81 SHL PUSH1 0x44 DUP3 ADD MSTORE PUSH1 0x64 ADD PUSH2 0x632 JUMP JUMPDEST PUSH1 0x0 PUSH2 0x2710 PUSH2 0x6E7 PUSH2 0x3A98 DUP9 PUSH2 0x14C2 JUMP JUMPDEST PUSH2 0x6F1 SWAP2 SWAP1 PUSH2 0x14DF JUMP JUMPDEST SWAP1 POP DUP1 DUP8 LT ISZERO PUSH2 0x743 JUMPI PUSH1 0x40 MLOAD PUSH3 0x461BCD PUSH1 0xE5 SHL DUP2 MSTORE PUSH1 0x20 PUSH1 0x4 DUP3 ADD MSTORE PUSH1 0x17 PUSH1 0x24 DUP3 ADD MSTORE PUSH32 0x496E73756666696369656E7420636F6C6C61746572616C000000000000000000 PUSH1 0x44 DUP3 ADD MSTORE PUSH1 0x64 ADD PUSH2 0x632 JUMP JUMPDEST PUSH1 0x40 MLOAD PUSH4 0x23B872DD PUSH1 0xE0 SHL DUP2 MSTORE CALLER PUSH1 0x4 DUP3 ADD MSTORE ADDRESS PUSH1 0x24 DUP3 ADD MSTORE PUSH1 0x44 DUP2 ADD DUP9 SWAP1 MSTORE PUSH1 0x1 PUSH1 0x1 PUSH1 0xA0 SHL SUB DUP6 AND SWAP1 PUSH4 0x23B872DD SWAP1 PUSH1 0x64 ADD PUSH1 0x20 PUSH1 0x40 MLOAD DUP1 DUP4 SUB DUP2 PUSH1 0x0 DUP8 GAS CALL ISZERO DUP1 ISZERO PUSH2 0x796 JUMPI RETURNDATASIZE PUSH1 0x0 DUP1 RETURNDATACOPY RETURNDATASIZE PUSH1 0x0 REVERT JUMPDEST POP POP POP POP PUSH1 0x40 MLOAD RETURNDATASIZE PUSH1 0x1F NOT PUSH1 0x1F DUP3 ADD AND DUP3 ADD DUP1 PUSH1 0x40 MSTORE POP DUP2 ADD SWAP1 PUSH2 0x7BA SWAP2 SWAP1 PUSH2 0x1501 JUMP JUMPDEST POP PUSH1 0x0 PUSH2 0x7C6 CALLER PUSH2 0xDAC JUMP JUMPDEST PUSH1 0x2 DUP1 SLOAD SWAP2 SWAP3 POP PUSH1 0x0 SWAP2 SWAP1 DUP3 PUSH2 0x7DB DUP4 PUSH2 0x1523 JUMP JUMPDEST SWAP2 SWAP1 POP SSTORE SWAP1 POP PUSH1 0x0 PUSH1 0x3 PUSH1 0x0 DUP4 DUP2 MSTORE PUSH1 0x20 ADD SWAP1 DUP2 MSTORE PUSH1 0x20 ADD PUSH1 0x0 KECCAK256 SWAP1 POP DUP2 DUP2 PUSH1 0x0 ADD DUP2 SWAP1 SSTORE POP CALLER DUP2 PUSH1 0x1 ADD PUSH1 0x0 PUSH2 0x100 EXP DUP2 SLOAD DUP2 PUSH1 0x1 PUSH1 0x1 PUSH1 0xA0 SHL SUB MUL NOT AND SWAP1 DUP4 PUSH1 0x1 PUSH1 0x1 PUSH1 0xA0 SHL SUB AND MUL OR SWAP1 SSTORE POP DUP10 DUP2 PUSH1 0x2 ADD DUP2 SWAP1 SSTORE POP DUP9 DUP2 PUSH1 0x3 ADD DUP2 SWAP1 SSTORE POP DUP3 DUP2 PUSH1 0x4 ADD DUP2 SWAP1 SSTORE POP TIMESTAMP DUP2 PUSH1 0x5 ADD DUP2 SWAP1 SSTORE POP DUP8 DUP2 PUSH1 0x6 ADD DUP2 SWAP1 SSTORE POP PUSH1 0x1 DUP2 PUSH1 0x7 ADD PUSH1 0x0 PUSH2 0x100 EXP DUP2 SLOAD DUP2 PUSH1 0xFF MUL NOT AND SWAP1 DUP4 ISZERO ISZERO MUL OR SWAP1 SSTORE POP PUSH1 0x0 DUP2 PUSH1 0x7 ADD PUSH1 0x1 PUSH2 0x100 EXP DUP2 SLOAD DUP2 PUSH1 0xFF MUL NOT AND SWAP1 DUP4 ISZERO ISZERO MUL OR SWAP1 SSTORE POP DUP7 DUP2 PUSH1 0x7 ADD PUSH1 0x2 PUSH2 0x100 EXP DUP2 SLOAD DUP2 PUSH1 0x1 PUSH1 0x1 PUSH1 0xA0 SHL SUB MUL NOT AND SWAP1 DUP4 PUSH1 0x1 PUSH1 0x1 PUSH1 0xA0 SHL SUB AND MUL OR SWAP1 SSTORE POP DUP6 DUP2 PUSH1 0x8 ADD PUSH1 0x0 PUSH2 0x100 EXP DUP2 SLOAD DUP2 PUSH1 0x1 PUSH1 0x1 PUSH1 0xA0 SHL SUB MUL NOT AND SWAP1 DUP4 PUSH1 0x1 PUSH1 0x1 PUSH1 0xA0 SHL SUB AND MUL OR SWAP1 SSTORE POP PUSH1 0x4 PUSH1 0x0 CALLER PUSH1 0x1 PUSH1 0x1 PUSH1 0xA0 SHL SUB AND PUSH1 0x1 PUSH1 0x1 PUSH1 0xA0 SHL SUB AND DUP2 MSTORE PUSH1 0x20 ADD SWAP1 DUP2 MSTORE PUSH1 0x20 ADD PUSH1 0x0 KECCAK256 DUP3 SWAP1 DUP1 PUSH1 0x1 DUP2 SLOAD ADD DUP1 DUP3 SSTORE DUP1 SWAP2 POP POP PUSH1 0x1 SWAP1 SUB SWAP1 PUSH1 0x0 MSTORE PUSH1 0x20 PUSH1 0x0 KECCAK256 ADD PUSH1 0x0 SWAP1 SWAP2 SWAP1 SWAP2 SWAP1 SWAP2 POP SSTORE DUP6 PUSH1 0x1 PUSH1 0x1 PUSH1 0xA0 SHL SUB AND PUSH4 0xA9059CBB CALLER DUP12 PUSH1 0x40 MLOAD DUP4 PUSH4 0xFFFFFFFF AND PUSH1 0xE0 SHL DUP2 MSTORE PUSH1 0x4 ADD PUSH2 0x971 SWAP3 SWAP2 SWAP1 PUSH1 0x1 PUSH1 0x1 PUSH1 0xA0 SHL SUB SWAP3 SWAP1 SWAP3 AND DUP3 MSTORE PUSH1 0x20 DUP3 ADD MSTORE PUSH1 0x40 ADD SWAP1 JUMP JUMPDEST PUSH1 0x20 PUSH1 0x40 MLOAD DUP1 DUP4 SUB DUP2 PUSH1 0x0 DUP8 GAS CALL ISZERO DUP1 ISZERO PUSH2 0x990 JUMPI RETURNDATASIZE PUSH1 0x0 DUP1 RETURNDATACOPY RETURNDATASIZE PUSH1 0x0 REVERT JUMPDEST POP POP POP POP PUSH1 0x40 MLOAD RETURNDATASIZE PUSH1 0x1F NOT PUSH1 0x1F DUP3 ADD AND DUP3 ADD DUP1 PUSH1 0x40 MSTORE POP DUP2 ADD SWAP1 PUSH2 0x9B4 SWAP2 SWAP1 PUSH2 0x1501 JUMP JUMPDEST POP CALLER PUSH1 0x0 SWAP1 DUP2 MSTORE PUSH1 0x5 PUSH1 0x20 MSTORE PUSH1 0x40 DUP2 KECCAK256 PUSH1 0x1 DUP2 ADD DUP1 SLOAD SWAP2 SWAP3 PUSH2 0x9D5 DUP4 PUSH2 0x1523 JUMP JUMPDEST SWAP2 SWAP1 POP SSTORE POP DUP10 DUP2 PUSH1 0x3 ADD PUSH1 0x0 DUP3 DUP3 SLOAD PUSH2 0x9EE SWAP2 SWAP1 PUSH2 0x153C JUMP JUMPDEST SWAP1 SWAP2 SSTORE POP POP TIMESTAMP PUSH1 0x4 DUP3 ADD SSTORE PUSH1 0x40 DUP1 MLOAD DUP13 DUP2 MSTORE PUSH1 0x20 DUP2 ADD DUP13 SWAP1 MSTORE SWAP1 DUP2 ADD DUP11 SWAP1 MSTORE CALLER SWAP1 DUP5 SWAP1 PUSH32 0xB2CCA1719AD611D325136B9C9A4357F412D33694D93C60D4C1B6E922D524CF59 SWAP1 PUSH1 0x60 ADD PUSH1 0x40 MLOAD DUP1 SWAP2 SUB SWAP1 LOG3 POP SWAP1 SWAP4 POP POP POP POP PUSH2 0xA4F PUSH1 0x1 PUSH1 0x0 SSTORE JUMP JUMPDEST SWAP6 SWAP5 POP POP POP POP POP JUMP JUMPDEST PUSH1 0x0 DUP2 DUP2 MSTORE PUSH1 0x3 PUSH1 0x20 DUP2 DUP2 MSTORE PUSH1 0x40 DUP1 DUP5 KECCAK256 DUP2 MLOAD PUSH2 0x160 DUP2 ADD DUP4 MSTORE DUP2 SLOAD DUP2 MSTORE PUSH1 0x1 DUP3 ADD SLOAD PUSH1 0x1 PUSH1 0x1 PUSH1 0xA0 SHL SUB SWAP1 DUP2 AND SWAP5 DUP3 ADD SWAP5 SWAP1 SWAP5 MSTORE PUSH1 0x2 DUP3 ADD SLOAD SWAP3 DUP2 ADD SWAP3 SWAP1 SWAP3 MSTORE SWAP3 DUP4 ADD SLOAD PUSH1 0x60 DUP3 ADD MSTORE PUSH1 0x4 DUP4 ADD SLOAD PUSH1 0x80 DUP3 ADD MSTORE PUSH1 0x5 DUP4 ADD SLOAD PUSH1 0xA0 DUP3 ADD DUP2 SWAP1 MSTORE PUSH1 0x6 DUP5 ADD SLOAD PUSH1 0xC0 DUP4 ADD MSTORE PUSH1 0x7 DUP5 ADD SLOAD PUSH1 0xFF DUP1 DUP3 AND ISZERO ISZERO PUSH1 0xE0 DUP6 ADD MSTORE PUSH2 0x100 DUP1 DUP4 DIV SWAP1 SWAP2 AND ISZERO ISZERO SWAP1 DUP5 ADD MSTORE PUSH3 0x10000 SWAP1 DIV DUP4 AND PUSH2 0x120 DUP4 ADD MSTORE PUSH1 0x8 SWAP1 SWAP4 ADD SLOAD SWAP1 SWAP2 AND PUSH2 0x140 DUP3 ADD MSTORE SWAP1 DUP3 SWAP1 PUSH2 0xB0C SWAP1 TIMESTAMP PUSH2 0x154F JUMP JUMPDEST SWAP1 POP DUP2 PUSH1 0xC0 ADD MLOAD DUP2 GT ISZERO PUSH2 0xB21 JUMPI POP PUSH1 0xC0 DUP2 ADD MLOAD JUMPDEST PUSH5 0x496CEBB800 DUP2 DUP4 PUSH1 0x80 ADD MLOAD DUP5 PUSH1 0x60 ADD MLOAD PUSH2 0xB3C SWAP2 SWAP1 PUSH2 0x14C2 JUMP JUMPDEST PUSH2 0xB46 SWAP2 SWAP1 PUSH2 0x14C2 JUMP JUMPDEST PUSH2 0xB50 SWAP2 SWAP1 PUSH2 0x14DF JUMP JUMPDEST SWAP5 SWAP4 POP POP POP POP JUMP JUMPDEST PUSH2 0xB60 PUSH2 0x1189 JUMP JUMPDEST PUSH1 0x0 DUP2 DUP2 MSTORE PUSH1 0x3 PUSH1 0x20 MSTORE PUSH1 0x40 SWAP1 KECCAK256 PUSH1 0x7 DUP2 ADD SLOAD PUSH1 0xFF AND PUSH2 0xBB4 JUMPI PUSH1 0x40 MLOAD PUSH3 0x461BCD PUSH1 0xE5 SHL DUP2 MSTORE PUSH1 0x20 PUSH1 0x4 DUP3 ADD MSTORE PUSH1 0xF PUSH1 0x24 DUP3 ADD MSTORE PUSH15 0x4C6F616E206E6F7420616374697665 PUSH1 0x88 SHL PUSH1 0x44 DUP3 ADD MSTORE PUSH1 0x64 ADD PUSH2 0x632 JUMP JUMPDEST PUSH1 0x1 DUP2 ADD SLOAD PUSH1 0x1 PUSH1 0x1 PUSH1 0xA0 SHL SUB AND CALLER EQ PUSH2 0xC04 JUMPI PUSH1 0x40 MLOAD PUSH3 0x461BCD PUSH1 0xE5 SHL DUP2 MSTORE PUSH1 0x20 PUSH1 0x4 DUP3 ADD MSTORE PUSH1 0x11 PUSH1 0x24 DUP3 ADD MSTORE PUSH17 0x2737BA103637B0B7103137B93937BBB2B9 PUSH1 0x79 SHL PUSH1 0x44 DUP3 ADD MSTORE PUSH1 0x64 ADD PUSH2 0x632 JUMP JUMPDEST PUSH1 0x0 PUSH2 0xC0F DUP4 PUSH2 0xA58 JUMP JUMPDEST SWAP1 POP PUSH1 0x0 DUP2 DUP4 PUSH1 0x3 ADD SLOAD PUSH2 0xC23 SWAP2 SWAP1 PUSH2 0x153C JUMP JUMPDEST PUSH1 0x8 DUP5 ADD SLOAD PUSH1 0x40 MLOAD PUSH4 0x23B872DD PUSH1 0xE0 SHL DUP2 MSTORE CALLER PUSH1 0x4 DUP3 ADD MSTORE ADDRESS PUSH1 0x24 DUP3 ADD MSTORE PUSH1 0x44 DUP2 ADD DUP4 SWAP1 MSTORE SWAP2 SWAP3 POP PUSH1 0x1 PUSH1 0x1 PUSH1 0xA0 SHL SUB AND SWAP1 PUSH4 0x23B872DD SWAP1 PUSH1 0x64 ADD PUSH1 0x20 PUSH1 0x40 MLOAD DUP1 DUP4 SUB DUP2 PUSH1 0x0 DUP8 GAS CALL ISZERO DUP1 ISZERO PUSH2 0xC7D JUMPI RETURNDATASIZE PUSH1 0x0 DUP1 RETURNDATACOPY RETURNDATASIZE PUSH1 0x0 REVERT JUMPDEST POP POP POP POP PUSH1 0x40 MLOAD RETURNDATASIZE PUSH1 0x1F NOT PUSH1 0x1F DUP3 ADD AND DUP3 ADD DUP1 PUSH1 0x40 MSTORE POP DUP2 ADD SWAP1 PUSH2 0xCA1 SWAP2 SWAP1 PUSH2 0x1501 JUMP JUMPDEST POP PUSH1 0x7 DUP4 ADD SLOAD PUSH1 0x2 DUP5 ADD SLOAD PUSH1 0x40 MLOAD PUSH4 0xA9059CBB PUSH1 0xE0 SHL DUP2 MSTORE CALLER PUSH1 0x4 DUP3 ADD MSTORE PUSH1 0x24 DUP2 ADD SWAP2 SWAP1 SWAP2 MSTORE PUSH3 0x10000 SWAP1 SWAP2 DIV PUSH1 0x1 PUSH1 0x1 PUSH1 0xA0 SHL SUB AND SWAP1 PUSH4 0xA9059CBB SWAP1 PUSH1 0x44 ADD PUSH1 0x20 PUSH1 0x40 MLOAD DUP1 DUP4 SUB DUP2 PUSH1 0x0 DUP8 GAS CALL ISZERO DUP1 ISZERO PUSH2 0xD00 JUMPI RETURNDATASIZE PUSH1 0x0 DUP1 RETURNDATACOPY RETURNDATASIZE PUSH1 0x0 REVERT JUMPDEST POP POP POP POP PUSH1 0x40 MLOAD RETURNDATASIZE PUSH1 0x1F NOT PUSH1 0x1F DUP3 ADD AND DUP3 ADD DUP1 PUSH1 0x40 MSTORE POP DUP2 ADD SWAP1 PUSH2 0xD24 SWAP2 SWAP1 PUSH2 0x1501 JUMP JUMPDEST POP PUSH1 0x7 DUP4 ADD DUP1 SLOAD PUSH2 0xFFFF NOT AND PUSH2 0x100 OR SWAP1 SSTORE PUSH1 0x6 DUP4 ADD SLOAD PUSH1 0x5 DUP5 ADD SLOAD PUSH1 0x0 SWAP2 PUSH2 0xD4C SWAP2 PUSH2 0x153C JUMP JUMPDEST TIMESTAMP GT ISZERO SWAP1 POP PUSH2 0xD5D CALLER PUSH1 0x1 DUP4 PUSH2 0x11D7 JUMP JUMPDEST PUSH1 0x40 DUP1 MLOAD DUP4 DUP2 MSTORE DUP3 ISZERO ISZERO PUSH1 0x20 DUP3 ADD MSTORE CALLER SWAP2 DUP8 SWAP2 PUSH32 0x2010DE6EC11F83338B76CF98D4924C7EA74A036C590A8180872A82D2871C47CA SWAP2 ADD PUSH1 0x40 MLOAD DUP1 SWAP2 SUB SWAP1 LOG3 POP POP POP POP PUSH2 0xDA9 PUSH1 0x1 PUSH1 0x0 SSTORE JUMP JUMPDEST POP JUMP JUMPDEST PUSH1 0x1 PUSH1 0x1 PUSH1 0xA0 SHL SUB DUP2 AND PUSH1 0x0 SWAP1 DUP2 MSTORE PUSH1 0x5 PUSH1 0x20 SWAP1 DUP2 MSTORE PUSH1 0x40 DUP1 DUP4 KECCAK256 DUP2 MLOAD PUSH1 0xA0 DUP2 ADD DUP4 MSTORE DUP2 SLOAD DUP1 DUP3 MSTORE PUSH1 0x1 DUP4 ADD SLOAD SWAP5 DUP3 ADD SWAP5 SWAP1 SWAP5 MSTORE PUSH1 0x2 DUP3 ADD SLOAD SWAP3 DUP2 ADD SWAP3 SWAP1 SWAP3 MSTORE PUSH1 0x3 DUP2 ADD SLOAD PUSH1 0x60 DUP4 ADD MSTORE PUSH1 0x4 ADD SLOAD PUSH1 0x80 DUP3 ADD MSTORE SWAP1 DUP3 SWAP1 PUSH2 0xE0E SWAP1 PUSH1 0xC8 SWAP1 PUSH2 0x14C2 JUMP JUMPDEST SWAP1 POP PUSH2 0x1F4 DUP2 LT PUSH2 0xE23 JUMPI POP PUSH1 0x64 SWAP4 SWAP3 POP POP POP JUMP JUMPDEST PUSH2 0xB50 DUP2 PUSH2 0x1F4 PUSH2 0x154F JUMP JUMPDEST PUSH2 0xE37 PUSH2 0x1189 JUMP JUMPDEST PUSH1 0x0 DUP2 DUP2 MSTORE PUSH1 0x3 PUSH1 0x20 MSTORE PUSH1 0x40 SWAP1 KECCAK256 PUSH1 0x7 DUP2 ADD SLOAD PUSH1 0xFF AND PUSH2 0xE8B JUMPI PUSH1 0x40 MLOAD PUSH3 0x461BCD PUSH1 0xE5 SHL DUP2 MSTORE PUSH1 0x20 PUSH1 0x4 DUP3 ADD MSTORE PUSH1 0xF PUSH1 0x24 DUP3 ADD MSTORE PUSH15 0x4C6F616E206E6F7420616374697665 PUSH1 0x88 SHL PUSH1 0x44 DUP3 ADD MSTORE PUSH1 0x64 ADD PUSH2 0x632 JUMP JUMPDEST DUP1 PUSH1 0x6 ADD SLOAD DUP2 PUSH1 0x5 ADD SLOAD PUSH2 0xE9F SWAP2 SWAP1 PUSH2 0x153C JUMP JUMPDEST TIMESTAMP GT PUSH2 0xEE0 JUMPI PUSH1 0x40 MLOAD PUSH3 0x461BCD PUSH1 0xE5 SHL DUP2 MSTORE PUSH1 0x20 PUSH1 0x4 DUP3 ADD MSTORE PUSH1 0x10 PUSH1 0x24 DUP3 ADD MSTORE PUSH16 0x131BD85B881B9BDD08195E1C1A5C9959 PUSH1 0x82 SHL PUSH1 0x44 DUP3 ADD MSTORE PUSH1 0x64 ADD PUSH2 0x632 JUMP JUMPDEST PUSH1 0x7 DUP2 ADD SLOAD PUSH1 0x1 PUSH1 0x1 PUSH1 0xA0 SHL SUB PUSH3 0x10000 SWAP1 SWAP2 DIV AND PUSH4 0xA9059CBB PUSH2 0xF12 PUSH1 0x1 SLOAD PUSH1 0x1 PUSH1 0x1 PUSH1 0xA0 SHL SUB PUSH2 0x100 SWAP1 SWAP2 DIV AND SWAP1 JUMP JUMPDEST PUSH1 0x2 DUP5 ADD SLOAD PUSH1 0x40 MLOAD PUSH1 0x1 PUSH1 0x1 PUSH1 0xE0 SHL SUB NOT PUSH1 0xE0 DUP6 SWAP1 SHL AND DUP2 MSTORE PUSH1 0x1 PUSH1 0x1 PUSH1 0xA0 SHL SUB SWAP1 SWAP3 AND PUSH1 0x4 DUP4 ADD MSTORE PUSH1 0x24 DUP3 ADD MSTORE PUSH1 0x44 ADD PUSH1 0x20 PUSH1 0x40 MLOAD DUP1 DUP4 SUB DUP2 PUSH1 0x0 DUP8 GAS CALL ISZERO DUP1 ISZERO PUSH2 0xF62 JUMPI RETURNDATASIZE PUSH1 0x0 DUP1 RETURNDATACOPY RETURNDATASIZE PUSH1 0x0 REVERT JUMPDEST POP POP POP POP PUSH1 0x40 MLOAD RETURNDATASIZE PUSH1 0x1F NOT PUSH1 0x1F DUP3 ADD AND DUP3 ADD DUP1 PUSH1 0x40 MSTORE POP DUP2 ADD SWAP1 PUSH2 0xF86 SWAP2 SWAP1 PUSH2 0x1501 JUMP JUMPDEST POP PUSH1 0x7 DUP2 ADD DUP1 SLOAD PUSH1 0xFF NOT AND SWAP1 SSTORE PUSH1 0x1 DUP2 ADD SLOAD PUSH2 0xFAD SWAP1 PUSH1 0x1 PUSH1 0x1 PUSH1 0xA0 SHL SUB AND PUSH1 0x0 DUP1 PUSH2 0x11D7 JUMP JUMPDEST PUSH1 0x1 DUP2 ADD SLOAD PUSH1 0x2 DUP3 ADD SLOAD PUSH1 0x40 MLOAD SWAP1 DUP2 MSTORE PUSH1 0x1 PUSH1 0x1 PUSH1 0xA0 SHL SUB SWAP1 SWAP2 AND SWAP1 DUP4 SWAP1 PUSH32 0xCAFCA847A6C6645C7DD7BB55A47759CD884F49BD6E8C273F4EE701E8B81BCDA0 SWAP1 PUSH1 0x20 ADD PUSH1 0x40 MLOAD DUP1 SWAP2 SUB SWAP1 LOG3 POP PUSH2 0xDA9 PUSH1 0x1 PUSH1 0x0 SSTORE JUMP JUMPDEST PUSH1 0x4 PUSH1 0x20 MSTORE DUP2 PUSH1 0x0 MSTORE PUSH1 0x40 PUSH1 0x0 KECCAK256 DUP2 DUP2 SLOAD DUP2 LT PUSH2 0x101F JUMPI PUSH1 0x0 DUP1 REVERT JUMPDEST SWAP1 PUSH1 0x0 MSTORE PUSH1 0x20 PUSH1 0x0 KECCAK256 ADD PUSH1 0x0 SWAP2 POP SWAP2 POP POP SLOAD DUP2 JUMP JUMPDEST PUSH2 0x103C PUSH2 0x106F JUMP JUMPDEST PUSH1 0x1 PUSH1 0x1 PUSH1 0xA0 SHL SUB DUP2 AND PUSH2 0x1066 JUMPI PUSH1 0x40 MLOAD PUSH4 0x1E4FBDF7 PUSH1 0xE0 SHL DUP2 MSTORE PUSH1 0x0 PUSH1 0x4 DUP3 ADD MSTORE PUSH1 0x24 ADD PUSH2 0x632 JUMP JUMPDEST PUSH2 0xDA9 DUP2 PUSH2 0x10F4 JUMP JUMPDEST PUSH1 0x1 SLOAD PUSH1 0x1 PUSH1 0x1 PUSH1 0xA0 SHL SUB PUSH2 0x100 SWAP1 SWAP2 DIV AND CALLER EQ PUSH2 0x5BB JUMPI PUSH1 0x40 MLOAD PUSH4 0x118CDAA7 PUSH1 0xE0 SHL DUP2 MSTORE CALLER PUSH1 0x4 DUP3 ADD MSTORE PUSH1 0x24 ADD PUSH2 0x632 JUMP JUMPDEST PUSH2 0x10AA PUSH2 0x1374 JUMP JUMPDEST PUSH1 0x1 DUP1 SLOAD PUSH1 0xFF NOT AND SWAP1 SSTORE PUSH32 0x5DB9EE0A495BF2E6FF9C91A7834C1BA4FDD244A5E8AA4E537BD38AEAE4B073AA CALLER JUMPDEST PUSH1 0x40 MLOAD PUSH1 0x1 PUSH1 0x1 PUSH1 0xA0 SHL SUB SWAP1 SWAP2 AND DUP2 MSTORE PUSH1 0x20 ADD PUSH1 0x40 MLOAD DUP1 SWAP2 SUB SWAP1 LOG1 JUMP JUMPDEST PUSH1 0x1 DUP1 SLOAD PUSH1 0x1 PUSH1 0x1 PUSH1 0xA0 SHL SUB DUP4 DUP2 AND PUSH2 0x100 DUP2 DUP2 MUL PUSH2 0x100 PUSH1 0x1 PUSH1 0xA8 SHL SUB NOT DUP6 AND OR SWAP1 SWAP5 SSTORE PUSH1 0x40 MLOAD SWAP4 SWAP1 SWAP3 DIV AND SWAP2 DUP3 SWAP1 PUSH32 0x8BE0079C531659141344CD1FD0A4F28419497F9722A3DAAFE3B4186F6B6457E0 SWAP1 PUSH1 0x0 SWAP1 LOG3 POP POP JUMP JUMPDEST PUSH2 0x1156 PUSH2 0x11B3 JUMP JUMPDEST PUSH1 0x1 DUP1 SLOAD PUSH1 0xFF NOT AND DUP2 OR SWAP1 SSTORE PUSH32 0x62E78CEA01BEE320CD4E420270B5EA74000D11B0C9F74754EBDBFC544B05A258 CALLER PUSH2 0x10D7 JUMP JUMPDEST PUSH1 0x2 PUSH1 0x0 SLOAD SUB PUSH2 0x11AC JUMPI PUSH1 0x40 MLOAD PUSH4 0x3EE5AEB5 PUSH1 0xE0 SHL DUP2 MSTORE PUSH1 0x4 ADD PUSH1 0x40 MLOAD DUP1 SWAP2 SUB SWAP1 REVERT JUMPDEST PUSH1 0x2 PUSH1 0x0 SSTORE JUMP JUMPDEST PUSH1 0x1 SLOAD PUSH1 0xFF AND ISZERO PUSH2 0x5BB JUMPI PUSH1 0x40 MLOAD PUSH4 0xD93C0665 PUSH1 0xE0 SHL DUP2 MSTORE PUSH1 0x4 ADD PUSH1 0x40 MLOAD DUP1 SWAP2 SUB SWAP1 REVERT JUMPDEST PUSH1 0x1 PUSH1 0x1 PUSH1 0xA0 SHL SUB DUP4 AND PUSH1 0x0 SWAP1 DUP2 MSTORE PUSH1 0x5 PUSH1 0x20 MSTORE PUSH1 0x40 SWAP1 KECCAK256 DUP1 SLOAD DUP4 DUP1 ISZERO PUSH2 0x11FB JUMPI POP DUP3 JUMPDEST ISZERO PUSH2 0x12F7 JUMPI PUSH1 0x2 DUP3 ADD DUP1 SLOAD SWAP1 PUSH1 0x0 PUSH2 0x1212 DUP4 PUSH2 0x1523 JUMP JUMPDEST SWAP2 SWAP1 POP SSTORE POP PUSH1 0x0 DUP3 PUSH1 0x1 ADD SLOAD DUP4 PUSH1 0x2 ADD SLOAD PUSH2 0x2710 PUSH2 0x1230 SWAP2 SWAP1 PUSH2 0x14C2 JUMP JUMPDEST PUSH2 0x123A SWAP2 SWAP1 PUSH2 0x14DF JUMP JUMPDEST SWAP1 POP PUSH2 0x251C DUP2 LT ISZERO DUP1 ISZERO PUSH2 0x1253 JUMPI POP PUSH1 0xA DUP4 PUSH1 0x1 ADD SLOAD LT ISZERO JUMPDEST ISZERO PUSH2 0x1261 JUMPI PUSH1 0x5 DUP4 SSTORE PUSH2 0x12F1 JUMP JUMPDEST PUSH2 0x2328 DUP2 LT ISZERO DUP1 ISZERO PUSH2 0x1278 JUMPI POP PUSH1 0x8 DUP4 PUSH1 0x1 ADD SLOAD LT ISZERO JUMPDEST ISZERO PUSH2 0x1286 JUMPI PUSH1 0x4 DUP4 SSTORE PUSH2 0x12F1 JUMP JUMPDEST PUSH2 0x1F40 DUP2 LT ISZERO DUP1 ISZERO PUSH2 0x129D JUMPI POP PUSH1 0x5 DUP4 PUSH1 0x1 ADD SLOAD LT ISZERO JUMPDEST ISZERO PUSH2 0x12AB JUMPI PUSH1 0x3 DUP4 SSTORE PUSH2 0x12F1 JUMP JUMPDEST PUSH2 0x1B58 DUP2 LT ISZERO DUP1 ISZERO PUSH2 0x12C2 JUMPI POP PUSH1 0x3 DUP4 PUSH1 0x1 ADD SLOAD LT ISZERO JUMPDEST ISZERO PUSH2 0x12D0 JUMPI PUSH1 0x2 DUP4 SSTORE PUSH2 0x12F1 JUMP JUMPDEST PUSH2 0x1388 DUP2 LT ISZERO DUP1 ISZERO PUSH2 0x12E7 JUMPI POP PUSH1 0x1 DUP4 PUSH1 0x1 ADD SLOAD LT ISZERO JUMPDEST ISZERO PUSH2 0x12F1 JUMPI PUSH1 0x1 DUP4 SSTORE JUMPDEST POP PUSH2 0x1312 JUMP JUMPDEST DUP2 SLOAD ISZERO PUSH2 0x1312 JUMPI DUP2 SLOAD DUP3 PUSH1 0x0 PUSH2 0x130C DUP4 PUSH2 0x1562 JUMP JUMPDEST SWAP2 SWAP1 POP SSTORE POP JUMPDEST DUP2 SLOAD DUP2 EQ PUSH2 0x1367 JUMPI DUP2 SLOAD PUSH1 0x40 MLOAD PUSH1 0x1 PUSH1 0x1 PUSH1 0xA0 SHL SUB DUP8 AND SWAP2 PUSH32 0x5B88A2E3FC1A53234357AB78C104DF11C33CCFA79886793654565AD70B8AFB6E SWAP2 PUSH2 0x135E SWAP2 DUP6 DUP3 MSTORE PUSH1 0x20 DUP3 ADD MSTORE PUSH1 0x40 ADD SWAP1 JUMP JUMPDEST PUSH1 0x40 MLOAD DUP1 SWAP2 SUB SWAP1 LOG2 JUMPDEST POP TIMESTAMP PUSH1 0x4 SWAP1 SWAP2 ADD SSTORE POP POP POP JUMP JUMPDEST PUSH1 0x1 SLOAD PUSH1 0xFF AND PUSH2 0x5BB JUMPI PUSH1 0x40 MLOAD PUSH4 0x8DFC202B PUSH1 0xE0 SHL DUP2 MSTORE PUSH1 0x4 ADD PUSH1 0x40 MLOAD DUP1 SWAP2 SUB SWAP1 REVERT JUMPDEST DUP1 CALLDATALOAD PUSH1 0x1 PUSH1 0x1 PUSH1 0xA0 SHL SUB DUP2 AND DUP2 EQ PUSH2 0x13AE JUMPI PUSH1 0x0 DUP1 REVERT JUMPDEST SWAP2 SWAP1 POP JUMP JUMPDEST PUSH1 0x0 PUSH1 0x20 DUP3 DUP5 SUB SLT ISZERO PUSH2 0x13C5 JUMPI PUSH1 0x0 DUP1 REVERT JUMPDEST PUSH2 0x13CE DUP3 PUSH2 0x1397 JUMP JUMPDEST SWAP4 SWAP3 POP POP POP JUMP JUMPDEST PUSH1 0x20 DUP1 DUP3 MSTORE DUP3 MLOAD DUP3 DUP3 ADD DUP2 SWAP1 MSTORE PUSH1 0x0 SWAP2 SWAP1 DUP5 DUP3 ADD SWAP1 PUSH1 0x40 DUP6 ADD SWAP1 DUP5 JUMPDEST DUP2 DUP2 LT ISZERO PUSH2 0x140D JUMPI DUP4 MLOAD DUP4 MSTORE SWAP3 DUP5 ADD SWAP3 SWAP2 DUP5 ADD SWAP2 PUSH1 0x1 ADD PUSH2 0x13F1 JUMP JUMPDEST POP SWAP1 SWAP7 SWAP6 POP POP POP POP POP POP JUMP JUMPDEST PUSH1 0x0 PUSH1 0x20 DUP3 DUP5 SUB SLT ISZERO PUSH2 0x142B JUMPI PUSH1 0x0 DUP1 REVERT JUMPDEST POP CALLDATALOAD SWAP2 SWAP1 POP JUMP JUMPDEST PUSH1 0x0 DUP1 PUSH1 0x0 DUP1 PUSH1 0x0 PUSH1 0xA0 DUP7 DUP9 SUB SLT ISZERO PUSH2 0x144A JUMPI PUSH1 0x0 DUP1 REVERT JUMPDEST DUP6 CALLDATALOAD SWAP5 POP PUSH1 0x20 DUP7 ADD CALLDATALOAD SWAP4 POP PUSH1 0x40 DUP7 ADD CALLDATALOAD SWAP3 POP PUSH2 0x1468 PUSH1 0x60 DUP8 ADD PUSH2 0x1397 JUMP JUMPDEST SWAP2 POP PUSH2 0x1476 PUSH1 0x80 DUP8 ADD PUSH2 0x1397 JUMP JUMPDEST SWAP1 POP SWAP3 SWAP6 POP SWAP3 SWAP6 SWAP1 SWAP4 POP JUMP JUMPDEST PUSH1 0x0 DUP1 PUSH1 0x40 DUP4 DUP6 SUB SLT ISZERO PUSH2 0x1495 JUMPI PUSH1 0x0 DUP1 REVERT JUMPDEST PUSH2 0x149E DUP4 PUSH2 0x1397 JUMP JUMPDEST SWAP5 PUSH1 0x20 SWAP4 SWAP1 SWAP4 ADD CALLDATALOAD SWAP4 POP POP POP JUMP JUMPDEST PUSH4 0x4E487B71 PUSH1 0xE0 SHL PUSH1 0x0 MSTORE PUSH1 0x11 PUSH1 0x4 MSTORE PUSH1 0x24 PUSH1 0x0 REVERT JUMPDEST DUP1 DUP3 MUL DUP2 ISZERO DUP3 DUP3 DIV DUP5 EQ OR PUSH2 0x14D9 JUMPI PUSH2 0x14D9 PUSH2 0x14AC JUMP JUMPDEST SWAP3 SWAP2 POP POP JUMP JUMPDEST PUSH1 0x0 DUP3 PUSH2 0x14FC JUMPI PUSH4 0x4E487B71 PUSH1 0xE0 SHL PUSH1 0x0 MSTORE PUSH1 0x12 PUSH1 0x4 MSTORE PUSH1 0x24 PUSH1 0x0 REVERT JUMPDEST POP DIV SWAP1 JUMP JUMPDEST PUSH1 0x0 PUSH1 0x20 DUP3 DUP5 SUB SLT ISZERO PUSH2 0x1513 JUMPI PUSH1 0x0 DUP1 REVERT JUMPDEST DUP2 MLOAD DUP1 ISZERO ISZERO DUP2 EQ PUSH2 0x13CE JUMPI PUSH1 0x0 DUP1 REVERT JUMPDEST PUSH1 0x0 PUSH1 0x1 DUP3 ADD PUSH2 0x1535 JUMPI PUSH2 0x1535 PUSH2 0x14AC JUMP JUMPDEST POP PUSH1 0x1 ADD SWAP1 JUMP JUMPDEST DUP1 DUP3 ADD DUP1 DUP3 GT ISZERO PUSH2 0x14D9 JUMPI PUSH2 0x14D9 PUSH2 0x14AC JUMP JUMPDEST DUP2 DUP2 SUB DUP2 DUP2 GT ISZERO PUSH2 0x14D9 JUMPI PUSH2 0x14D9 PUSH2 0x14AC JUMP JUMPDEST PUSH1 0x0 DUP2 PUSH2 0x1571 JUMPI PUSH2 0x1571 PUSH2 0x14AC JUMP JUMPDEST POP PUSH1 0x0 NOT ADD SWAP1 JUMP INVALID LOG2 PUSH5 0x6970667358 0x22 SLT KECCAK256 LT PUSH24 0x39E15783EEE166E5505594EE05528CE475F89EF16D67F1ED BASEFEE EQ SMOD PUSH27 0x858364736F6C634300081400330000000000000000000000000000 "},"methodIdentifiers":{"COLLATERAL_RATIO()":"d9e69a05","INTEREST_RATE()":"5b72a33a","MAX_REPUTATION()":"d213c0f2","REPUTATION_BONUS()":"cf7b4830","calculateInterest(uint256)":"a57475e0","calculateInterestRate(address)":"c0d18843","createLoan(uint256,uint256,uint256,address,address)":"950bc878","getLoanDetails(uint256)":"66877b8d","getUserLoans(address)":"02bf321f","liquidateLoan(uint256)":"ccdd9f5d","loans(uint256)":"e1ec3c68","mntToken()":"7f0554ca","nextLoanId()":"87c51459","owner()":"8da5cb5b","pause()":"8456cb59","paused()":"5c975abb","renounceOwnership()":"715018a6","repayLoan(uint256)":"ab7b1c89","transferOwnership(address)":"f2fde38b","unpause()":"3f4ba83a","usdcToken()":"11eac855","userLoans(address,uint256)":"d8bad5bd","userReputation(address)":"e503bb05"}}}}}