{"contract/rwa_tokenization.sol":{"KYCRegistry":{"abi":[{"inputs":[],"stateMutability":"nonpayable","type":"constructor"},{"inputs":[],"name":"AccessControlBadConfirmation","type":"error"},{"inputs":[{"internalType":"address","name":"account","type":"address"},{"internalType":"bytes32","name":"neededRole","type":"bytes32"}],"name":"AccessControlUnauthorizedAccount","type":"error"},{"anonymous":false,"inputs":[{"indexed":true,"internalType":"address","name":"user","type":"address"},{"indexed":false,"internalType":"string","name":"reason","type":"string"}],"name":"KYCRejected","type":"event"},{"anonymous":false,"inputs":[{"indexed":true,"internalType":"address","name":"user","type":"address"},{"indexed":false,"internalType":"uint256","name":"timestamp","type":"uint256"}],"name":"KYCSubmitted","type":"event"},{"anonymous":false,"inputs":[{"indexed":true,"internalType":"address","name":"user","type":"address"},{"indexed":false,"internalType":"string","name":"reason","type":"string"}],"name":"KYCSuspended","type":"event"},{"anonymous":false,"inputs":[{"indexed":true,"internalType":"address","name":"user","type":"address"},{"indexed":false,"internalType":"uint8","name":"tier","type":"uint8"},{"indexed":false,"internalType":"uint256","name":"expiresAt","type":"uint256"}],"name":"KYCVerified","type":"event"},{"anonymous":false,"inputs":[{"indexed":true,"internalType":"bytes32","name":"role","type":"bytes32"},{"indexed":true,"internalType":"bytes32","name":"previousAdminRole","type":"bytes32"},{"indexed":true,"internalType":"bytes32","name":"newAdminRole","type":"bytes32"}],"name":"RoleAdminChanged","type":"event"},{"anonymous":false,"inputs":[{"indexed":true,"internalType":"bytes32","name":"role","type":"bytes32"},{"indexed":true,"internalType":"address","name":"account","type":"address"},{"indexed":true,"internalType":"address","name":"sender","type":"address"}],"name":"RoleGranted","type":"event"},{"anonymous":false,"inputs":[{"indexed":true,"internalType":"bytes32","name":"role","type":"bytes32"},{"indexed":true,"internalType":"address","name":"account","type":"address"},{"indexed":true,"internalType":"address","name":"sender","type":"address"}],"name":"RoleRevoked","type":"event"},{"inputs":[],"name":"DEFAULT_ADMIN_ROLE","outputs":[{"internalType":"bytes32","name":"","type":"bytes32"}],"stateMutability":"view","type":"function"},{"inputs":[],"name":"KYC_ADMIN_ROLE","outputs":[{"internalType":"bytes32","name":"","type":"bytes32"}],"stateMutability":"view","type":"function"},{"inputs":[{"internalType":"address","name":"user","type":"address"}],"name":"getKYCTier","outputs":[{"internalType":"uint8","name":"","type":"uint8"}],"stateMutability":"view","type":"function"},{"inputs":[{"internalType":"bytes32","name":"role","type":"bytes32"}],"name":"getRoleAdmin","outputs":[{"internalType":"bytes32","name":"","type":"bytes32"}],"stateMutability":"view","type":"function"},{"inputs":[{"internalType":"bytes32","name":"role","type":"bytes32"},{"internalType":"address","name":"account","type":"address"}],"name":"grantRole","outputs":[],"stateMutability":"nonpayable","type":"function"},{"inputs":[{"internalType":"bytes32","name":"role","type":"bytes32"},{"internalType":"address","name":"account","type":"address"}],"name":"hasRole","outputs":[{"internalType":"bool","name":"","type":"bool"}],"stateMutability":"view","type":"function"},{"inputs":[{"internalType":"address","name":"user","type":"address"}],"name":"isKYCVerified","outputs":[{"internalType":"bool","name":"","type":"bool"}],"stateMutability":"view","type":"function"},{"inputs":[{"internalType":"address","name":"","type":"address"}],"name":"kycData","outputs":[{"internalType":"enum KYCRegistry.KYCStatus","name":"status","type":"uint8"},{"internalType":"uint256","name":"verifiedAt","type":"uint256"},{"internalType":"uint256","name":"expiresAt","type":"uint256"},{"internalType":"string","name":"country","type":"string"},{"internalType":"uint8","name":"tier","type":"uint8"}],"stateMutability":"view","type":"function"},{"inputs":[{"internalType":"address","name":"user","type":"address"},{"internalType":"string","name":"reason","type":"string"}],"name":"rejectKYC","outputs":[],"stateMutability":"nonpayable","type":"function"},{"inputs":[{"internalType":"bytes32","name":"role","type":"bytes32"},{"internalType":"address","name":"callerConfirmation","type":"address"}],"name":"renounceRole","outputs":[],"stateMutability":"nonpayable","type":"function"},{"inputs":[{"internalType":"bytes32","name":"role","type":"bytes32"},{"internalType":"address","name":"account","type":"address"}],"name":"revokeRole","outputs":[],"stateMutability":"nonpayable","type":"function"},{"inputs":[{"internalType":"string","name":"country","type":"string"}],"name":"submitKYC","outputs":[],"stateMutability":"nonpayable","type":"function"},{"inputs":[{"internalType":"bytes4","name":"interfaceId","type":"bytes4"}],"name":"supportsInterface","outputs":[{"internalType":"bool","name":"","type":"bool"}],"stateMutability":"view","type":"function"},{"inputs":[{"internalType":"address","name":"user","type":"address"},{"internalType":"string","name":"reason","type":"string"}],"name":"suspendKYC","outputs":[],"stateMutability":"nonpayable","type":"function"},{"inputs":[{"internalType":"address","name":"user","type":"address"},{"internalType":"uint8","name":"tier","type":"uint8"},{"internalType":"uint256","name":"validityDays","type":"uint256"}],"name":"verifyKYC","outputs":[],"stateMutability":"nonpayable","type":"function"}],"evm":{"bytecode":{"linkReferences":{},"object":"608060405234801561001057600080fd5b5061001c60003361004d565b506100477f811427a0fa4932aef534bba16bc34e9b7b2d7d2a79c475fca1765f6cc1faebea3361004d565b506100f9565b6000828152602081815260408083206001600160a01b038516845290915281205460ff166100ef576000838152602081815260408083206001600160a01b03861684529091529020805460ff191660011790556100a73390565b6001600160a01b0316826001600160a01b0316847f2f8788117e7eff1d82e926ec794901d17c78024a50270940304540a733656f0d60405160405180910390a45060016100f3565b5060005b92915050565b610fa3806101086000396000f3fe608060405234801561001057600080fd5b50600436106100f55760003560e01c8063453ae3cf11610097578063a217fddf11610066578063a217fddf14610213578063b39c3c221461021b578063c828daa41461022e578063d547741f1461025357600080fd5b8063453ae3cf146101c75780634e74451f146101da57806354b7636e146101ed57806391d148541461020057600080fd5b8063238b651c116100d3578063238b651c14610169578063248a9ca31461017e5780632f2ff15d146101a157806336568abe146101b457600080fd5b806301ffc9a7146100fa57806302d7fd9214610122578063076f356514610145575b600080fd5b61010d610108366004610b0f565b610266565b60405190151581526020015b60405180910390f35b610137600080516020610f4e83398151915281565b604051908152602001610119565b610158610153366004610b55565b61029d565b604051610119959493929190610b86565b61017c610177366004610c61565b61035e565b005b61013761018c366004610cb4565b60009081526020819052604090206001015490565b61017c6101af366004610ccd565b6103d9565b61017c6101c2366004610ccd565b610404565b61017c6101d5366004610cf9565b61043c565b61017c6101e8366004610d3b565b6105bc565b61010d6101fb366004610b55565b610733565b61010d61020e366004610ccd565b610869565b610137600081565b61017c610229366004610c61565b610892565b61024161023c366004610b55565b61096a565b60405160ff9091168152602001610119565b61017c610261366004610ccd565b6109a3565b60006001600160e01b03198216637965db0b60e01b148061029757506301ffc9a760e01b6001600160e01b03198316145b92915050565b6001602081905260009182526040909120805491810154600282015460038301805460ff90951694929391926102d290610d80565b80601f01602080910402602001604051908101604052809291908181526020018280546102fe90610d80565b801561034b5780601f106103205761010080835404028352916020019161034b565b820191906000526020600020905b81548152906001019060200180831161032e57829003601f168201915b5050506004909301549192505060ff1685565b600080516020610f4e833981519152610376816109c8565b6001600160a01b03841660008181526001602052604090819020805460ff19166003179055517f75f84e3d7c86754b3e5f8bc711d431d67ac0d2f50e92f0754c0552da79b49bfd906103cb9086908690610dba565b60405180910390a250505050565b6000828152602081905260409020600101546103f4816109c8565b6103fe83836109d5565b50505050565b6001600160a01b038116331461042d5760405163334bd91960e11b815260040160405180910390fd5b6104378282610a67565b505050565b60023360009081526001602052604090205460ff16600481111561046257610462610b70565b036104a75760405162461bcd60e51b815260206004820152601060248201526f105b1c9958591e481d995c9a599a595960821b60448201526064015b60405180910390fd5b6040805160a081019091528060018152602001600081526020016000815260200183838080601f01602080910402602001604051908101604052809392919081815260200183838082843760009201829052509385525050506020918201819052338152600191829052604090208251815491929091839160ff199091169083600481111561053857610538610b70565b02179055506020820151600182015560408201516002820155606082015160038201906105659082610e4d565b50608091909101516004909101805460ff191660ff90921691909117905560405142815233907f2c3dea8db96f9d4588bb336e6b5c792bfaa97ca6516c306e79447561879425229060200160405180910390a25050565b600080516020610f4e8339815191526105d4816109c8565b60018360ff16101580156105ec575060038360ff1611155b6106275760405162461bcd60e51b815260206004820152600c60248201526b24b73b30b634b2103a34b2b960a11b604482015260640161049e565b60016001600160a01b03851660009081526001602052604090205460ff16600481111561065657610656610b70565b146106915760405162461bcd60e51b815260206004820152600b60248201526a4e6f742070656e64696e6760a81b604482015260640161049e565b60006106a08362015180610f23565b6106aa9042610f3a565b6001600160a01b038616600081815260016020818152604092839020805460ff19908116600290811783554294830194909455928101869055600401805460ff8b169316831790558251918252810184905292935090917fe31789edf2ea12b3c29588a99e019ca85791c8d2f66b179e8fef487566ba1ce4910160405180910390a25050505050565b6001600160a01b038116600090815260016020526040808220815160a08101909252805483929190829060ff16600481111561077157610771610b70565b600481111561078257610782610b70565b815260200160018201548152602001600282015481526020016003820180546107aa90610d80565b80601f01602080910402602001604051908101604052809291908181526020018280546107d690610d80565b80156108235780601f106107f857610100808354040283529160200191610823565b820191906000526020600020905b81548152906001019060200180831161080657829003601f168201915b50505091835250506004919091015460ff16602090910152905060028151600481111561085257610852610b70565b1480156108625750806040015142105b9392505050565b6000918252602082815260408084206001600160a01b0393909316845291905290205460ff1690565b600080516020610f4e8339815191526108aa816109c8565b60026001600160a01b03851660009081526001602052604090205460ff1660048111156108d9576108d9610b70565b146109155760405162461bcd60e51b815260206004820152600c60248201526b139bdd081d995c9a599a595960a21b604482015260640161049e565b6001600160a01b03841660008181526001602052604090819020805460ff19166004179055517f17ccde318bfef3d7da189b133ba413ce6c242c82f805227ec85d20b64f029178906103cb9086908690610dba565b600061097582610733565b61098157506000919050565b506001600160a01b031660009081526001602052604090206004015460ff1690565b6000828152602081905260409020600101546109be816109c8565b6103fe8383610a67565b6109d28133610ad2565b50565b60006109e18383610869565b610a5f576000838152602081815260408083206001600160a01b03861684529091529020805460ff19166001179055610a173390565b6001600160a01b0316826001600160a01b0316847f2f8788117e7eff1d82e926ec794901d17c78024a50270940304540a733656f0d60405160405180910390a4506001610297565b506000610297565b6000610a738383610869565b15610a5f576000838152602081815260408083206001600160a01b0386168085529252808320805460ff1916905551339286917ff6391f5c32d9c69d2a47ea670b442974b53935d1edc7fd64eb21e047a839171b9190a4506001610297565b610adc8282610869565b610b0b5760405163e2517d3f60e01b81526001600160a01b03821660048201526024810183905260440161049e565b5050565b600060208284031215610b2157600080fd5b81356001600160e01b03198116811461086257600080fd5b80356001600160a01b0381168114610b5057600080fd5b919050565b600060208284031215610b6757600080fd5b61086282610b39565b634e487b7160e01b600052602160045260246000fd5b600060058710610ba657634e487b7160e01b600052602160045260246000fd5b8682526020868184015285604084015260a0606084015284518060a085015260005b81811015610be45786810183015185820160c001528201610bc8565b50600060c0828601015260c0601f19601f83011685010192505050610c0e608083018460ff169052565b9695505050505050565b60008083601f840112610c2a57600080fd5b50813567ffffffffffffffff811115610c4257600080fd5b602083019150836020828501011115610c5a57600080fd5b9250929050565b600080600060408486031215610c7657600080fd5b610c7f84610b39565b9250602084013567ffffffffffffffff811115610c9b57600080fd5b610ca786828701610c18565b9497909650939450505050565b600060208284031215610cc657600080fd5b5035919050565b60008060408385031215610ce057600080fd5b82359150610cf060208401610b39565b90509250929050565b60008060208385031215610d0c57600080fd5b823567ffffffffffffffff811115610d2357600080fd5b610d2f85828601610c18565b90969095509350505050565b600080600060608486031215610d5057600080fd5b610d5984610b39565b9250602084013560ff81168114610d6f57600080fd5b929592945050506040919091013590565b600181811c90821680610d9457607f821691505b602082108103610db457634e487b7160e01b600052602260045260246000fd5b50919050565b60208152816020820152818360408301376000818301604090810191909152601f909201601f19160101919050565b634e487b7160e01b600052604160045260246000fd5b601f82111561043757600081815260208120601f850160051c81016020861015610e265750805b601f850160051c820191505b81811015610e4557828155600101610e32565b505050505050565b815167ffffffffffffffff811115610e6757610e67610de9565b610e7b81610e758454610d80565b84610dff565b602080601f831160018114610eb05760008415610e985750858301515b600019600386901b1c1916600185901b178555610e45565b600085815260208120601f198616915b82811015610edf57888601518255948401946001909101908401610ec0565b5085821015610efd5787850151600019600388901b60f8161c191681555b5050505050600190811b01905550565b634e487b7160e01b600052601160045260246000fd5b808202811582820484141761029757610297610f0d565b8082018082111561029757610297610f0d56fe811427a0fa4932aef534bba16bc34e9b7b2d7d2a79c475fca1765f6cc1faebeaa2646970667358221220f9e458066cbb4e67b525ab5c0d8cbc63e3e2d2e96f15ce69509476cb109cafbf64736f6c63430008140033","opcodes":"PUSH1 0x80 PUSH1 0x40 MSTORE CALLVALUE DUP1 ISZERO PUSH2 0x10 JUMPI PUSH1 0x0 DUP1 REVERT JUMPDEST POP PUSH2 0x1C PUSH1 0x0 CALLER PUSH2 0x4D JUMP JUMPDEST POP PUSH2 0x47 PUSH32 0x811427A0FA4932AEF534BBA16BC34E9B7B2D7D2A79C475FCA1765F6CC1FAEBEA CALLER PUSH2 0x4D JUMP JUMPDEST POP PUSH2 0xF9 JUMP JUMPDEST PUSH1 0x0 DUP3 DUP2 MSTORE PUSH1 0x20 DUP2 DUP2 MSTORE PUSH1 0x40 DUP1 DUP4 KECCAK256 PUSH1 0x1 PUSH1 0x1 PUSH1 0xA0 SHL SUB DUP6 AND DUP5 MSTORE SWAP1 SWAP2 MSTORE DUP2 KECCAK256 SLOAD PUSH1 0xFF AND PUSH2 0xEF JUMPI PUSH1 0x0 DUP4 DUP2 MSTORE PUSH1 0x20 DUP2 DUP2 MSTORE PUSH1 0x40 DUP1 DUP4 KECCAK256 PUSH1 0x1 PUSH1 0x1 PUSH1 0xA0 SHL SUB DUP7 AND DUP5 MSTORE SWAP1 SWAP2 MSTORE SWAP1 KECCAK256 DUP1 SLOAD PUSH1 0xFF NOT AND PUSH1 0x1 OR SWAP1 SSTORE PUSH2 0xA7 CALLER SWAP1 JUMP JUMPDEST PUSH1 0x1 PUSH1 0x1 PUSH1 0xA0 SHL SUB AND DUP3 PUSH1 0x1 PUSH1 0x1 PUSH1 0xA0 SHL SUB AND DUP5 PUSH32 0x2F8788117E7EFF1D82E926EC794901D17C78024A50270940304540A733656F0D PUSH1 0x40 MLOAD PUSH1 0x40 MLOAD DUP1 SWAP2 SUB SWAP1 LOG4 POP PUSH1 0x1 PUSH2 0xF3 JUMP JUMPDEST POP PUSH1 0x0 JUMPDEST SWAP3 SWAP2 POP POP JUMP JUMPDEST PUSH2 0xFA3 DUP1 PUSH2 0x108 PUSH1 0x0 CODECOPY PUSH1 0x0 RETURN INVALID PUSH1 0x80 PUSH1 0x40 MSTORE CALLVALUE DUP1 ISZERO PUSH2 0x10 JUMPI PUSH1 0x0 DUP1 REVERT JUMPDEST POP PUSH1 0x4 CALLDATASIZE LT PUSH2 0xF5 JUMPI PUSH1 0x0 CALLDATALOAD PUSH1 0xE0 SHR DUP1 PUSH4 0x453AE3CF GT PUSH2 0x97 JUMPI DUP1 PUSH4 0xA217FDDF GT PUSH2 0x66 JUMPI DUP1 PUSH4 0xA217FDDF EQ PUSH2 0x213 JUMPI DUP1 PUSH4 0xB39C3C22 EQ PUSH2 0x21B JUMPI DUP1 PUSH4 0xC828DAA4 EQ PUSH2 0x22E JUMPI DUP1 PUSH4 0xD547741F EQ PUSH2 0x253 JUMPI PUSH1 0x0 DUP1 REVERT JUMPDEST DUP1 PUSH4 0x453AE3CF EQ PUSH2 0x1C7 JUMPI DUP1 PUSH4 0x4E74451F EQ PUSH2 0x1DA JUMPI DUP1 PUSH4 0x54B7636E EQ PUSH2 0x1ED JUMPI DUP1 PUSH4 0x91D14854 EQ PUSH2 0x200 JUMPI PUSH1 0x0 DUP1 REVERT JUMPDEST DUP1 PUSH4 0x238B651C GT PUSH2 0xD3 JUMPI DUP1 PUSH4 0x238B651C EQ PUSH2 0x169 JUMPI DUP1 PUSH4 0x248A9CA3 EQ PUSH2 0x17E JUMPI DUP1 PUSH4 0x2F2FF15D EQ PUSH2 0x1A1 JUMPI DUP1 PUSH4 0x36568ABE EQ PUSH2 0x1B4 JUMPI PUSH1 0x0 DUP1 REVERT JUMPDEST DUP1 PUSH4 0x1FFC9A7 EQ PUSH2 0xFA JUMPI DUP1 PUSH4 0x2D7FD92 EQ PUSH2 0x122 JUMPI DUP1 PUSH4 0x76F3565 EQ PUSH2 0x145 JUMPI JUMPDEST PUSH1 0x0 DUP1 REVERT JUMPDEST PUSH2 0x10D PUSH2 0x108 CALLDATASIZE PUSH1 0x4 PUSH2 0xB0F JUMP JUMPDEST PUSH2 0x266 JUMP JUMPDEST PUSH1 0x40 MLOAD SWAP1 ISZERO ISZERO DUP2 MSTORE PUSH1 0x20 ADD JUMPDEST PUSH1 0x40 MLOAD DUP1 SWAP2 SUB SWAP1 RETURN JUMPDEST PUSH2 0x137 PUSH1 0x0 DUP1 MLOAD PUSH1 0x20 PUSH2 0xF4E DUP4 CODECOPY DUP2 MLOAD SWAP2 MSTORE DUP2 JUMP JUMPDEST PUSH1 0x40 MLOAD SWAP1 DUP2 MSTORE PUSH1 0x20 ADD PUSH2 0x119 JUMP JUMPDEST PUSH2 0x158 PUSH2 0x153 CALLDATASIZE PUSH1 0x4 PUSH2 0xB55 JUMP JUMPDEST PUSH2 0x29D JUMP JUMPDEST PUSH1 0x40 MLOAD PUSH2 0x119 SWAP6 SWAP5 SWAP4 SWAP3 SWAP2 SWAP1 PUSH2 0xB86 JUMP JUMPDEST PUSH2 0x17C PUSH2 0x177 CALLDATASIZE PUSH1 0x4 PUSH2 0xC61 JUMP JUMPDEST PUSH2 0x35E JUMP JUMPDEST STOP JUMPDEST PUSH2 0x137 PUSH2 0x18C CALLDATASIZE PUSH1 0x4 PUSH2 0xCB4 JUMP JUMPDEST PUSH1 0x0 SWAP1 DUP2 MSTORE PUSH1 0x20 DUP2 SWAP1 MSTORE PUSH1 0x40 SWAP1 KECCAK256 PUSH1 0x1 ADD SLOAD SWAP1 JUMP JUMPDEST PUSH2 0x17C PUSH2 0x1AF CALLDATASIZE PUSH1 0x4 PUSH2 0xCCD JUMP JUMPDEST PUSH2 0x3D9 JUMP JUMPDEST PUSH2 0x17C PUSH2 0x1C2 CALLDATASIZE PUSH1 0x4 PUSH2 0xCCD JUMP JUMPDEST PUSH2 0x404 JUMP JUMPDEST PUSH2 0x17C PUSH2 0x1D5 CALLDATASIZE PUSH1 0x4 PUSH2 0xCF9 JUMP JUMPDEST PUSH2 0x43C JUMP JUMPDEST PUSH2 0x17C PUSH2 0x1E8 CALLDATASIZE PUSH1 0x4 PUSH2 0xD3B JUMP JUMPDEST PUSH2 0x5BC JUMP JUMPDEST PUSH2 0x10D PUSH2 0x1FB CALLDATASIZE PUSH1 0x4 PUSH2 0xB55 JUMP JUMPDEST PUSH2 0x733 JUMP JUMPDEST PUSH2 0x10D PUSH2 0x20E CALLDATASIZE PUSH1 0x4 PUSH2 0xCCD JUMP JUMPDEST PUSH2 0x869 JUMP JUMPDEST PUSH2 0x137 PUSH1 0x0 DUP2 JUMP JUMPDEST PUSH2 0x17C PUSH2 0x229 CALLDATASIZE PUSH1 0x4 PUSH2 0xC61 JUMP JUMPDEST PUSH2 0x892 JUMP JUMPDEST PUSH2 0x241 PUSH2 0x23C CALLDATASIZE PUSH1 0x4 PUSH2 0xB55 JUMP JUMPDEST PUSH2 0x96A JUMP JUMPDEST PUSH1 0x40 MLOAD PUSH1 0xFF SWAP1 SWAP2 AND DUP2 MSTORE PUSH1 0x20 ADD PUSH2 0x119 JUMP JUMPDEST PUSH2 0x17C PUSH2 0x261 CALLDATASIZE PUSH1 0x4 PUSH2 0xCCD JUMP JUMPDEST PUSH2 0x9A3 JUMP JUMPDEST PUSH1 0x0 PUSH1 0x1 PUSH1 0x1 PUSH1 0xE0 SHL SUB NOT DUP3 AND PUSH4 0x7965DB0B PUSH1 0xE0 SHL EQ DUP1 PUSH2 0x297 JUMPI POP PUSH4 0x1FFC9A7 PUSH1 0xE0 SHL PUSH1 0x1 PUSH1 0x1 PUSH1 0xE0 SHL SUB NOT DUP4 AND EQ JUMPDEST SWAP3 SWAP2 POP POP JUMP JUMPDEST PUSH1 0x1 PUSH1 0x20 DUP2 SWAP1 MSTORE PUSH1 0x0 SWAP2 DUP3 MSTORE PUSH1 0x40 SWAP1 SWAP2 KECCAK256 DUP1 SLOAD SWAP2 DUP2 ADD SLOAD PUSH1 0x2 DUP3 ADD SLOAD PUSH1 0x3 DUP4 ADD DUP1 SLOAD PUSH1 0xFF SWAP1 SWAP6 AND SWAP5 SWAP3 SWAP4 SWAP2 SWAP3 PUSH2 0x2D2 SWAP1 PUSH2 0xD80 JUMP JUMPDEST DUP1 PUSH1 0x1F ADD PUSH1 0x20 DUP1 SWAP2 DIV MUL PUSH1 0x20 ADD PUSH1 0x40 MLOAD SWAP1 DUP2 ADD PUSH1 0x40 MSTORE DUP1 SWAP3 SWAP2 SWAP1 DUP2 DUP2 MSTORE PUSH1 0x20 ADD DUP3 DUP1 SLOAD PUSH2 0x2FE SWAP1 PUSH2 0xD80 JUMP JUMPDEST DUP1 ISZERO PUSH2 0x34B JUMPI DUP1 PUSH1 0x1F LT PUSH2 0x320 JUMPI PUSH2 0x100 DUP1 DUP4 SLOAD DIV MUL DUP4 MSTORE SWAP2 PUSH1 0x20 ADD SWAP2 PUSH2 0x34B JUMP JUMPDEST DUP3 ADD SWAP2 SWAP1 PUSH1 0x0 MSTORE PUSH1 0x20 PUSH1 0x0 KECCAK256 SWAP1 JUMPDEST DUP2 SLOAD DUP2 MSTORE SWAP1 PUSH1 0x1 ADD SWAP1 PUSH1 0x20 ADD DUP1 DUP4 GT PUSH2 0x32E JUMPI DUP3 SWAP1 SUB PUSH1 0x1F AND DUP3 ADD SWAP2 JUMPDEST POP POP POP PUSH1 0x4 SWAP1 SWAP4 ADD SLOAD SWAP2 SWAP3 POP POP PUSH1 0xFF AND DUP6 JUMP JUMPDEST PUSH1 0x0 DUP1 MLOAD PUSH1 0x20 PUSH2 0xF4E DUP4 CODECOPY DUP2 MLOAD SWAP2 MSTORE PUSH2 0x376 DUP2 PUSH2 0x9C8 JUMP JUMPDEST PUSH1 0x1 PUSH1 0x1 PUSH1 0xA0 SHL SUB DUP5 AND PUSH1 0x0 DUP2 DUP2 MSTORE PUSH1 0x1 PUSH1 0x20 MSTORE PUSH1 0x40 SWAP1 DUP2 SWAP1 KECCAK256 DUP1 SLOAD PUSH1 0xFF NOT AND PUSH1 0x3 OR SWAP1 SSTORE MLOAD PUSH32 0x75F84E3D7C86754B3E5F8BC711D431D67AC0D2F50E92F0754C0552DA79B49BFD SWAP1 PUSH2 0x3CB SWAP1 DUP7 SWAP1 DUP7 SWAP1 PUSH2 0xDBA JUMP JUMPDEST PUSH1 0x40 MLOAD DUP1 SWAP2 SUB SWAP1 LOG2 POP POP POP POP JUMP JUMPDEST PUSH1 0x0 DUP3 DUP2 MSTORE PUSH1 0x20 DUP2 SWAP1 MSTORE PUSH1 0x40 SWAP1 KECCAK256 PUSH1 0x1 ADD SLOAD PUSH2 0x3F4 DUP2 PUSH2 0x9C8 JUMP JUMPDEST PUSH2 0x3FE DUP4 DUP4 PUSH2 0x9D5 JUMP JUMPDEST POP POP POP POP JUMP JUMPDEST PUSH1 0x1 PUSH1 0x1 PUSH1 0xA0 SHL SUB DUP2 AND CALLER EQ PUSH2 0x42D JUMPI PUSH1 0x40 MLOAD PUSH4 0x334BD919 PUSH1 0xE1 SHL DUP2 MSTORE PUSH1 0x4 ADD PUSH1 0x40 MLOAD DUP1 SWAP2 SUB SWAP1 REVERT JUMPDEST PUSH2 0x437 DUP3 DUP3 PUSH2 0xA67 JUMP JUMPDEST POP POP POP JUMP JUMPDEST PUSH1 0x2 CALLER PUSH1 0x0 SWAP1 DUP2 MSTORE PUSH1 0x1 PUSH1 0x20 MSTORE PUSH1 0x40 SWAP1 KECCAK256 SLOAD PUSH1 0xFF AND PUSH1 0x4 DUP2 GT ISZERO PUSH2 0x462 JUMPI PUSH2 0x462 PUSH2 0xB70 JUMP JUMPDEST SUB PUSH2 0x4A7 JUMPI PUSH1 0x40 MLOAD PUSH3 0x461BCD PUSH1 0xE5 SHL DUP2 MSTORE PUSH1 0x20 PUSH1 0x4 DUP3 ADD MSTORE PUSH1 0x10 PUSH1 0x24 DUP3 ADD MSTORE PUSH16 0x105B1C9958591E481D995C9A599A5959 PUSH1 0x82 SHL PUSH1 0x44 DUP3 ADD MSTORE PUSH1 0x64 ADD JUMPDEST PUSH1 0x40 MLOAD DUP1 SWAP2 SUB SWAP1 REVERT JUMPDEST PUSH1 0x40 DUP1 MLOAD PUSH1 0xA0 DUP2 ADD SWAP1 SWAP2 MSTORE DUP1 PUSH1 0x1 DUP2 MSTORE PUSH1 0x20 ADD PUSH1 0x0 DUP2 MSTORE PUSH1 0x20 ADD PUSH1 0x0 DUP2 MSTORE PUSH1 0x20 ADD DUP4 DUP4 DUP1 DUP1 PUSH1 0x1F ADD PUSH1 0x20 DUP1 SWAP2 DIV MUL PUSH1 0x20 ADD PUSH1 0x40 MLOAD SWAP1 DUP2 ADD PUSH1 0x40 MSTORE DUP1 SWAP4 SWAP3 SWAP2 SWAP1 DUP2 DUP2 MSTORE PUSH1 0x20 ADD DUP4 DUP4 DUP1 DUP3 DUP5 CALLDATACOPY PUSH1 0x0 SWAP3 ADD DUP3 SWAP1 MSTORE POP SWAP4 DUP6 MSTORE POP POP POP PUSH1 0x20 SWAP2 DUP3 ADD DUP2 SWAP1 MSTORE CALLER DUP2 MSTORE PUSH1 0x1 SWAP2 DUP3 SWAP1 MSTORE PUSH1 0x40 SWAP1 KECCAK256 DUP3 MLOAD DUP2 SLOAD SWAP2 SWAP3 SWAP1 SWAP2 DUP4 SWAP2 PUSH1 0xFF NOT SWAP1 SWAP2 AND SWAP1 DUP4 PUSH1 0x4 DUP2 GT ISZERO PUSH2 0x538 JUMPI PUSH2 0x538 PUSH2 0xB70 JUMP JUMPDEST MUL OR SWAP1 SSTORE POP PUSH1 0x20 DUP3 ADD MLOAD PUSH1 0x1 DUP3 ADD SSTORE PUSH1 0x40 DUP3 ADD MLOAD PUSH1 0x2 DUP3 ADD SSTORE PUSH1 0x60 DUP3 ADD MLOAD PUSH1 0x3 DUP3 ADD SWAP1 PUSH2 0x565 SWAP1 DUP3 PUSH2 0xE4D JUMP JUMPDEST POP PUSH1 0x80 SWAP2 SWAP1 SWAP2 ADD MLOAD PUSH1 0x4 SWAP1 SWAP2 ADD DUP1 SLOAD PUSH1 0xFF NOT AND PUSH1 0xFF SWAP1 SWAP3 AND SWAP2 SWAP1 SWAP2 OR SWAP1 SSTORE PUSH1 0x40 MLOAD TIMESTAMP DUP2 MSTORE CALLER SWAP1 PUSH32 0x2C3DEA8DB96F9D4588BB336E6B5C792BFAA97CA6516C306E7944756187942522 SWAP1 PUSH1 0x20 ADD PUSH1 0x40 MLOAD DUP1 SWAP2 SUB SWAP1 LOG2 POP POP JUMP JUMPDEST PUSH1 0x0 DUP1 MLOAD PUSH1 0x20 PUSH2 0xF4E DUP4 CODECOPY DUP2 MLOAD SWAP2 MSTORE PUSH2 0x5D4 DUP2 PUSH2 0x9C8 JUMP JUMPDEST PUSH1 0x1 DUP4 PUSH1 0xFF AND LT ISZERO DUP1 ISZERO PUSH2 0x5EC JUMPI POP PUSH1 0x3 DUP4 PUSH1 0xFF AND GT ISZERO JUMPDEST PUSH2 0x627 JUMPI PUSH1 0x40 MLOAD PUSH3 0x461BCD PUSH1 0xE5 SHL DUP2 MSTORE PUSH1 0x20 PUSH1 0x4 DUP3 ADD MSTORE PUSH1 0xC PUSH1 0x24 DUP3 ADD MSTORE PUSH12 0x24B73B30B634B2103A34B2B9 PUSH1 0xA1 SHL PUSH1 0x44 DUP3 ADD MSTORE PUSH1 0x64 ADD PUSH2 0x49E JUMP JUMPDEST PUSH1 0x1 PUSH1 0x1 PUSH1 0x1 PUSH1 0xA0 SHL SUB DUP6 AND PUSH1 0x0 SWAP1 DUP2 MSTORE PUSH1 0x1 PUSH1 0x20 MSTORE PUSH1 0x40 SWAP1 KECCAK256 SLOAD PUSH1 0xFF AND PUSH1 0x4 DUP2 GT ISZERO PUSH2 0x656 JUMPI PUSH2 0x656 PUSH2 0xB70 JUMP JUMPDEST EQ PUSH2 0x691 JUMPI PUSH1 0x40 MLOAD PUSH3 0x461BCD PUSH1 0xE5 SHL DUP2 MSTORE PUSH1 0x20 PUSH1 0x4 DUP3 ADD MSTORE PUSH1 0xB PUSH1 0x24 DUP3 ADD MSTORE PUSH11 0x4E6F742070656E64696E67 PUSH1 0xA8 SHL PUSH1 0x44 DUP3 ADD MSTORE PUSH1 0x64 ADD PUSH2 0x49E JUMP JUMPDEST PUSH1 0x0 PUSH2 0x6A0 DUP4 PUSH3 0x15180 PUSH2 0xF23 JUMP JUMPDEST PUSH2 0x6AA SWAP1 TIMESTAMP PUSH2 0xF3A JUMP JUMPDEST PUSH1 0x1 PUSH1 0x1 PUSH1 0xA0 SHL SUB DUP7 AND PUSH1 0x0 DUP2 DUP2 MSTORE PUSH1 0x1 PUSH1 0x20 DUP2 DUP2 MSTORE PUSH1 0x40 SWAP3 DUP4 SWAP1 KECCAK256 DUP1 SLOAD PUSH1 0xFF NOT SWAP1 DUP2 AND PUSH1 0x2 SWAP1 DUP2 OR DUP4 SSTORE TIMESTAMP SWAP5 DUP4 ADD SWAP5 SWAP1 SWAP5 SSTORE SWAP3 DUP2 ADD DUP7 SWAP1 SSTORE PUSH1 0x4 ADD DUP1 SLOAD PUSH1 0xFF DUP12 AND SWAP4 AND DUP4 OR SWAP1 SSTORE DUP3 MLOAD SWAP2 DUP3 MSTORE DUP2 ADD DUP5 SWAP1 MSTORE SWAP3 SWAP4 POP SWAP1 SWAP2 PUSH32 0xE31789EDF2EA12B3C29588A99E019CA85791C8D2F66B179E8FEF487566BA1CE4 SWAP2 ADD PUSH1 0x40 MLOAD DUP1 SWAP2 SUB SWAP1 LOG2 POP POP POP POP POP JUMP JUMPDEST PUSH1 0x1 PUSH1 0x1 PUSH1 0xA0 SHL SUB DUP2 AND PUSH1 0x0 SWAP1 DUP2 MSTORE PUSH1 0x1 PUSH1 0x20 MSTORE PUSH1 0x40 DUP1 DUP3 KECCAK256 DUP2 MLOAD PUSH1 0xA0 DUP2 ADD SWAP1 SWAP3 MSTORE DUP1 SLOAD DUP4 SWAP3 SWAP2 SWAP1 DUP3 SWAP1 PUSH1 0xFF AND PUSH1 0x4 DUP2 GT ISZERO PUSH2 0x771 JUMPI PUSH2 0x771 PUSH2 0xB70 JUMP JUMPDEST PUSH1 0x4 DUP2 GT ISZERO PUSH2 0x782 JUMPI PUSH2 0x782 PUSH2 0xB70 JUMP JUMPDEST DUP2 MSTORE PUSH1 0x20 ADD PUSH1 0x1 DUP3 ADD SLOAD DUP2 MSTORE PUSH1 0x20 ADD PUSH1 0x2 DUP3 ADD SLOAD DUP2 MSTORE PUSH1 0x20 ADD PUSH1 0x3 DUP3 ADD DUP1 SLOAD PUSH2 0x7AA SWAP1 PUSH2 0xD80 JUMP JUMPDEST DUP1 PUSH1 0x1F ADD PUSH1 0x20 DUP1 SWAP2 DIV MUL PUSH1 0x20 ADD PUSH1 0x40 MLOAD SWAP1 DUP2 ADD PUSH1 0x40 MSTORE DUP1 SWAP3 SWAP2 SWAP1 DUP2 DUP2 MSTORE PUSH1 0x20 ADD DUP3 DUP1 SLOAD PUSH2 0x7D6 SWAP1 PUSH2 0xD80 JUMP JUMPDEST DUP1 ISZERO PUSH2 0x823 JUMPI DUP1 PUSH1 0x1F LT PUSH2 0x7F8 JUMPI PUSH2 0x100 DUP1 DUP4 SLOAD DIV MUL DUP4 MSTORE SWAP2 PUSH1 0x20 ADD SWAP2 PUSH2 0x823 JUMP JUMPDEST DUP3 ADD SWAP2 SWAP1 PUSH1 0x0 MSTORE PUSH1 0x20 PUSH1 0x0 KECCAK256 SWAP1 JUMPDEST DUP2 SLOAD DUP2 MSTORE SWAP1 PUSH1 0x1 ADD SWAP1 PUSH1 0x20 ADD DUP1 DUP4 GT PUSH2 0x806 JUMPI DUP3 SWAP1 SUB PUSH1 0x1F AND DUP3 ADD SWAP2 JUMPDEST POP POP POP SWAP2 DUP4 MSTORE POP POP PUSH1 0x4 SWAP2 SWAP1 SWAP2 ADD SLOAD PUSH1 0xFF AND PUSH1 0x20 SWAP1 SWAP2 ADD MSTORE SWAP1 POP PUSH1 0x2 DUP2 MLOAD PUSH1 0x4 DUP2 GT ISZERO PUSH2 0x852 JUMPI PUSH2 0x852 PUSH2 0xB70 JUMP JUMPDEST EQ DUP1 ISZERO PUSH2 0x862 JUMPI POP DUP1 PUSH1 0x40 ADD MLOAD TIMESTAMP LT JUMPDEST SWAP4 SWAP3 POP POP POP JUMP JUMPDEST PUSH1 0x0 SWAP2 DUP3 MSTORE PUSH1 0x20 DUP3 DUP2 MSTORE PUSH1 0x40 DUP1 DUP5 KECCAK256 PUSH1 0x1 PUSH1 0x1 PUSH1 0xA0 SHL SUB SWAP4 SWAP1 SWAP4 AND DUP5 MSTORE SWAP2 SWAP1 MSTORE SWAP1 KECCAK256 SLOAD PUSH1 0xFF AND SWAP1 JUMP JUMPDEST PUSH1 0x0 DUP1 MLOAD PUSH1 0x20 PUSH2 0xF4E DUP4 CODECOPY DUP2 MLOAD SWAP2 MSTORE PUSH2 0x8AA DUP2 PUSH2 0x9C8 JUMP JUMPDEST PUSH1 0x2 PUSH1 0x1 PUSH1 0x1 PUSH1 0xA0 SHL SUB DUP6 AND PUSH1 0x0 SWAP1 DUP2 MSTORE PUSH1 0x1 PUSH1 0x20 MSTORE PUSH1 0x40 SWAP1 KECCAK256 SLOAD PUSH1 0xFF AND PUSH1 0x4 DUP2 GT ISZERO PUSH2 0x8D9 JUMPI PUSH2 0x8D9 PUSH2 0xB70 JUMP JUMPDEST EQ PUSH2 0x915 JUMPI PUSH1 0x40 MLOAD PUSH3 0x461BCD PUSH1 0xE5 SHL DUP2 MSTORE PUSH1 0x20 PUSH1 0x4 DUP3 ADD MSTORE PUSH1 0xC PUSH1 0x24 DUP3 ADD MSTORE PUSH12 0x139BDD081D995C9A599A5959 PUSH1 0xA2 SHL PUSH1 0x44 DUP3 ADD MSTORE PUSH1 0x64 ADD PUSH2 0x49E JUMP JUMPDEST PUSH1 0x1 PUSH1 0x1 PUSH1 0xA0 SHL SUB DUP5 AND PUSH1 0x0 DUP2 DUP2 MSTORE PUSH1 0x1 PUSH1 0x20 MSTORE PUSH1 0x40 SWAP1 DUP2 SWAP1 KECCAK256 DUP1 SLOAD PUSH1 0xFF NOT AND PUSH1 0x4 OR SWAP1 SSTORE MLOAD PUSH32 0x17CCDE318BFEF3D7DA189B133BA413CE6C242C82F805227EC85D20B64F029178 SWAP1 PUSH2 0x3CB SWAP1 DUP7 SWAP1 DUP7 SWAP1 PUSH2 0xDBA JUMP JUMPDEST PUSH1 0x0 PUSH2 0x975 DUP3 PUSH2 0x733 JUMP JUMPDEST PUSH2 0x981 JUMPI POP PUSH1 0x0 SWAP2 SWAP1 POP JUMP JUMPDEST POP PUSH1 0x1 PUSH1 0x1 PUSH1 0xA0 SHL SUB AND PUSH1 0x0 SWAP1 DUP2 MSTORE PUSH1 0x1 PUSH1 0x20 MSTORE PUSH1 0x40 SWAP1 KECCAK256 PUSH1 0x4 ADD SLOAD PUSH1 0xFF AND SWAP1 JUMP JUMPDEST PUSH1 0x0 DUP3 DUP2 MSTORE PUSH1 0x20 DUP2 SWAP1 MSTORE PUSH1 0x40 SWAP1 KECCAK256 PUSH1 0x1 ADD SLOAD PUSH2 0x9BE DUP2 PUSH2 0x9C8 JUMP JUMPDEST PUSH2 0x3FE DUP4 DUP4 PUSH2 0xA67 JUMP JUMPDEST PUSH2 0x9D2 DUP2 CALLER PUSH2 0xAD2 JUMP JUMPDEST POP JUMP JUMPDEST PUSH1 0x0 PUSH2 0x9E1 DUP4 DUP4 PUSH2 0x869 JUMP JUMPDEST PUSH2 0xA5F JUMPI PUSH1 0x0 DUP4 DUP2 MSTORE PUSH1 0x20 DUP2 DUP2 MSTORE PUSH1 0x40 DUP1 DUP4 KECCAK256 PUSH1 0x1 PUSH1 0x1 PUSH1 0xA0 SHL SUB DUP7 AND DUP5 MSTORE SWAP1 SWAP2 MSTORE SWAP1 KECCAK256 DUP1 SLOAD PUSH1 0xFF NOT AND PUSH1 0x1 OR SWAP1 SSTORE PUSH2 0xA17 CALLER SWAP1 JUMP JUMPDEST PUSH1 0x1 PUSH1 0x1 PUSH1 0xA0 SHL SUB AND DUP3 PUSH1 0x1 PUSH1 0x1 PUSH1 0xA0 SHL SUB AND DUP5 PUSH32 0x2F8788117E7EFF1D82E926EC794901D17C78024A50270940304540A733656F0D PUSH1 0x40 MLOAD PUSH1 0x40 MLOAD DUP1 SWAP2 SUB SWAP1 LOG4 POP PUSH1 0x1 PUSH2 0x297 JUMP JUMPDEST POP PUSH1 0x0 PUSH2 0x297 JUMP JUMPDEST PUSH1 0x0 PUSH2 0xA73 DUP4 DUP4 PUSH2 0x869 JUMP JUMPDEST ISZERO PUSH2 0xA5F JUMPI PUSH1 0x0 DUP4 DUP2 MSTORE PUSH1 0x20 DUP2 DUP2 MSTORE PUSH1 0x40 DUP1 DUP4 KECCAK256 PUSH1 0x1 PUSH1 0x1 PUSH1 0xA0 SHL SUB DUP7 AND DUP1 DUP6 MSTORE SWAP3 MSTORE DUP1 DUP4 KECCAK256 DUP1 SLOAD PUSH1 0xFF NOT AND SWAP1 SSTORE MLOAD CALLER SWAP3 DUP7 SWAP2 PUSH32 0xF6391F5C32D9C69D2A47EA670B442974B53935D1EDC7FD64EB21E047A839171B SWAP2 SWAP1 LOG4 POP PUSH1 0x1 PUSH2 0x297 JUMP JUMPDEST PUSH2 0xADC DUP3 DUP3 PUSH2 0x869 JUMP JUMPDEST PUSH2 0xB0B JUMPI PUSH1 0x40 MLOAD PUSH4 0xE2517D3F PUSH1 0xE0 SHL DUP2 MSTORE PUSH1 0x1 PUSH1 0x1 PUSH1 0xA0 SHL SUB DUP3 AND PUSH1 0x4 DUP3 ADD MSTORE PUSH1 0x24 DUP2 ADD DUP4 SWAP1 MSTORE PUSH1 0x44 ADD PUSH2 0x49E JUMP JUMPDEST POP POP JUMP JUMPDEST PUSH1 0x0 PUSH1 0x20 DUP3 DUP5 SUB SLT ISZERO PUSH2 0xB21 JUMPI PUSH1 0x0 DUP1 REVERT JUMPDEST DUP2 CALLDATALOAD PUSH1 0x1 PUSH1 0x1 PUSH1 0xE0 SHL SUB NOT DUP2 AND DUP2 EQ PUSH2 0x862 JUMPI PUSH1 0x0 DUP1 REVERT JUMPDEST DUP1 CALLDATALOAD PUSH1 0x1 PUSH1 0x1 PUSH1 0xA0 SHL SUB DUP2 AND DUP2 EQ PUSH2 0xB50 JUMPI PUSH1 0x0 DUP1 REVERT JUMPDEST SWAP2 SWAP1 POP JUMP JUMPDEST PUSH1 0x0 PUSH1 0x20 DUP3 DUP5 SUB SLT ISZERO PUSH2 0xB67 JUMPI PUSH1 0x0 DUP1 REVERT JUMPDEST PUSH2 0x862 DUP3 PUSH2 0xB39 JUMP JUMPDEST PUSH4 0x4E487B71 PUSH1 0xE0 SHL PUSH1 0x0 MSTORE PUSH1 0x21 PUSH1 0x4 MSTORE PUSH1 0x24 PUSH1 0x0 REVERT JUMPDEST PUSH1 0x0 PUSH1 0x5 DUP8 LT PUSH2 0xBA6 JUMPI PUSH4 0x4E487B71 PUSH1 0xE0 SHL PUSH1 0x0 MSTORE PUSH1 0x21 PUSH1 0x4 MSTORE PUSH1 0x24 PUSH1 0x0 REVERT JUMPDEST DUP7 DUP3 MSTORE PUSH1 0x20 DUP7 DUP2 DUP5 ADD MSTORE DUP6 PUSH1 0x40 DUP5 ADD MSTORE PUSH1 0xA0 PUSH1 0x60 DUP5 ADD MSTORE DUP5 MLOAD DUP1 PUSH1 0xA0 DUP6 ADD MSTORE PUSH1 0x0 JUMPDEST DUP2 DUP2 LT ISZERO PUSH2 0xBE4 JUMPI DUP7 DUP2 ADD DUP4 ADD MLOAD DUP6 DUP3 ADD PUSH1 0xC0 ADD MSTORE DUP3 ADD PUSH2 0xBC8 JUMP JUMPDEST POP PUSH1 0x0 PUSH1 0xC0 DUP3 DUP7 ADD ADD MSTORE PUSH1 0xC0 PUSH1 0x1F NOT PUSH1 0x1F DUP4 ADD AND DUP6 ADD ADD SWAP3 POP POP POP PUSH2 0xC0E PUSH1 0x80 DUP4 ADD DUP5 PUSH1 0xFF AND SWAP1 MSTORE JUMP JUMPDEST SWAP7 SWAP6 POP POP POP POP POP POP JUMP JUMPDEST PUSH1 0x0 DUP1 DUP4 PUSH1 0x1F DUP5 ADD SLT PUSH2 0xC2A JUMPI PUSH1 0x0 DUP1 REVERT JUMPDEST POP DUP2 CALLDATALOAD PUSH8 0xFFFFFFFFFFFFFFFF DUP2 GT ISZERO PUSH2 0xC42 JUMPI PUSH1 0x0 DUP1 REVERT JUMPDEST PUSH1 0x20 DUP4 ADD SWAP2 POP DUP4 PUSH1 0x20 DUP3 DUP6 ADD ADD GT ISZERO PUSH2 0xC5A JUMPI PUSH1 0x0 DUP1 REVERT JUMPDEST SWAP3 POP SWAP3 SWAP1 POP JUMP JUMPDEST PUSH1 0x0 DUP1 PUSH1 0x0 PUSH1 0x40 DUP5 DUP7 SUB SLT ISZERO PUSH2 0xC76 JUMPI PUSH1 0x0 DUP1 REVERT JUMPDEST PUSH2 0xC7F DUP5 PUSH2 0xB39 JUMP JUMPDEST SWAP3 POP PUSH1 0x20 DUP5 ADD CALLDATALOAD PUSH8 0xFFFFFFFFFFFFFFFF DUP2 GT ISZERO PUSH2 0xC9B JUMPI PUSH1 0x0 DUP1 REVERT JUMPDEST PUSH2 0xCA7 DUP7 DUP3 DUP8 ADD PUSH2 0xC18 JUMP JUMPDEST SWAP5 SWAP8 SWAP1 SWAP7 POP SWAP4 SWAP5 POP POP POP POP JUMP JUMPDEST PUSH1 0x0 PUSH1 0x20 DUP3 DUP5 SUB SLT ISZERO PUSH2 0xCC6 JUMPI PUSH1 0x0 DUP1 REVERT JUMPDEST POP CALLDATALOAD SWAP2 SWAP1 POP JUMP JUMPDEST PUSH1 0x0 DUP1 PUSH1 0x40 DUP4 DUP6 SUB SLT ISZERO PUSH2 0xCE0 JUMPI PUSH1 0x0 DUP1 REVERT JUMPDEST DUP3 CALLDATALOAD SWAP2 POP PUSH2 0xCF0 PUSH1 0x20 DUP5 ADD PUSH2 0xB39 JUMP JUMPDEST SWAP1 POP SWAP3 POP SWAP3 SWAP1 POP JUMP JUMPDEST PUSH1 0x0 DUP1 PUSH1 0x20 DUP4 DUP6 SUB SLT ISZERO PUSH2 0xD0C JUMPI PUSH1 0x0 DUP1 REVERT JUMPDEST DUP3 CALLDATALOAD PUSH8 0xFFFFFFFFFFFFFFFF DUP2 GT ISZERO PUSH2 0xD23 JUMPI PUSH1 0x0 DUP1 REVERT JUMPDEST PUSH2 0xD2F DUP6 DUP3 DUP7 ADD PUSH2 0xC18 JUMP JUMPDEST SWAP1 SWAP7 SWAP1 SWAP6 POP SWAP4 POP POP POP POP JUMP JUMPDEST PUSH1 0x0 DUP1 PUSH1 0x0 PUSH1 0x60 DUP5 DUP7 SUB SLT ISZERO PUSH2 0xD50 JUMPI PUSH1 0x0 DUP1 REVERT JUMPDEST PUSH2 0xD59 DUP5 PUSH2 0xB39 JUMP JUMPDEST SWAP3 POP PUSH1 0x20 DUP5 ADD CALLDATALOAD PUSH1 0xFF DUP2 AND DUP2 EQ PUSH2 0xD6F JUMPI PUSH1 0x0 DUP1 REVERT JUMPDEST SWAP3 SWAP6 SWAP3 SWAP5 POP POP POP PUSH1 0x40 SWAP2 SWAP1 SWAP2 ADD CALLDATALOAD SWAP1 JUMP JUMPDEST PUSH1 0x1 DUP2 DUP2 SHR SWAP1 DUP3 AND DUP1 PUSH2 0xD94 JUMPI PUSH1 0x7F DUP3 AND SWAP2 POP JUMPDEST PUSH1 0x20 DUP3 LT DUP2 SUB PUSH2 0xDB4 JUMPI PUSH4 0x4E487B71 PUSH1 0xE0 SHL PUSH1 0x0 MSTORE PUSH1 0x22 PUSH1 0x4 MSTORE PUSH1 0x24 PUSH1 0x0 REVERT JUMPDEST POP SWAP2 SWAP1 POP JUMP JUMPDEST PUSH1 0x20 DUP2 MSTORE DUP2 PUSH1 0x20 DUP3 ADD MSTORE DUP2 DUP4 PUSH1 0x40 DUP4 ADD CALLDATACOPY PUSH1 0x0 DUP2 DUP4 ADD PUSH1 0x40 SWAP1 DUP2 ADD SWAP2 SWAP1 SWAP2 MSTORE PUSH1 0x1F SWAP1 SWAP3 ADD PUSH1 0x1F NOT AND ADD ADD SWAP2 SWAP1 POP JUMP JUMPDEST PUSH4 0x4E487B71 PUSH1 0xE0 SHL PUSH1 0x0 MSTORE PUSH1 0x41 PUSH1 0x4 MSTORE PUSH1 0x24 PUSH1 0x0 REVERT JUMPDEST PUSH1 0x1F DUP3 GT ISZERO PUSH2 0x437 JUMPI PUSH1 0x0 DUP2 DUP2 MSTORE PUSH1 0x20 DUP2 KECCAK256 PUSH1 0x1F DUP6 ADD PUSH1 0x5 SHR DUP2 ADD PUSH1 0x20 DUP7 LT ISZERO PUSH2 0xE26 JUMPI POP DUP1 JUMPDEST PUSH1 0x1F DUP6 ADD PUSH1 0x5 SHR DUP3 ADD SWAP2 POP JUMPDEST DUP2 DUP2 LT ISZERO PUSH2 0xE45 JUMPI DUP3 DUP2 SSTORE PUSH1 0x1 ADD PUSH2 0xE32 JUMP JUMPDEST POP POP POP POP POP POP JUMP JUMPDEST DUP2 MLOAD PUSH8 0xFFFFFFFFFFFFFFFF DUP2 GT ISZERO PUSH2 0xE67 JUMPI PUSH2 0xE67 PUSH2 0xDE9 JUMP JUMPDEST PUSH2 0xE7B DUP2 PUSH2 0xE75 DUP5 SLOAD PUSH2 0xD80 JUMP JUMPDEST DUP5 PUSH2 0xDFF JUMP JUMPDEST PUSH1 0x20 DUP1 PUSH1 0x1F DUP4 GT PUSH1 0x1 DUP2 EQ PUSH2 0xEB0 JUMPI PUSH1 0x0 DUP5 ISZERO PUSH2 0xE98 JUMPI POP DUP6 DUP4 ADD MLOAD JUMPDEST PUSH1 0x0 NOT PUSH1 0x3 DUP7 SWAP1 SHL SHR NOT AND PUSH1 0x1 DUP6 SWAP1 SHL OR DUP6 SSTORE PUSH2 0xE45 JUMP JUMPDEST PUSH1 0x0 DUP6 DUP2 MSTORE PUSH1 0x20 DUP2 KECCAK256 PUSH1 0x1F NOT DUP7 AND SWAP2 JUMPDEST DUP3 DUP2 LT ISZERO PUSH2 0xEDF JUMPI DUP9 DUP7 ADD MLOAD DUP3 SSTORE SWAP5 DUP5 ADD SWAP5 PUSH1 0x1 SWAP1 SWAP2 ADD SWAP1 DUP5 ADD PUSH2 0xEC0 JUMP JUMPDEST POP DUP6 DUP3 LT ISZERO PUSH2 0xEFD JUMPI DUP8 DUP6 ADD MLOAD PUSH1 0x0 NOT PUSH1 0x3 DUP9 SWAP1 SHL PUSH1 0xF8 AND SHR NOT AND DUP2 SSTORE JUMPDEST POP POP POP POP POP PUSH1 0x1 SWAP1 DUP2 SHL ADD SWAP1 SSTORE POP JUMP JUMPDEST PUSH4 0x4E487B71 PUSH1 0xE0 SHL PUSH1 0x0 MSTORE PUSH1 0x11 PUSH1 0x4 MSTORE PUSH1 0x24 PUSH1 0x0 REVERT JUMPDEST DUP1 DUP3 MUL DUP2 ISZERO DUP3 DUP3 DIV DUP5 EQ OR PUSH2 0x297 JUMPI PUSH2 0x297 PUSH2 0xF0D JUMP JUMPDEST DUP1 DUP3 ADD DUP1 DUP3 GT ISZERO PUSH2 0x297 JUMPI PUSH2 0x297 PUSH2 0xF0D JUMP INVALID DUP2 EQ 0x27 LOG0 STATICCALL 0x49 ORIGIN 0xAE CREATE2 CALLVALUE 0xBB LOG1 PUSH12 0xC34E9B7B2D7D2A79C475FCA1 PUSH23 0x5F6CC1FAEBEAA2646970667358221220F9E458066CBB4E PUSH8 0xB525AB5C0D8CBC63 0xE3 0xE2 0xD2 0xE9 PUSH16 0x15CE69509476CB109CAFBF64736F6C63 NUMBER STOP ADDMOD EQ STOP CALLER "},"methodIdentifiers":{"DEFAULT_ADMIN_ROLE()":"a217fddf","KYC_ADMIN_ROLE()":"02d7fd92","getKYCTier(address)":"c828daa4","getRoleAdmin(bytes32)":"248a9ca3","grantRole(bytes32,address)":"2f2ff15d","hasRole(bytes32,address)":"91d14854","isKYCVerified(address)":"54b7636e","kycData(address)":"076f3565","rejectKYC(address,string)":"238b651c","renounceRole(bytes32,address)":"36568abe","revokeRole(bytes32,address)":"d547741f","submitKYC(string)":"453ae3cf","supportsInterface(bytes4)":"01ffc9a7","suspendKYC(address,string)":"b39c3c22","verifyKYC(address,uint8,uint256)":"4e74451f"}}}}}