{"contract/AllContracts.sol":{"LiquidityPool":{"abi":[{"inputs":[{"internalType":"address","name":"_mntToken","type":"address"},{"internalType":"address","name":"_usdcToken","type":"address"},{"internalType":"address","name":"_lpToken","type":"address"}],"stateMutability":"nonpayable","type":"constructor"},{"inputs":[],"name":"EnforcedPause","type":"error"},{"inputs":[],"name":"ExpectedPause","type":"error"},{"inputs":[{"internalType":"address","name":"owner","type":"address"}],"name":"OwnableInvalidOwner","type":"error"},{"inputs":[{"internalType":"address","name":"account","type":"address"}],"name":"OwnableUnauthorizedAccount","type":"error"},{"inputs":[],"name":"ReentrancyGuardReentrantCall","type":"error"},{"anonymous":false,"inputs":[{"indexed":true,"internalType":"address","name":"spender","type":"address"},{"indexed":false,"internalType":"bool","name":"authorized","type":"bool"}],"name":"AuthorizedSpenderUpdated","type":"event"},{"anonymous":false,"inputs":[{"indexed":true,"internalType":"address","name":"provider","type":"address"},{"indexed":false,"internalType":"uint256","name":"mntAmount","type":"uint256"},{"indexed":false,"internalType":"uint256","name":"usdcAmount","type":"uint256"},{"indexed":false,"internalType":"uint256","name":"lpTokens","type":"uint256"}],"name":"LiquidityAdded","type":"event"},{"anonymous":false,"inputs":[{"indexed":true,"internalType":"address","name":"provider","type":"address"},{"indexed":false,"internalType":"uint256","name":"mntAmount","type":"uint256"},{"indexed":false,"internalType":"uint256","name":"usdcAmount","type":"uint256"},{"indexed":false,"internalType":"uint256","name":"lpTokens","type":"uint256"}],"name":"LiquidityRemoved","type":"event"},{"anonymous":false,"inputs":[{"indexed":true,"internalType":"address","name":"previousOwner","type":"address"},{"indexed":true,"internalType":"address","name":"newOwner","type":"address"}],"name":"OwnershipTransferred","type":"event"},{"anonymous":false,"inputs":[{"indexed":false,"internalType":"address","name":"account","type":"address"}],"name":"Paused","type":"event"},{"anonymous":false,"inputs":[{"indexed":true,"internalType":"address","name":"provider","type":"address"},{"indexed":false,"internalType":"uint256","name":"amount","type":"uint256"}],"name":"RewardsClaimed","type":"event"},{"anonymous":false,"inputs":[{"indexed":true,"internalType":"address","name":"buyer","type":"address"},{"indexed":false,"internalType":"uint256","name":"amount","type":"uint256"},{"indexed":false,"internalType":"address","name":"token","type":"address"},{"indexed":false,"internalType":"uint256","name":"fee","type":"uint256"}],"name":"ShoppingPayment","type":"event"},{"anonymous":false,"inputs":[{"indexed":false,"internalType":"address","name":"account","type":"address"}],"name":"Unpaused","type":"event"},{"inputs":[],"name":"BASIS_POINTS","outputs":[{"internalType":"uint256","name":"","type":"uint256"}],"stateMutability":"view","type":"function"},{"inputs":[],"name":"FEE_RATE","outputs":[{"internalType":"uint256","name":"","type":"uint256"}],"stateMutability":"view","type":"function"},{"inputs":[],"name":"MINIMUM_LIQUIDITY","outputs":[{"internalType":"uint256","name":"","type":"uint256"}],"stateMutability":"view","type":"function"},{"inputs":[{"internalType":"uint256","name":"mntAmount","type":"uint256"},{"internalType":"uint256","name":"usdcAmount","type":"uint256"}],"name":"addLiquidity","outputs":[{"internalType":"uint256","name":"lpTokensToMint","type":"uint256"}],"stateMutability":"nonpayable","type":"function"},{"inputs":[{"internalType":"address","name":"","type":"address"}],"name":"authorizedSpenders","outputs":[{"internalType":"bool","name":"","type":"bool"}],"stateMutability":"view","type":"function"},{"inputs":[],"name":"claimRewards","outputs":[{"internalType":"uint256","name":"","type":"uint256"}],"stateMutability":"nonpayable","type":"function"},{"inputs":[],"name":"getPoolStats","outputs":[{"internalType":"uint256","name":"mntLiquidity","type":"uint256"},{"internalType":"uint256","name":"usdcLiquidity","type":"uint256"},{"internalType":"uint256","name":"lpSupply","type":"uint256"},{"internalType":"uint256","name":"feesCollected","type":"uint256"},{"internalType":"uint256","name":"shoppingVolume","type":"uint256"}],"stateMutability":"view","type":"function"},{"inputs":[{"internalType":"address","name":"user","type":"address"}],"name":"getUserLiquidity","outputs":[{"internalType":"uint256","name":"mntDeposited","type":"uint256"},{"internalType":"uint256","name":"usdcDeposited","type":"uint256"},{"internalType":"uint256","name":"lpTokens","type":"uint256"},{"internalType":"uint256","name":"rewardsEarned","type":"uint256"},{"internalType":"uint256","name":"depositTime","type":"uint256"}],"stateMutability":"view","type":"function"},{"inputs":[{"internalType":"address","name":"","type":"address"}],"name":"liquidityProviders","outputs":[{"internalType":"uint256","name":"mntDeposited","type":"uint256"},{"internalType":"uint256","name":"usdcDeposited","type":"uint256"},{"internalType":"uint256","name":"lpTokens","type":"uint256"},{"internalType":"uint256","name":"rewardsEarned","type":"uint256"},{"internalType":"uint256","name":"depositTime","type":"uint256"}],"stateMutability":"view","type":"function"},{"inputs":[],"name":"lpToken","outputs":[{"internalType":"contract IERC20","name":"","type":"address"}],"stateMutability":"view","type":"function"},{"inputs":[],"name":"mntToken","outputs":[{"internalType":"contract IERC20","name":"","type":"address"}],"stateMutability":"view","type":"function"},{"inputs":[],"name":"owner","outputs":[{"internalType":"address","name":"","type":"address"}],"stateMutability":"view","type":"function"},{"inputs":[],"name":"pause","outputs":[],"stateMutability":"nonpayable","type":"function"},{"inputs":[],"name":"paused","outputs":[{"internalType":"bool","name":"","type":"bool"}],"stateMutability":"view","type":"function"},{"inputs":[{"internalType":"address","name":"buyer","type":"address"},{"internalType":"uint256","name":"amount","type":"uint256"},{"internalType":"address","name":"paymentToken","type":"address"}],"name":"processShoppingPayment","outputs":[{"internalType":"bool","name":"","type":"bool"}],"stateMutability":"nonpayable","type":"function"},{"inputs":[{"internalType":"uint256","name":"lpTokenAmount","type":"uint256"}],"name":"removeLiquidity","outputs":[{"internalType":"uint256","name":"mntAmount","type":"uint256"},{"internalType":"uint256","name":"usdcAmount","type":"uint256"}],"stateMutability":"nonpayable","type":"function"},{"inputs":[],"name":"renounceOwnership","outputs":[],"stateMutability":"nonpayable","type":"function"},{"inputs":[{"internalType":"address","name":"spender","type":"address"},{"internalType":"bool","name":"authorized","type":"bool"}],"name":"setAuthorizedSpender","outputs":[],"stateMutability":"nonpayable","type":"function"},{"inputs":[{"internalType":"address","name":"_yieldShopContract","type":"address"}],"name":"setYieldShopContract","outputs":[],"stateMutability":"nonpayable","type":"function"},{"inputs":[],"name":"totalFeesCollected","outputs":[{"internalType":"uint256","name":"","type":"uint256"}],"stateMutability":"view","type":"function"},{"inputs":[],"name":"totalLPSupply","outputs":[{"internalType":"uint256","name":"","type":"uint256"}],"stateMutability":"view","type":"function"},{"inputs":[],"name":"totalMNTLiquidity","outputs":[{"internalType":"uint256","name":"","type":"uint256"}],"stateMutability":"view","type":"function"},{"inputs":[],"name":"totalShoppingVolume","outputs":[{"internalType":"uint256","name":"","type":"uint256"}],"stateMutability":"view","type":"function"},{"inputs":[],"name":"totalUSDCLiquidity","outputs":[{"internalType":"uint256","name":"","type":"uint256"}],"stateMutability":"view","type":"function"},{"inputs":[{"internalType":"address","name":"newOwner","type":"address"}],"name":"transferOwnership","outputs":[],"stateMutability":"nonpayable","type":"function"},{"inputs":[],"name":"unpause","outputs":[],"stateMutability":"nonpayable","type":"function"},{"inputs":[],"name":"usdcToken","outputs":[{"internalType":"contract IERC20","name":"","type":"address"}],"stateMutability":"view","type":"function"},{"inputs":[],"name":"yieldShopContract","outputs":[{"internalType":"address","name":"","type":"address"}],"stateMutability":"view","type":"function"}],"evm":{"bytecode":{"linkReferences":{},"object":"60e06040523480156200001157600080fd5b50604051620017e8380380620017e883398101604081905262000034916200016f565b33806200005c57604051631e4fbdf760e01b8152600060048201526024015b60405180910390fd5b620000678162000102565b50600180556001600160a01b038316158015906200008d57506001600160a01b03821615155b8015620000a257506001600160a01b03811615155b620000e45760405162461bcd60e51b8152602060048201526011602482015270496e76616c69642061646472657373657360781b604482015260640162000053565b6001600160a01b0392831660805290821660a0521660c052620001b9565b600080546001600160a01b038381166001600160a01b0319831681178455604051919092169283917f8be0079c531659141344cd1fd0a4f28419497f9722a3daafe3b4186f6b6457e09190a35050565b80516001600160a01b03811681146200016a57600080fd5b919050565b6000806000606084860312156200018557600080fd5b620001908462000152565b9250620001a06020850162000152565b9150620001b06040850162000152565b90509250925092565b60805160a05160c0516115c76200022160003960006102760152600081816101ff01528181610629015281816107e801528181610cea0152610ecc0152600081816102c1015281816107ad015281816109b001528181610c580152610e3401526115c76000f3fe608060405234801561001057600080fd5b50600436106101c45760003560e01c80638456cb59116100f9578063d2454e8d11610097578063e1f1c4a711610071578063e1f1c4a714610465578063e3f2d7b51461046e578063f2fde38b14610477578063fec204011461048a57600080fd5b8063d2454e8d14610399578063dbbdd935146103bc578063dbd942671461042857600080fd5b80639cd441da116100d35780639cd441da1461033c578063ba9a7a561461034f578063bbb8518814610358578063d1a867111461039057600080fd5b80638456cb59146102fb5780638da5cb5b146103035780639c8f9f231461031457600080fd5b80635c975abb11610166578063715018a611610140578063715018a6146102a157806378f959a9146102a95780637f0554ca146102bc5780637feb54c8146102e357600080fd5b80635c975abb1461025a5780635fcbd2851461027157806360c6d8ae1461029857600080fd5b80632d11c58a116101a25780632d11c58a14610239578063372500ab146102415780633f4ba83a1461024957806342702d461461025157600080fd5b8063042f1ba7146101c95780630cecac8e146101de57806311eac855146101fa575b600080fd5b6101dc6101d736600461141d565b61049d565b005b6101e760035481565b6040519081526020015b60405180910390f35b6102217f000000000000000000000000000000000000000000000000000000000000000081565b6040516001600160a01b0390911681526020016101f1565b6101e7601e81565b6101e7610504565b6101dc6106e4565b6101e760095481565b60025460ff165b60405190151581526020016101f1565b6102217f000000000000000000000000000000000000000000000000000000000000000081565b6101e760085481565b6101dc6106f6565b6102616102b7366004611454565b610708565b6102217f000000000000000000000000000000000000000000000000000000000000000081565b6002546102219061010090046001600160a01b031681565b6101dc610ab1565b6000546001600160a01b0316610221565b610327610322366004611490565b610ac1565b604080519283526020830191909152016101f1565b6101e761034a3660046114a9565b610db2565b6101e76103e881565b6003546004546005546008546009545b604080519586526020860194909452928401919091526060830152608082015260a0016101f1565b6101e760055481565b6102616103a73660046114cb565b60076020526000908152604090205460ff1681565b6103686103ca3660046114cb565b6001600160a01b0316600090815260066020908152604091829020825160a081018452815480825260018301549382018490526002830154948201859052600383015460608301819052600490930154608090920182905294929392565b6103686104363660046114cb565b600660205260009081526040902080546001820154600283015460038401546004909401549293919290919085565b6101e761271081565b6101e760045481565b6101dc6104853660046114cb565b611104565b6101dc6104983660046114cb565b611142565b6104a561120b565b6001600160a01b038216600081815260076020908152604091829020805460ff191685151590811790915591519182527fcf0513c74b4d77095356357b35b5e34ac3424c008299b2cef0e805ee3c523275910160405180910390a25050565b600061050e611238565b336000908152600660205260409020600281015461056b5760405162461bcd60e51b8152602060048201526015602482015274139bc81b1a5c5d5a591a5d1e481c1c9bdd9a591959605a1b60448201526064015b60405180910390fd5b6000600554612710836002015461058291906114fc565b61058c9190611513565b90506000612710826008546105a191906114fc565b6105ab9190611513565b9050600081116105f45760405162461bcd60e51b81526020600482015260146024820152734e6f207265776172647320617661696c61626c6560601b6044820152606401610562565b808360030160008282546106089190611535565b909155505060405163a9059cbb60e01b8152336004820152602481018290527f00000000000000000000000000000000000000000000000000000000000000006001600160a01b03169063a9059cbb906044016020604051808303816000875af115801561067a573d6000803e3d6000fd5b505050506040513d601f19601f8201168201806040525081019061069e9190611548565b5060405181815233907ffc30cddea38e2bf4d6ea7d3f9ed3b6ad7f176419f4963bd81318067a4aee73fe9060200160405180910390a2925050506106e160018055565b90565b6106ec61120b565b6106f4611262565b565b6106fe61120b565b6106f460006112b4565b6000610712611238565b61071a611304565b3360009081526007602052604090205460ff1661076a5760405162461bcd60e51b815260206004820152600e60248201526d139bdd08185d5d1a1bdc9a5e995960921b6044820152606401610562565b600083116107ab5760405162461bcd60e51b815260206004820152600e60248201526d125b9d985b1a5908185b5bdd5b9d60921b6044820152606401610562565b7f00000000000000000000000000000000000000000000000000000000000000006001600160a01b0316826001600160a01b0316148061081c57507f00000000000000000000000000000000000000000000000000000000000000006001600160a01b0316826001600160a01b0316145b61085c5760405162461bcd60e51b81526020600482015260116024820152702ab739bab83837b93a32b2103a37b5b2b760791b6044820152606401610562565b600061271061086c601e866114fc565b6108769190611513565b905060006108848286611565565b6040516370a0823160e01b8152306004820152909150849082906001600160a01b038316906370a0823190602401602060405180830381865afa1580156108cf573d6000803e3d6000fd5b505050506040513d601f19601f820116820180604052508101906108f39190611578565b101561093a5760405162461bcd60e51b8152602060048201526016602482015275496e73756666696369656e74206c697175696469747960501b6044820152606401610562565b60405163a9059cbb60e01b81526001600160a01b0388811660048301526024820184905282169063a9059cbb906044016020604051808303816000875af1158015610989573d6000803e3d6000fd5b505050506040513d601f19601f820116820180604052508101906109ad9190611548565b507f00000000000000000000000000000000000000000000000000000000000000006001600160a01b0316856001600160a01b031603610a045781600360008282546109f99190611565565b90915550610a1c9050565b8160046000828254610a169190611565565b90915550505b8260086000828254610a2e9190611535565b925050819055508560096000828254610a479190611535565b9091555050604080518781526001600160a01b038781166020830152918101859052908816907fd1d90576f90d21d12f5baaac44dafbc7bbd9eef8e68266feaf8a71991cb61a189060600160405180910390a260019350505050610aaa60018055565b9392505050565b610ab961120b565b6106f4611328565b600080610acc611238565b60008311610b0d5760405162461bcd60e51b815260206004820152600e60248201526d125b9d985b1a5908185b5bdd5b9d60921b6044820152606401610562565b3360009081526006602052604090206002810154841115610b695760405162461bcd60e51b8152602060048201526016602482015275496e73756666696369656e74204c5020746f6b656e7360501b6044820152606401610562565b600554600354610b7990866114fc565b610b839190611513565b925060055460045485610b9691906114fc565b610ba09190611513565b915082816000016000828254610bb69190611565565b9250508190555081816001016000828254610bd19190611565565b9250508190555083816002016000828254610bec9190611565565b925050819055508260036000828254610c059190611565565b925050819055508160046000828254610c1e9190611565565b925050819055508360056000828254610c379190611565565b909155505060405163a9059cbb60e01b8152336004820152602481018490527f00000000000000000000000000000000000000000000000000000000000000006001600160a01b03169063a9059cbb906044016020604051808303816000875af1158015610ca9573d6000803e3d6000fd5b505050506040513d601f19601f82011682018060405250810190610ccd9190611548565b5060405163a9059cbb60e01b8152336004820152602481018390527f00000000000000000000000000000000000000000000000000000000000000006001600160a01b03169063a9059cbb906044016020604051808303816000875af1158015610d3b573d6000803e3d6000fd5b505050506040513d601f19601f82011682018060405250810190610d5f9190611548565b50604080518481526020810184905290810185905233907f1dc8bb69df2b8e91fbdcbfcf93d951b3f0000f085a95fe3f7946d6161439245d9060600160405180910390a250610dad60018055565b915091565b6000610dbc611238565b610dc4611304565b600083118015610dd45750600082115b610e125760405162461bcd60e51b815260206004820152600f60248201526e496e76616c696420616d6f756e747360881b6044820152606401610562565b6040516323b872dd60e01b8152336004820152306024820152604481018490527f00000000000000000000000000000000000000000000000000000000000000006001600160a01b0316906323b872dd906064016020604051808303816000875af1158015610e85573d6000803e3d6000fd5b505050506040513d601f19601f82011682018060405250810190610ea99190611548565b506040516323b872dd60e01b8152336004820152306024820152604481018390527f00000000000000000000000000000000000000000000000000000000000000006001600160a01b0316906323b872dd906064016020604051808303816000875af1158015610f1d573d6000803e3d6000fd5b505050506040513d601f19601f82011682018060405250810190610f419190611548565b50600554600003610faf57610f5e610f5983856114fc565b611365565b90506103e88111610faa5760405162461bcd60e51b8152602060048201526016602482015275496e73756666696369656e74206c697175696469747960501b6044820152606401610562565b611001565b600060035460055485610fc291906114fc565b610fcc9190611513565b9050600060045460055485610fe191906114fc565b610feb9190611513565b9050808210610ffa5780610ffc565b815b925050505b336000908152600660205260408120805490918591839190611024908490611535565b925050819055508281600101600082825461103f9190611535565b925050819055508181600201600082825461105a9190611535565b90915550504260048201556003805485919060009061107a908490611535565b9250508190555082600460008282546110939190611535565b9250508190555081600560008282546110ac9190611535565b9091555050604080518581526020810185905290810183905233907f64b83944e79c3ce8d4c297411de637c3e102d064677aac0c163976ebdcd6f50e9060600160405180910390a2506110fe60018055565b92915050565b61110c61120b565b6001600160a01b03811661113657604051631e4fbdf760e01b815260006004820152602401610562565b61113f816112b4565b50565b61114a61120b565b6001600160a01b0381166111925760405162461bcd60e51b815260206004820152600f60248201526e496e76616c6964206164647265737360881b6044820152606401610562565b60028054610100600160a81b0319166101006001600160a01b03841690810291909117909155600081815260076020908152604091829020805460ff1916600190811790915591519182527fcf0513c74b4d77095356357b35b5e34ac3424c008299b2cef0e805ee3c523275910160405180910390a250565b6000546001600160a01b031633146106f45760405163118cdaa760e01b8152336004820152602401610562565b60026001540361125b57604051633ee5aeb560e01b815260040160405180910390fd5b6002600155565b61126a6113d5565b6002805460ff191690557f5db9ee0a495bf2e6ff9c91a7834c1ba4fdd244a5e8aa4e537bd38aeae4b073aa335b6040516001600160a01b03909116815260200160405180910390a1565b600080546001600160a01b038381166001600160a01b0319831681178455604051919092169283917f8be0079c531659141344cd1fd0a4f28419497f9722a3daafe3b4186f6b6457e09190a35050565b60025460ff16156106f45760405163d93c066560e01b815260040160405180910390fd5b611330611304565b6002805460ff191660011790557f62e78cea01bee320cd4e420270b5ea74000d11b0c9f74754ebdbfc544b05a2586112973390565b600060038211156113c6575080600061137f600283611513565b61138a906001611535565b90505b818110156113c0579050806002816113a58186611513565b6113af9190611535565b6113b99190611513565b905061138d565b50919050565b81156113d0575060015b919050565b60025460ff166106f457604051638dfc202b60e01b815260040160405180910390fd5b80356001600160a01b03811681146113d057600080fd5b801515811461113f57600080fd5b6000806040838503121561143057600080fd5b611439836113f8565b915060208301356114498161140f565b809150509250929050565b60008060006060848603121561146957600080fd5b611472846113f8565b925060208401359150611487604085016113f8565b90509250925092565b6000602082840312156114a257600080fd5b5035919050565b600080604083850312156114bc57600080fd5b50508035926020909101359150565b6000602082840312156114dd57600080fd5b610aaa826113f8565b634e487b7160e01b600052601160045260246000fd5b80820281158282048414176110fe576110fe6114e6565b60008261153057634e487b7160e01b600052601260045260246000fd5b500490565b808201808211156110fe576110fe6114e6565b60006020828403121561155a57600080fd5b8151610aaa8161140f565b818103818111156110fe576110fe6114e6565b60006020828403121561158a57600080fd5b505191905056fea264697066735822122056074cd2a2cfe2720d4c530e3132a441e261dc37835a29ad1ede1d67454c2a1764736f6c63430008140033","opcodes":"PUSH1 0xE0 PUSH1 0x40 MSTORE CALLVALUE DUP1 ISZERO PUSH3 0x11 JUMPI PUSH1 0x0 DUP1 REVERT JUMPDEST POP PUSH1 0x40 MLOAD PUSH3 0x17E8 CODESIZE SUB DUP1 PUSH3 0x17E8 DUP4 CODECOPY DUP2 ADD PUSH1 0x40 DUP2 SWAP1 MSTORE PUSH3 0x34 SWAP2 PUSH3 0x16F JUMP JUMPDEST CALLER DUP1 PUSH3 0x5C JUMPI PUSH1 0x40 MLOAD PUSH4 0x1E4FBDF7 PUSH1 0xE0 SHL DUP2 MSTORE PUSH1 0x0 PUSH1 0x4 DUP3 ADD MSTORE PUSH1 0x24 ADD JUMPDEST PUSH1 0x40 MLOAD DUP1 SWAP2 SUB SWAP1 REVERT JUMPDEST PUSH3 0x67 DUP2 PUSH3 0x102 JUMP JUMPDEST POP PUSH1 0x1 DUP1 SSTORE PUSH1 0x1 PUSH1 0x1 PUSH1 0xA0 SHL SUB DUP4 AND ISZERO DUP1 ISZERO SWAP1 PUSH3 0x8D JUMPI POP PUSH1 0x1 PUSH1 0x1 PUSH1 0xA0 SHL SUB DUP3 AND ISZERO ISZERO JUMPDEST DUP1 ISZERO PUSH3 0xA2 JUMPI POP PUSH1 0x1 PUSH1 0x1 PUSH1 0xA0 SHL SUB DUP2 AND ISZERO ISZERO JUMPDEST PUSH3 0xE4 JUMPI PUSH1 0x40 MLOAD PUSH3 0x461BCD PUSH1 0xE5 SHL DUP2 MSTORE PUSH1 0x20 PUSH1 0x4 DUP3 ADD MSTORE PUSH1 0x11 PUSH1 0x24 DUP3 ADD MSTORE PUSH17 0x496E76616C696420616464726573736573 PUSH1 0x78 SHL PUSH1 0x44 DUP3 ADD MSTORE PUSH1 0x64 ADD PUSH3 0x53 JUMP JUMPDEST PUSH1 0x1 PUSH1 0x1 PUSH1 0xA0 SHL SUB SWAP3 DUP4 AND PUSH1 0x80 MSTORE SWAP1 DUP3 AND PUSH1 0xA0 MSTORE AND PUSH1 0xC0 MSTORE PUSH3 0x1B9 JUMP JUMPDEST PUSH1 0x0 DUP1 SLOAD PUSH1 0x1 PUSH1 0x1 PUSH1 0xA0 SHL SUB DUP4 DUP2 AND PUSH1 0x1 PUSH1 0x1 PUSH1 0xA0 SHL SUB NOT DUP4 AND DUP2 OR DUP5 SSTORE PUSH1 0x40 MLOAD SWAP2 SWAP1 SWAP3 AND SWAP3 DUP4 SWAP2 PUSH32 0x8BE0079C531659141344CD1FD0A4F28419497F9722A3DAAFE3B4186F6B6457E0 SWAP2 SWAP1 LOG3 POP POP JUMP JUMPDEST DUP1 MLOAD PUSH1 0x1 PUSH1 0x1 PUSH1 0xA0 SHL SUB DUP2 AND DUP2 EQ PUSH3 0x16A JUMPI PUSH1 0x0 DUP1 REVERT JUMPDEST SWAP2 SWAP1 POP JUMP JUMPDEST PUSH1 0x0 DUP1 PUSH1 0x0 PUSH1 0x60 DUP5 DUP7 SUB SLT ISZERO PUSH3 0x185 JUMPI PUSH1 0x0 DUP1 REVERT JUMPDEST PUSH3 0x190 DUP5 PUSH3 0x152 JUMP JUMPDEST SWAP3 POP PUSH3 0x1A0 PUSH1 0x20 DUP6 ADD PUSH3 0x152 JUMP JUMPDEST SWAP2 POP PUSH3 0x1B0 PUSH1 0x40 DUP6 ADD PUSH3 0x152 JUMP JUMPDEST SWAP1 POP SWAP3 POP SWAP3 POP SWAP3 JUMP JUMPDEST PUSH1 0x80 MLOAD PUSH1 0xA0 MLOAD PUSH1 0xC0 MLOAD PUSH2 0x15C7 PUSH3 0x221 PUSH1 0x0 CODECOPY PUSH1 0x0 PUSH2 0x276 ADD MSTORE PUSH1 0x0 DUP2 DUP2 PUSH2 0x1FF ADD MSTORE DUP2 DUP2 PUSH2 0x629 ADD MSTORE DUP2 DUP2 PUSH2 0x7E8 ADD MSTORE DUP2 DUP2 PUSH2 0xCEA ADD MSTORE PUSH2 0xECC ADD MSTORE PUSH1 0x0 DUP2 DUP2 PUSH2 0x2C1 ADD MSTORE DUP2 DUP2 PUSH2 0x7AD ADD MSTORE DUP2 DUP2 PUSH2 0x9B0 ADD MSTORE DUP2 DUP2 PUSH2 0xC58 ADD MSTORE PUSH2 0xE34 ADD MSTORE PUSH2 0x15C7 PUSH1 0x0 RETURN INVALID PUSH1 0x80 PUSH1 0x40 MSTORE CALLVALUE DUP1 ISZERO PUSH2 0x10 JUMPI PUSH1 0x0 DUP1 REVERT JUMPDEST POP PUSH1 0x4 CALLDATASIZE LT PUSH2 0x1C4 JUMPI PUSH1 0x0 CALLDATALOAD PUSH1 0xE0 SHR DUP1 PUSH4 0x8456CB59 GT PUSH2 0xF9 JUMPI DUP1 PUSH4 0xD2454E8D GT PUSH2 0x97 JUMPI DUP1 PUSH4 0xE1F1C4A7 GT PUSH2 0x71 JUMPI DUP1 PUSH4 0xE1F1C4A7 EQ PUSH2 0x465 JUMPI DUP1 PUSH4 0xE3F2D7B5 EQ PUSH2 0x46E JUMPI DUP1 PUSH4 0xF2FDE38B EQ PUSH2 0x477 JUMPI DUP1 PUSH4 0xFEC20401 EQ PUSH2 0x48A JUMPI PUSH1 0x0 DUP1 REVERT JUMPDEST DUP1 PUSH4 0xD2454E8D EQ PUSH2 0x399 JUMPI DUP1 PUSH4 0xDBBDD935 EQ PUSH2 0x3BC JUMPI DUP1 PUSH4 0xDBD94267 EQ PUSH2 0x428 JUMPI PUSH1 0x0 DUP1 REVERT JUMPDEST DUP1 PUSH4 0x9CD441DA GT PUSH2 0xD3 JUMPI DUP1 PUSH4 0x9CD441DA EQ PUSH2 0x33C JUMPI DUP1 PUSH4 0xBA9A7A56 EQ PUSH2 0x34F JUMPI DUP1 PUSH4 0xBBB85188 EQ PUSH2 0x358 JUMPI DUP1 PUSH4 0xD1A86711 EQ PUSH2 0x390 JUMPI PUSH1 0x0 DUP1 REVERT JUMPDEST DUP1 PUSH4 0x8456CB59 EQ PUSH2 0x2FB JUMPI DUP1 PUSH4 0x8DA5CB5B EQ PUSH2 0x303 JUMPI DUP1 PUSH4 0x9C8F9F23 EQ PUSH2 0x314 JUMPI PUSH1 0x0 DUP1 REVERT JUMPDEST DUP1 PUSH4 0x5C975ABB GT PUSH2 0x166 JUMPI DUP1 PUSH4 0x715018A6 GT PUSH2 0x140 JUMPI DUP1 PUSH4 0x715018A6 EQ PUSH2 0x2A1 JUMPI DUP1 PUSH4 0x78F959A9 EQ PUSH2 0x2A9 JUMPI DUP1 PUSH4 0x7F0554CA EQ PUSH2 0x2BC JUMPI DUP1 PUSH4 0x7FEB54C8 EQ PUSH2 0x2E3 JUMPI PUSH1 0x0 DUP1 REVERT JUMPDEST DUP1 PUSH4 0x5C975ABB EQ PUSH2 0x25A JUMPI DUP1 PUSH4 0x5FCBD285 EQ PUSH2 0x271 JUMPI DUP1 PUSH4 0x60C6D8AE EQ PUSH2 0x298 JUMPI PUSH1 0x0 DUP1 REVERT JUMPDEST DUP1 PUSH4 0x2D11C58A GT PUSH2 0x1A2 JUMPI DUP1 PUSH4 0x2D11C58A EQ PUSH2 0x239 JUMPI DUP1 PUSH4 0x372500AB EQ PUSH2 0x241 JUMPI DUP1 PUSH4 0x3F4BA83A EQ PUSH2 0x249 JUMPI DUP1 PUSH4 0x42702D46 EQ PUSH2 0x251 JUMPI PUSH1 0x0 DUP1 REVERT JUMPDEST DUP1 PUSH4 0x42F1BA7 EQ PUSH2 0x1C9 JUMPI DUP1 PUSH4 0xCECAC8E EQ PUSH2 0x1DE JUMPI DUP1 PUSH4 0x11EAC855 EQ PUSH2 0x1FA JUMPI JUMPDEST PUSH1 0x0 DUP1 REVERT JUMPDEST PUSH2 0x1DC PUSH2 0x1D7 CALLDATASIZE PUSH1 0x4 PUSH2 0x141D JUMP JUMPDEST PUSH2 0x49D JUMP JUMPDEST STOP JUMPDEST PUSH2 0x1E7 PUSH1 0x3 SLOAD DUP2 JUMP JUMPDEST PUSH1 0x40 MLOAD SWAP1 DUP2 MSTORE PUSH1 0x20 ADD JUMPDEST PUSH1 0x40 MLOAD DUP1 SWAP2 SUB SWAP1 RETURN JUMPDEST PUSH2 0x221 PUSH32 0x0 DUP2 JUMP JUMPDEST PUSH1 0x40 MLOAD PUSH1 0x1 PUSH1 0x1 PUSH1 0xA0 SHL SUB SWAP1 SWAP2 AND DUP2 MSTORE PUSH1 0x20 ADD PUSH2 0x1F1 JUMP JUMPDEST PUSH2 0x1E7 PUSH1 0x1E DUP2 JUMP JUMPDEST PUSH2 0x1E7 PUSH2 0x504 JUMP JUMPDEST PUSH2 0x1DC PUSH2 0x6E4 JUMP JUMPDEST PUSH2 0x1E7 PUSH1 0x9 SLOAD DUP2 JUMP JUMPDEST PUSH1 0x2 SLOAD PUSH1 0xFF AND JUMPDEST PUSH1 0x40 MLOAD SWAP1 ISZERO ISZERO DUP2 MSTORE PUSH1 0x20 ADD PUSH2 0x1F1 JUMP JUMPDEST PUSH2 0x221 PUSH32 0x0 DUP2 JUMP JUMPDEST PUSH2 0x1E7 PUSH1 0x8 SLOAD DUP2 JUMP JUMPDEST PUSH2 0x1DC PUSH2 0x6F6 JUMP JUMPDEST PUSH2 0x261 PUSH2 0x2B7 CALLDATASIZE PUSH1 0x4 PUSH2 0x1454 JUMP JUMPDEST PUSH2 0x708 JUMP JUMPDEST PUSH2 0x221 PUSH32 0x0 DUP2 JUMP JUMPDEST PUSH1 0x2 SLOAD PUSH2 0x221 SWAP1 PUSH2 0x100 SWAP1 DIV PUSH1 0x1 PUSH1 0x1 PUSH1 0xA0 SHL SUB AND DUP2 JUMP JUMPDEST PUSH2 0x1DC PUSH2 0xAB1 JUMP JUMPDEST PUSH1 0x0 SLOAD PUSH1 0x1 PUSH1 0x1 PUSH1 0xA0 SHL SUB AND PUSH2 0x221 JUMP JUMPDEST PUSH2 0x327 PUSH2 0x322 CALLDATASIZE PUSH1 0x4 PUSH2 0x1490 JUMP JUMPDEST PUSH2 0xAC1 JUMP JUMPDEST PUSH1 0x40 DUP1 MLOAD SWAP3 DUP4 MSTORE PUSH1 0x20 DUP4 ADD SWAP2 SWAP1 SWAP2 MSTORE ADD PUSH2 0x1F1 JUMP JUMPDEST PUSH2 0x1E7 PUSH2 0x34A CALLDATASIZE PUSH1 0x4 PUSH2 0x14A9 JUMP JUMPDEST PUSH2 0xDB2 JUMP JUMPDEST PUSH2 0x1E7 PUSH2 0x3E8 DUP2 JUMP JUMPDEST PUSH1 0x3 SLOAD PUSH1 0x4 SLOAD PUSH1 0x5 SLOAD PUSH1 0x8 SLOAD PUSH1 0x9 SLOAD JUMPDEST PUSH1 0x40 DUP1 MLOAD SWAP6 DUP7 MSTORE PUSH1 0x20 DUP7 ADD SWAP5 SWAP1 SWAP5 MSTORE SWAP3 DUP5 ADD SWAP2 SWAP1 SWAP2 MSTORE PUSH1 0x60 DUP4 ADD MSTORE PUSH1 0x80 DUP3 ADD MSTORE PUSH1 0xA0 ADD PUSH2 0x1F1 JUMP JUMPDEST PUSH2 0x1E7 PUSH1 0x5 SLOAD DUP2 JUMP JUMPDEST PUSH2 0x261 PUSH2 0x3A7 CALLDATASIZE PUSH1 0x4 PUSH2 0x14CB JUMP JUMPDEST PUSH1 0x7 PUSH1 0x20 MSTORE PUSH1 0x0 SWAP1 DUP2 MSTORE PUSH1 0x40 SWAP1 KECCAK256 SLOAD PUSH1 0xFF AND DUP2 JUMP JUMPDEST PUSH2 0x368 PUSH2 0x3CA CALLDATASIZE PUSH1 0x4 PUSH2 0x14CB JUMP JUMPDEST PUSH1 0x1 PUSH1 0x1 PUSH1 0xA0 SHL SUB AND PUSH1 0x0 SWAP1 DUP2 MSTORE PUSH1 0x6 PUSH1 0x20 SWAP1 DUP2 MSTORE PUSH1 0x40 SWAP2 DUP3 SWAP1 KECCAK256 DUP3 MLOAD PUSH1 0xA0 DUP2 ADD DUP5 MSTORE DUP2 SLOAD DUP1 DUP3 MSTORE PUSH1 0x1 DUP4 ADD SLOAD SWAP4 DUP3 ADD DUP5 SWAP1 MSTORE PUSH1 0x2 DUP4 ADD SLOAD SWAP5 DUP3 ADD DUP6 SWAP1 MSTORE PUSH1 0x3 DUP4 ADD SLOAD PUSH1 0x60 DUP4 ADD DUP2 SWAP1 MSTORE PUSH1 0x4 SWAP1 SWAP4 ADD SLOAD PUSH1 0x80 SWAP1 SWAP3 ADD DUP3 SWAP1 MSTORE SWAP5 SWAP3 SWAP4 SWAP3 JUMP JUMPDEST PUSH2 0x368 PUSH2 0x436 CALLDATASIZE PUSH1 0x4 PUSH2 0x14CB JUMP JUMPDEST PUSH1 0x6 PUSH1 0x20 MSTORE PUSH1 0x0 SWAP1 DUP2 MSTORE PUSH1 0x40 SWAP1 KECCAK256 DUP1 SLOAD PUSH1 0x1 DUP3 ADD SLOAD PUSH1 0x2 DUP4 ADD SLOAD PUSH1 0x3 DUP5 ADD SLOAD PUSH1 0x4 SWAP1 SWAP5 ADD SLOAD SWAP3 SWAP4 SWAP2 SWAP3 SWAP1 SWAP2 SWAP1 DUP6 JUMP JUMPDEST PUSH2 0x1E7 PUSH2 0x2710 DUP2 JUMP JUMPDEST PUSH2 0x1E7 PUSH1 0x4 SLOAD DUP2 JUMP JUMPDEST PUSH2 0x1DC PUSH2 0x485 CALLDATASIZE PUSH1 0x4 PUSH2 0x14CB JUMP JUMPDEST PUSH2 0x1104 JUMP JUMPDEST PUSH2 0x1DC PUSH2 0x498 CALLDATASIZE PUSH1 0x4 PUSH2 0x14CB JUMP JUMPDEST PUSH2 0x1142 JUMP JUMPDEST PUSH2 0x4A5 PUSH2 0x120B JUMP JUMPDEST PUSH1 0x1 PUSH1 0x1 PUSH1 0xA0 SHL SUB DUP3 AND PUSH1 0x0 DUP2 DUP2 MSTORE PUSH1 0x7 PUSH1 0x20 SWAP1 DUP2 MSTORE PUSH1 0x40 SWAP2 DUP3 SWAP1 KECCAK256 DUP1 SLOAD PUSH1 0xFF NOT AND DUP6 ISZERO ISZERO SWAP1 DUP2 OR SWAP1 SWAP2 SSTORE SWAP2 MLOAD SWAP2 DUP3 MSTORE PUSH32 0xCF0513C74B4D77095356357B35B5E34AC3424C008299B2CEF0E805EE3C523275 SWAP2 ADD PUSH1 0x40 MLOAD DUP1 SWAP2 SUB SWAP1 LOG2 POP POP JUMP JUMPDEST PUSH1 0x0 PUSH2 0x50E PUSH2 0x1238 JUMP JUMPDEST CALLER PUSH1 0x0 SWAP1 DUP2 MSTORE PUSH1 0x6 PUSH1 0x20 MSTORE PUSH1 0x40 SWAP1 KECCAK256 PUSH1 0x2 DUP2 ADD SLOAD PUSH2 0x56B JUMPI PUSH1 0x40 MLOAD PUSH3 0x461BCD PUSH1 0xE5 SHL DUP2 MSTORE PUSH1 0x20 PUSH1 0x4 DUP3 ADD MSTORE PUSH1 0x15 PUSH1 0x24 DUP3 ADD MSTORE PUSH21 0x139BC81B1A5C5D5A591A5D1E481C1C9BDD9A591959 PUSH1 0x5A SHL PUSH1 0x44 DUP3 ADD MSTORE PUSH1 0x64 ADD JUMPDEST PUSH1 0x40 MLOAD DUP1 SWAP2 SUB SWAP1 REVERT JUMPDEST PUSH1 0x0 PUSH1 0x5 SLOAD PUSH2 0x2710 DUP4 PUSH1 0x2 ADD SLOAD PUSH2 0x582 SWAP2 SWAP1 PUSH2 0x14FC JUMP JUMPDEST PUSH2 0x58C SWAP2 SWAP1 PUSH2 0x1513 JUMP JUMPDEST SWAP1 POP PUSH1 0x0 PUSH2 0x2710 DUP3 PUSH1 0x8 SLOAD PUSH2 0x5A1 SWAP2 SWAP1 PUSH2 0x14FC JUMP JUMPDEST PUSH2 0x5AB SWAP2 SWAP1 PUSH2 0x1513 JUMP JUMPDEST SWAP1 POP PUSH1 0x0 DUP2 GT PUSH2 0x5F4 JUMPI PUSH1 0x40 MLOAD PUSH3 0x461BCD PUSH1 0xE5 SHL DUP2 MSTORE PUSH1 0x20 PUSH1 0x4 DUP3 ADD MSTORE PUSH1 0x14 PUSH1 0x24 DUP3 ADD MSTORE PUSH20 0x4E6F207265776172647320617661696C61626C65 PUSH1 0x60 SHL PUSH1 0x44 DUP3 ADD MSTORE PUSH1 0x64 ADD PUSH2 0x562 JUMP JUMPDEST DUP1 DUP4 PUSH1 0x3 ADD PUSH1 0x0 DUP3 DUP3 SLOAD PUSH2 0x608 SWAP2 SWAP1 PUSH2 0x1535 JUMP JUMPDEST SWAP1 SWAP2 SSTORE POP POP PUSH1 0x40 MLOAD PUSH4 0xA9059CBB PUSH1 0xE0 SHL DUP2 MSTORE CALLER PUSH1 0x4 DUP3 ADD MSTORE PUSH1 0x24 DUP2 ADD DUP3 SWAP1 MSTORE PUSH32 0x0 PUSH1 0x1 PUSH1 0x1 PUSH1 0xA0 SHL SUB AND SWAP1 PUSH4 0xA9059CBB SWAP1 PUSH1 0x44 ADD PUSH1 0x20 PUSH1 0x40 MLOAD DUP1 DUP4 SUB DUP2 PUSH1 0x0 DUP8 GAS CALL ISZERO DUP1 ISZERO PUSH2 0x67A JUMPI RETURNDATASIZE PUSH1 0x0 DUP1 RETURNDATACOPY RETURNDATASIZE PUSH1 0x0 REVERT JUMPDEST POP POP POP POP PUSH1 0x40 MLOAD RETURNDATASIZE PUSH1 0x1F NOT PUSH1 0x1F DUP3 ADD AND DUP3 ADD DUP1 PUSH1 0x40 MSTORE POP DUP2 ADD SWAP1 PUSH2 0x69E SWAP2 SWAP1 PUSH2 0x1548 JUMP JUMPDEST POP PUSH1 0x40 MLOAD DUP2 DUP2 MSTORE CALLER SWAP1 PUSH32 0xFC30CDDEA38E2BF4D6EA7D3F9ED3B6AD7F176419F4963BD81318067A4AEE73FE SWAP1 PUSH1 0x20 ADD PUSH1 0x40 MLOAD DUP1 SWAP2 SUB SWAP1 LOG2 SWAP3 POP POP POP PUSH2 0x6E1 PUSH1 0x1 DUP1 SSTORE JUMP JUMPDEST SWAP1 JUMP JUMPDEST PUSH2 0x6EC PUSH2 0x120B JUMP JUMPDEST PUSH2 0x6F4 PUSH2 0x1262 JUMP JUMPDEST JUMP JUMPDEST PUSH2 0x6FE PUSH2 0x120B JUMP JUMPDEST PUSH2 0x6F4 PUSH1 0x0 PUSH2 0x12B4 JUMP JUMPDEST PUSH1 0x0 PUSH2 0x712 PUSH2 0x1238 JUMP JUMPDEST PUSH2 0x71A PUSH2 0x1304 JUMP JUMPDEST CALLER PUSH1 0x0 SWAP1 DUP2 MSTORE PUSH1 0x7 PUSH1 0x20 MSTORE PUSH1 0x40 SWAP1 KECCAK256 SLOAD PUSH1 0xFF AND PUSH2 0x76A JUMPI PUSH1 0x40 MLOAD PUSH3 0x461BCD PUSH1 0xE5 SHL DUP2 MSTORE PUSH1 0x20 PUSH1 0x4 DUP3 ADD MSTORE PUSH1 0xE PUSH1 0x24 DUP3 ADD MSTORE PUSH14 0x139BDD08185D5D1A1BDC9A5E9959 PUSH1 0x92 SHL PUSH1 0x44 DUP3 ADD MSTORE PUSH1 0x64 ADD PUSH2 0x562 JUMP JUMPDEST PUSH1 0x0 DUP4 GT PUSH2 0x7AB JUMPI PUSH1 0x40 MLOAD PUSH3 0x461BCD PUSH1 0xE5 SHL DUP2 MSTORE PUSH1 0x20 PUSH1 0x4 DUP3 ADD MSTORE PUSH1 0xE PUSH1 0x24 DUP3 ADD MSTORE PUSH14 0x125B9D985B1A5908185B5BDD5B9D PUSH1 0x92 SHL PUSH1 0x44 DUP3 ADD MSTORE PUSH1 0x64 ADD PUSH2 0x562 JUMP JUMPDEST PUSH32 0x0 PUSH1 0x1 PUSH1 0x1 PUSH1 0xA0 SHL SUB AND DUP3 PUSH1 0x1 PUSH1 0x1 PUSH1 0xA0 SHL SUB AND EQ DUP1 PUSH2 0x81C JUMPI POP PUSH32 0x0 PUSH1 0x1 PUSH1 0x1 PUSH1 0xA0 SHL SUB AND DUP3 PUSH1 0x1 PUSH1 0x1 PUSH1 0xA0 SHL SUB AND EQ JUMPDEST PUSH2 0x85C JUMPI PUSH1 0x40 MLOAD PUSH3 0x461BCD PUSH1 0xE5 SHL DUP2 MSTORE PUSH1 0x20 PUSH1 0x4 DUP3 ADD MSTORE PUSH1 0x11 PUSH1 0x24 DUP3 ADD MSTORE PUSH17 0x2AB739BAB83837B93A32B2103A37B5B2B7 PUSH1 0x79 SHL PUSH1 0x44 DUP3 ADD MSTORE PUSH1 0x64 ADD PUSH2 0x562 JUMP JUMPDEST PUSH1 0x0 PUSH2 0x2710 PUSH2 0x86C PUSH1 0x1E DUP7 PUSH2 0x14FC JUMP JUMPDEST PUSH2 0x876 SWAP2 SWAP1 PUSH2 0x1513 JUMP JUMPDEST SWAP1 POP PUSH1 0x0 PUSH2 0x884 DUP3 DUP7 PUSH2 0x1565 JUMP JUMPDEST PUSH1 0x40 MLOAD PUSH4 0x70A08231 PUSH1 0xE0 SHL DUP2 MSTORE ADDRESS PUSH1 0x4 DUP3 ADD MSTORE SWAP1 SWAP2 POP DUP5 SWAP1 DUP3 SWAP1 PUSH1 0x1 PUSH1 0x1 PUSH1 0xA0 SHL SUB DUP4 AND SWAP1 PUSH4 0x70A08231 SWAP1 PUSH1 0x24 ADD PUSH1 0x20 PUSH1 0x40 MLOAD DUP1 DUP4 SUB DUP2 DUP7 GAS STATICCALL ISZERO DUP1 ISZERO PUSH2 0x8CF JUMPI RETURNDATASIZE PUSH1 0x0 DUP1 RETURNDATACOPY RETURNDATASIZE PUSH1 0x0 REVERT JUMPDEST POP POP POP POP PUSH1 0x40 MLOAD RETURNDATASIZE PUSH1 0x1F NOT PUSH1 0x1F DUP3 ADD AND DUP3 ADD DUP1 PUSH1 0x40 MSTORE POP DUP2 ADD SWAP1 PUSH2 0x8F3 SWAP2 SWAP1 PUSH2 0x1578 JUMP JUMPDEST LT ISZERO PUSH2 0x93A JUMPI PUSH1 0x40 MLOAD PUSH3 0x461BCD PUSH1 0xE5 SHL DUP2 MSTORE PUSH1 0x20 PUSH1 0x4 DUP3 ADD MSTORE PUSH1 0x16 PUSH1 0x24 DUP3 ADD MSTORE PUSH22 0x496E73756666696369656E74206C6971756964697479 PUSH1 0x50 SHL PUSH1 0x44 DUP3 ADD MSTORE PUSH1 0x64 ADD PUSH2 0x562 JUMP JUMPDEST PUSH1 0x40 MLOAD PUSH4 0xA9059CBB PUSH1 0xE0 SHL DUP2 MSTORE PUSH1 0x1 PUSH1 0x1 PUSH1 0xA0 SHL SUB DUP9 DUP2 AND PUSH1 0x4 DUP4 ADD MSTORE PUSH1 0x24 DUP3 ADD DUP5 SWAP1 MSTORE DUP3 AND SWAP1 PUSH4 0xA9059CBB SWAP1 PUSH1 0x44 ADD PUSH1 0x20 PUSH1 0x40 MLOAD DUP1 DUP4 SUB DUP2 PUSH1 0x0 DUP8 GAS CALL ISZERO DUP1 ISZERO PUSH2 0x989 JUMPI RETURNDATASIZE PUSH1 0x0 DUP1 RETURNDATACOPY RETURNDATASIZE PUSH1 0x0 REVERT JUMPDEST POP POP POP POP PUSH1 0x40 MLOAD RETURNDATASIZE PUSH1 0x1F NOT PUSH1 0x1F DUP3 ADD AND DUP3 ADD DUP1 PUSH1 0x40 MSTORE POP DUP2 ADD SWAP1 PUSH2 0x9AD SWAP2 SWAP1 PUSH2 0x1548 JUMP JUMPDEST POP PUSH32 0x0 PUSH1 0x1 PUSH1 0x1 PUSH1 0xA0 SHL SUB AND DUP6 PUSH1 0x1 PUSH1 0x1 PUSH1 0xA0 SHL SUB AND SUB PUSH2 0xA04 JUMPI DUP2 PUSH1 0x3 PUSH1 0x0 DUP3 DUP3 SLOAD PUSH2 0x9F9 SWAP2 SWAP1 PUSH2 0x1565 JUMP JUMPDEST SWAP1 SWAP2 SSTORE POP PUSH2 0xA1C SWAP1 POP JUMP JUMPDEST DUP2 PUSH1 0x4 PUSH1 0x0 DUP3 DUP3 SLOAD PUSH2 0xA16 SWAP2 SWAP1 PUSH2 0x1565 JUMP JUMPDEST SWAP1 SWAP2 SSTORE POP POP JUMPDEST DUP3 PUSH1 0x8 PUSH1 0x0 DUP3 DUP3 SLOAD PUSH2 0xA2E SWAP2 SWAP1 PUSH2 0x1535 JUMP JUMPDEST SWAP3 POP POP DUP2 SWAP1 SSTORE POP DUP6 PUSH1 0x9 PUSH1 0x0 DUP3 DUP3 SLOAD PUSH2 0xA47 SWAP2 SWAP1 PUSH2 0x1535 JUMP JUMPDEST SWAP1 SWAP2 SSTORE POP POP PUSH1 0x40 DUP1 MLOAD DUP8 DUP2 MSTORE PUSH1 0x1 PUSH1 0x1 PUSH1 0xA0 SHL SUB DUP8 DUP2 AND PUSH1 0x20 DUP4 ADD MSTORE SWAP2 DUP2 ADD DUP6 SWAP1 MSTORE SWAP1 DUP9 AND SWAP1 PUSH32 0xD1D90576F90D21D12F5BAAAC44DAFBC7BBD9EEF8E68266FEAF8A71991CB61A18 SWAP1 PUSH1 0x60 ADD PUSH1 0x40 MLOAD DUP1 SWAP2 SUB SWAP1 LOG2 PUSH1 0x1 SWAP4 POP POP POP POP PUSH2 0xAAA PUSH1 0x1 DUP1 SSTORE JUMP JUMPDEST SWAP4 SWAP3 POP POP POP JUMP JUMPDEST PUSH2 0xAB9 PUSH2 0x120B JUMP JUMPDEST PUSH2 0x6F4 PUSH2 0x1328 JUMP JUMPDEST PUSH1 0x0 DUP1 PUSH2 0xACC PUSH2 0x1238 JUMP JUMPDEST PUSH1 0x0 DUP4 GT PUSH2 0xB0D JUMPI PUSH1 0x40 MLOAD PUSH3 0x461BCD PUSH1 0xE5 SHL DUP2 MSTORE PUSH1 0x20 PUSH1 0x4 DUP3 ADD MSTORE PUSH1 0xE PUSH1 0x24 DUP3 ADD MSTORE PUSH14 0x125B9D985B1A5908185B5BDD5B9D PUSH1 0x92 SHL PUSH1 0x44 DUP3 ADD MSTORE PUSH1 0x64 ADD PUSH2 0x562 JUMP JUMPDEST CALLER PUSH1 0x0 SWAP1 DUP2 MSTORE PUSH1 0x6 PUSH1 0x20 MSTORE PUSH1 0x40 SWAP1 KECCAK256 PUSH1 0x2 DUP2 ADD SLOAD DUP5 GT ISZERO PUSH2 0xB69 JUMPI PUSH1 0x40 MLOAD PUSH3 0x461BCD PUSH1 0xE5 SHL DUP2 MSTORE PUSH1 0x20 PUSH1 0x4 DUP3 ADD MSTORE PUSH1 0x16 PUSH1 0x24 DUP3 ADD MSTORE PUSH22 0x496E73756666696369656E74204C5020746F6B656E73 PUSH1 0x50 SHL PUSH1 0x44 DUP3 ADD MSTORE PUSH1 0x64 ADD PUSH2 0x562 JUMP JUMPDEST PUSH1 0x5 SLOAD PUSH1 0x3 SLOAD PUSH2 0xB79 SWAP1 DUP7 PUSH2 0x14FC JUMP JUMPDEST PUSH2 0xB83 SWAP2 SWAP1 PUSH2 0x1513 JUMP JUMPDEST SWAP3 POP PUSH1 0x5 SLOAD PUSH1 0x4 SLOAD DUP6 PUSH2 0xB96 SWAP2 SWAP1 PUSH2 0x14FC JUMP JUMPDEST PUSH2 0xBA0 SWAP2 SWAP1 PUSH2 0x1513 JUMP JUMPDEST SWAP2 POP DUP3 DUP2 PUSH1 0x0 ADD PUSH1 0x0 DUP3 DUP3 SLOAD PUSH2 0xBB6 SWAP2 SWAP1 PUSH2 0x1565 JUMP JUMPDEST SWAP3 POP POP DUP2 SWAP1 SSTORE POP DUP2 DUP2 PUSH1 0x1 ADD PUSH1 0x0 DUP3 DUP3 SLOAD PUSH2 0xBD1 SWAP2 SWAP1 PUSH2 0x1565 JUMP JUMPDEST SWAP3 POP POP DUP2 SWAP1 SSTORE POP DUP4 DUP2 PUSH1 0x2 ADD PUSH1 0x0 DUP3 DUP3 SLOAD PUSH2 0xBEC SWAP2 SWAP1 PUSH2 0x1565 JUMP JUMPDEST SWAP3 POP POP DUP2 SWAP1 SSTORE POP DUP3 PUSH1 0x3 PUSH1 0x0 DUP3 DUP3 SLOAD PUSH2 0xC05 SWAP2 SWAP1 PUSH2 0x1565 JUMP JUMPDEST SWAP3 POP POP DUP2 SWAP1 SSTORE POP DUP2 PUSH1 0x4 PUSH1 0x0 DUP3 DUP3 SLOAD PUSH2 0xC1E SWAP2 SWAP1 PUSH2 0x1565 JUMP JUMPDEST SWAP3 POP POP DUP2 SWAP1 SSTORE POP DUP4 PUSH1 0x5 PUSH1 0x0 DUP3 DUP3 SLOAD PUSH2 0xC37 SWAP2 SWAP1 PUSH2 0x1565 JUMP JUMPDEST SWAP1 SWAP2 SSTORE POP POP PUSH1 0x40 MLOAD PUSH4 0xA9059CBB PUSH1 0xE0 SHL DUP2 MSTORE CALLER PUSH1 0x4 DUP3 ADD MSTORE PUSH1 0x24 DUP2 ADD DUP5 SWAP1 MSTORE PUSH32 0x0 PUSH1 0x1 PUSH1 0x1 PUSH1 0xA0 SHL SUB AND SWAP1 PUSH4 0xA9059CBB SWAP1 PUSH1 0x44 ADD PUSH1 0x20 PUSH1 0x40 MLOAD DUP1 DUP4 SUB DUP2 PUSH1 0x0 DUP8 GAS CALL ISZERO DUP1 ISZERO PUSH2 0xCA9 JUMPI RETURNDATASIZE PUSH1 0x0 DUP1 RETURNDATACOPY RETURNDATASIZE PUSH1 0x0 REVERT JUMPDEST POP POP POP POP PUSH1 0x40 MLOAD RETURNDATASIZE PUSH1 0x1F NOT PUSH1 0x1F DUP3 ADD AND DUP3 ADD DUP1 PUSH1 0x40 MSTORE POP DUP2 ADD SWAP1 PUSH2 0xCCD SWAP2 SWAP1 PUSH2 0x1548 JUMP JUMPDEST POP PUSH1 0x40 MLOAD PUSH4 0xA9059CBB PUSH1 0xE0 SHL DUP2 MSTORE CALLER PUSH1 0x4 DUP3 ADD MSTORE PUSH1 0x24 DUP2 ADD DUP4 SWAP1 MSTORE PUSH32 0x0 PUSH1 0x1 PUSH1 0x1 PUSH1 0xA0 SHL SUB AND SWAP1 PUSH4 0xA9059CBB SWAP1 PUSH1 0x44 ADD PUSH1 0x20 PUSH1 0x40 MLOAD DUP1 DUP4 SUB DUP2 PUSH1 0x0 DUP8 GAS CALL ISZERO DUP1 ISZERO PUSH2 0xD3B JUMPI RETURNDATASIZE PUSH1 0x0 DUP1 RETURNDATACOPY RETURNDATASIZE PUSH1 0x0 REVERT JUMPDEST POP POP POP POP PUSH1 0x40 MLOAD RETURNDATASIZE PUSH1 0x1F NOT PUSH1 0x1F DUP3 ADD AND DUP3 ADD DUP1 PUSH1 0x40 MSTORE POP DUP2 ADD SWAP1 PUSH2 0xD5F SWAP2 SWAP1 PUSH2 0x1548 JUMP JUMPDEST POP PUSH1 0x40 DUP1 MLOAD DUP5 DUP2 MSTORE PUSH1 0x20 DUP2 ADD DUP5 SWAP1 MSTORE SWAP1 DUP2 ADD DUP6 SWAP1 MSTORE CALLER SWAP1 PUSH32 0x1DC8BB69DF2B8E91FBDCBFCF93D951B3F0000F085A95FE3F7946D6161439245D SWAP1 PUSH1 0x60 ADD PUSH1 0x40 MLOAD DUP1 SWAP2 SUB SWAP1 LOG2 POP PUSH2 0xDAD PUSH1 0x1 DUP1 SSTORE JUMP JUMPDEST SWAP2 POP SWAP2 JUMP JUMPDEST PUSH1 0x0 PUSH2 0xDBC PUSH2 0x1238 JUMP JUMPDEST PUSH2 0xDC4 PUSH2 0x1304 JUMP JUMPDEST PUSH1 0x0 DUP4 GT DUP1 ISZERO PUSH2 0xDD4 JUMPI POP PUSH1 0x0 DUP3 GT JUMPDEST PUSH2 0xE12 JUMPI PUSH1 0x40 MLOAD PUSH3 0x461BCD PUSH1 0xE5 SHL DUP2 MSTORE PUSH1 0x20 PUSH1 0x4 DUP3 ADD MSTORE PUSH1 0xF PUSH1 0x24 DUP3 ADD MSTORE PUSH15 0x496E76616C696420616D6F756E7473 PUSH1 0x88 SHL PUSH1 0x44 DUP3 ADD MSTORE PUSH1 0x64 ADD PUSH2 0x562 JUMP JUMPDEST PUSH1 0x40 MLOAD PUSH4 0x23B872DD PUSH1 0xE0 SHL DUP2 MSTORE CALLER PUSH1 0x4 DUP3 ADD MSTORE ADDRESS PUSH1 0x24 DUP3 ADD MSTORE PUSH1 0x44 DUP2 ADD DUP5 SWAP1 MSTORE PUSH32 0x0 PUSH1 0x1 PUSH1 0x1 PUSH1 0xA0 SHL SUB AND SWAP1 PUSH4 0x23B872DD SWAP1 PUSH1 0x64 ADD PUSH1 0x20 PUSH1 0x40 MLOAD DUP1 DUP4 SUB DUP2 PUSH1 0x0 DUP8 GAS CALL ISZERO DUP1 ISZERO PUSH2 0xE85 JUMPI RETURNDATASIZE PUSH1 0x0 DUP1 RETURNDATACOPY RETURNDATASIZE PUSH1 0x0 REVERT JUMPDEST POP POP POP POP PUSH1 0x40 MLOAD RETURNDATASIZE PUSH1 0x1F NOT PUSH1 0x1F DUP3 ADD AND DUP3 ADD DUP1 PUSH1 0x40 MSTORE POP DUP2 ADD SWAP1 PUSH2 0xEA9 SWAP2 SWAP1 PUSH2 0x1548 JUMP JUMPDEST POP PUSH1 0x40 MLOAD PUSH4 0x23B872DD PUSH1 0xE0 SHL DUP2 MSTORE CALLER PUSH1 0x4 DUP3 ADD MSTORE ADDRESS PUSH1 0x24 DUP3 ADD MSTORE PUSH1 0x44 DUP2 ADD DUP4 SWAP1 MSTORE PUSH32 0x0 PUSH1 0x1 PUSH1 0x1 PUSH1 0xA0 SHL SUB AND SWAP1 PUSH4 0x23B872DD SWAP1 PUSH1 0x64 ADD PUSH1 0x20 PUSH1 0x40 MLOAD DUP1 DUP4 SUB DUP2 PUSH1 0x0 DUP8 GAS CALL ISZERO DUP1 ISZERO PUSH2 0xF1D JUMPI RETURNDATASIZE PUSH1 0x0 DUP1 RETURNDATACOPY RETURNDATASIZE PUSH1 0x0 REVERT JUMPDEST POP POP POP POP PUSH1 0x40 MLOAD RETURNDATASIZE PUSH1 0x1F NOT PUSH1 0x1F DUP3 ADD AND DUP3 ADD DUP1 PUSH1 0x40 MSTORE POP DUP2 ADD SWAP1 PUSH2 0xF41 SWAP2 SWAP1 PUSH2 0x1548 JUMP JUMPDEST POP PUSH1 0x5 SLOAD PUSH1 0x0 SUB PUSH2 0xFAF JUMPI PUSH2 0xF5E PUSH2 0xF59 DUP4 DUP6 PUSH2 0x14FC JUMP JUMPDEST PUSH2 0x1365 JUMP JUMPDEST SWAP1 POP PUSH2 0x3E8 DUP2 GT PUSH2 0xFAA JUMPI PUSH1 0x40 MLOAD PUSH3 0x461BCD PUSH1 0xE5 SHL DUP2 MSTORE PUSH1 0x20 PUSH1 0x4 DUP3 ADD MSTORE PUSH1 0x16 PUSH1 0x24 DUP3 ADD MSTORE PUSH22 0x496E73756666696369656E74206C6971756964697479 PUSH1 0x50 SHL PUSH1 0x44 DUP3 ADD MSTORE PUSH1 0x64 ADD PUSH2 0x562 JUMP JUMPDEST PUSH2 0x1001 JUMP JUMPDEST PUSH1 0x0 PUSH1 0x3 SLOAD PUSH1 0x5 SLOAD DUP6 PUSH2 0xFC2 SWAP2 SWAP1 PUSH2 0x14FC JUMP JUMPDEST PUSH2 0xFCC SWAP2 SWAP1 PUSH2 0x1513 JUMP JUMPDEST SWAP1 POP PUSH1 0x0 PUSH1 0x4 SLOAD PUSH1 0x5 SLOAD DUP6 PUSH2 0xFE1 SWAP2 SWAP1 PUSH2 0x14FC JUMP JUMPDEST PUSH2 0xFEB SWAP2 SWAP1 PUSH2 0x1513 JUMP JUMPDEST SWAP1 POP DUP1 DUP3 LT PUSH2 0xFFA JUMPI DUP1 PUSH2 0xFFC JUMP JUMPDEST DUP2 JUMPDEST SWAP3 POP POP POP JUMPDEST CALLER PUSH1 0x0 SWAP1 DUP2 MSTORE PUSH1 0x6 PUSH1 0x20 MSTORE PUSH1 0x40 DUP2 KECCAK256 DUP1 SLOAD SWAP1 SWAP2 DUP6 SWAP2 DUP4 SWAP2 SWAP1 PUSH2 0x1024 SWAP1 DUP5 SWAP1 PUSH2 0x1535 JUMP JUMPDEST SWAP3 POP POP DUP2 SWAP1 SSTORE POP DUP3 DUP2 PUSH1 0x1 ADD PUSH1 0x0 DUP3 DUP3 SLOAD PUSH2 0x103F SWAP2 SWAP1 PUSH2 0x1535 JUMP JUMPDEST SWAP3 POP POP DUP2 SWAP1 SSTORE POP DUP2 DUP2 PUSH1 0x2 ADD PUSH1 0x0 DUP3 DUP3 SLOAD PUSH2 0x105A SWAP2 SWAP1 PUSH2 0x1535 JUMP JUMPDEST SWAP1 SWAP2 SSTORE POP POP TIMESTAMP PUSH1 0x4 DUP3 ADD SSTORE PUSH1 0x3 DUP1 SLOAD DUP6 SWAP2 SWAP1 PUSH1 0x0 SWAP1 PUSH2 0x107A SWAP1 DUP5 SWAP1 PUSH2 0x1535 JUMP JUMPDEST SWAP3 POP POP DUP2 SWAP1 SSTORE POP DUP3 PUSH1 0x4 PUSH1 0x0 DUP3 DUP3 SLOAD PUSH2 0x1093 SWAP2 SWAP1 PUSH2 0x1535 JUMP JUMPDEST SWAP3 POP POP DUP2 SWAP1 SSTORE POP DUP2 PUSH1 0x5 PUSH1 0x0 DUP3 DUP3 SLOAD PUSH2 0x10AC SWAP2 SWAP1 PUSH2 0x1535 JUMP JUMPDEST SWAP1 SWAP2 SSTORE POP POP PUSH1 0x40 DUP1 MLOAD DUP6 DUP2 MSTORE PUSH1 0x20 DUP2 ADD DUP6 SWAP1 MSTORE SWAP1 DUP2 ADD DUP4 SWAP1 MSTORE CALLER SWAP1 PUSH32 0x64B83944E79C3CE8D4C297411DE637C3E102D064677AAC0C163976EBDCD6F50E SWAP1 PUSH1 0x60 ADD PUSH1 0x40 MLOAD DUP1 SWAP2 SUB SWAP1 LOG2 POP PUSH2 0x10FE PUSH1 0x1 DUP1 SSTORE JUMP JUMPDEST SWAP3 SWAP2 POP POP JUMP JUMPDEST PUSH2 0x110C PUSH2 0x120B JUMP JUMPDEST PUSH1 0x1 PUSH1 0x1 PUSH1 0xA0 SHL SUB DUP2 AND PUSH2 0x1136 JUMPI PUSH1 0x40 MLOAD PUSH4 0x1E4FBDF7 PUSH1 0xE0 SHL DUP2 MSTORE PUSH1 0x0 PUSH1 0x4 DUP3 ADD MSTORE PUSH1 0x24 ADD PUSH2 0x562 JUMP JUMPDEST PUSH2 0x113F DUP2 PUSH2 0x12B4 JUMP JUMPDEST POP JUMP JUMPDEST PUSH2 0x114A PUSH2 0x120B JUMP JUMPDEST PUSH1 0x1 PUSH1 0x1 PUSH1 0xA0 SHL SUB DUP2 AND PUSH2 0x1192 JUMPI PUSH1 0x40 MLOAD PUSH3 0x461BCD PUSH1 0xE5 SHL DUP2 MSTORE PUSH1 0x20 PUSH1 0x4 DUP3 ADD MSTORE PUSH1 0xF PUSH1 0x24 DUP3 ADD MSTORE PUSH15 0x496E76616C69642061646472657373 PUSH1 0x88 SHL PUSH1 0x44 DUP3 ADD MSTORE PUSH1 0x64 ADD PUSH2 0x562 JUMP JUMPDEST PUSH1 0x2 DUP1 SLOAD PUSH2 0x100 PUSH1 0x1 PUSH1 0xA8 SHL SUB NOT AND PUSH2 0x100 PUSH1 0x1 PUSH1 0x1 PUSH1 0xA0 SHL SUB DUP5 AND SWAP1 DUP2 MUL SWAP2 SWAP1 SWAP2 OR SWAP1 SWAP2 SSTORE PUSH1 0x0 DUP2 DUP2 MSTORE PUSH1 0x7 PUSH1 0x20 SWAP1 DUP2 MSTORE PUSH1 0x40 SWAP2 DUP3 SWAP1 KECCAK256 DUP1 SLOAD PUSH1 0xFF NOT AND PUSH1 0x1 SWAP1 DUP2 OR SWAP1 SWAP2 SSTORE SWAP2 MLOAD SWAP2 DUP3 MSTORE PUSH32 0xCF0513C74B4D77095356357B35B5E34AC3424C008299B2CEF0E805EE3C523275 SWAP2 ADD PUSH1 0x40 MLOAD DUP1 SWAP2 SUB SWAP1 LOG2 POP JUMP JUMPDEST PUSH1 0x0 SLOAD PUSH1 0x1 PUSH1 0x1 PUSH1 0xA0 SHL SUB AND CALLER EQ PUSH2 0x6F4 JUMPI PUSH1 0x40 MLOAD PUSH4 0x118CDAA7 PUSH1 0xE0 SHL DUP2 MSTORE CALLER PUSH1 0x4 DUP3 ADD MSTORE PUSH1 0x24 ADD PUSH2 0x562 JUMP JUMPDEST PUSH1 0x2 PUSH1 0x1 SLOAD SUB PUSH2 0x125B JUMPI PUSH1 0x40 MLOAD PUSH4 0x3EE5AEB5 PUSH1 0xE0 SHL DUP2 MSTORE PUSH1 0x4 ADD PUSH1 0x40 MLOAD DUP1 SWAP2 SUB SWAP1 REVERT JUMPDEST PUSH1 0x2 PUSH1 0x1 SSTORE JUMP JUMPDEST PUSH2 0x126A PUSH2 0x13D5 JUMP JUMPDEST PUSH1 0x2 DUP1 SLOAD PUSH1 0xFF NOT AND SWAP1 SSTORE PUSH32 0x5DB9EE0A495BF2E6FF9C91A7834C1BA4FDD244A5E8AA4E537BD38AEAE4B073AA CALLER JUMPDEST PUSH1 0x40 MLOAD PUSH1 0x1 PUSH1 0x1 PUSH1 0xA0 SHL SUB SWAP1 SWAP2 AND DUP2 MSTORE PUSH1 0x20 ADD PUSH1 0x40 MLOAD DUP1 SWAP2 SUB SWAP1 LOG1 JUMP JUMPDEST PUSH1 0x0 DUP1 SLOAD PUSH1 0x1 PUSH1 0x1 PUSH1 0xA0 SHL SUB DUP4 DUP2 AND PUSH1 0x1 PUSH1 0x1 PUSH1 0xA0 SHL SUB NOT DUP4 AND DUP2 OR DUP5 SSTORE PUSH1 0x40 MLOAD SWAP2 SWAP1 SWAP3 AND SWAP3 DUP4 SWAP2 PUSH32 0x8BE0079C531659141344CD1FD0A4F28419497F9722A3DAAFE3B4186F6B6457E0 SWAP2 SWAP1 LOG3 POP POP JUMP JUMPDEST PUSH1 0x2 SLOAD PUSH1 0xFF AND ISZERO PUSH2 0x6F4 JUMPI PUSH1 0x40 MLOAD PUSH4 0xD93C0665 PUSH1 0xE0 SHL DUP2 MSTORE PUSH1 0x4 ADD PUSH1 0x40 MLOAD DUP1 SWAP2 SUB SWAP1 REVERT JUMPDEST PUSH2 0x1330 PUSH2 0x1304 JUMP JUMPDEST PUSH1 0x2 DUP1 SLOAD PUSH1 0xFF NOT AND PUSH1 0x1 OR SWAP1 SSTORE PUSH32 0x62E78CEA01BEE320CD4E420270B5EA74000D11B0C9F74754EBDBFC544B05A258 PUSH2 0x1297 CALLER SWAP1 JUMP JUMPDEST PUSH1 0x0 PUSH1 0x3 DUP3 GT ISZERO PUSH2 0x13C6 JUMPI POP DUP1 PUSH1 0x0 PUSH2 0x137F PUSH1 0x2 DUP4 PUSH2 0x1513 JUMP JUMPDEST PUSH2 0x138A SWAP1 PUSH1 0x1 PUSH2 0x1535 JUMP JUMPDEST SWAP1 POP JUMPDEST DUP2 DUP2 LT ISZERO PUSH2 0x13C0 JUMPI SWAP1 POP DUP1 PUSH1 0x2 DUP2 PUSH2 0x13A5 DUP2 DUP7 PUSH2 0x1513 JUMP JUMPDEST PUSH2 0x13AF SWAP2 SWAP1 PUSH2 0x1535 JUMP JUMPDEST PUSH2 0x13B9 SWAP2 SWAP1 PUSH2 0x1513 JUMP JUMPDEST SWAP1 POP PUSH2 0x138D JUMP JUMPDEST POP SWAP2 SWAP1 POP JUMP JUMPDEST DUP2 ISZERO PUSH2 0x13D0 JUMPI POP PUSH1 0x1 JUMPDEST SWAP2 SWAP1 POP JUMP JUMPDEST PUSH1 0x2 SLOAD PUSH1 0xFF AND PUSH2 0x6F4 JUMPI PUSH1 0x40 MLOAD PUSH4 0x8DFC202B PUSH1 0xE0 SHL DUP2 MSTORE PUSH1 0x4 ADD PUSH1 0x40 MLOAD DUP1 SWAP2 SUB SWAP1 REVERT JUMPDEST DUP1 CALLDATALOAD PUSH1 0x1 PUSH1 0x1 PUSH1 0xA0 SHL SUB DUP2 AND DUP2 EQ PUSH2 0x13D0 JUMPI PUSH1 0x0 DUP1 REVERT JUMPDEST DUP1 ISZERO ISZERO DUP2 EQ PUSH2 0x113F JUMPI PUSH1 0x0 DUP1 REVERT JUMPDEST PUSH1 0x0 DUP1 PUSH1 0x40 DUP4 DUP6 SUB SLT ISZERO PUSH2 0x1430 JUMPI PUSH1 0x0 DUP1 REVERT JUMPDEST PUSH2 0x1439 DUP4 PUSH2 0x13F8 JUMP JUMPDEST SWAP2 POP PUSH1 0x20 DUP4 ADD CALLDATALOAD PUSH2 0x1449 DUP2 PUSH2 0x140F JUMP JUMPDEST DUP1 SWAP2 POP POP SWAP3 POP SWAP3 SWAP1 POP JUMP JUMPDEST PUSH1 0x0 DUP1 PUSH1 0x0 PUSH1 0x60 DUP5 DUP7 SUB SLT ISZERO PUSH2 0x1469 JUMPI PUSH1 0x0 DUP1 REVERT JUMPDEST PUSH2 0x1472 DUP5 PUSH2 0x13F8 JUMP JUMPDEST SWAP3 POP PUSH1 0x20 DUP5 ADD CALLDATALOAD SWAP2 POP PUSH2 0x1487 PUSH1 0x40 DUP6 ADD PUSH2 0x13F8 JUMP JUMPDEST SWAP1 POP SWAP3 POP SWAP3 POP SWAP3 JUMP JUMPDEST PUSH1 0x0 PUSH1 0x20 DUP3 DUP5 SUB SLT ISZERO PUSH2 0x14A2 JUMPI PUSH1 0x0 DUP1 REVERT JUMPDEST POP CALLDATALOAD SWAP2 SWAP1 POP JUMP JUMPDEST PUSH1 0x0 DUP1 PUSH1 0x40 DUP4 DUP6 SUB SLT ISZERO PUSH2 0x14BC JUMPI PUSH1 0x0 DUP1 REVERT JUMPDEST POP POP DUP1 CALLDATALOAD SWAP3 PUSH1 0x20 SWAP1 SWAP2 ADD CALLDATALOAD SWAP2 POP JUMP JUMPDEST PUSH1 0x0 PUSH1 0x20 DUP3 DUP5 SUB SLT ISZERO PUSH2 0x14DD JUMPI PUSH1 0x0 DUP1 REVERT JUMPDEST PUSH2 0xAAA DUP3 PUSH2 0x13F8 JUMP JUMPDEST PUSH4 0x4E487B71 PUSH1 0xE0 SHL PUSH1 0x0 MSTORE PUSH1 0x11 PUSH1 0x4 MSTORE PUSH1 0x24 PUSH1 0x0 REVERT JUMPDEST DUP1 DUP3 MUL DUP2 ISZERO DUP3 DUP3 DIV DUP5 EQ OR PUSH2 0x10FE JUMPI PUSH2 0x10FE PUSH2 0x14E6 JUMP JUMPDEST PUSH1 0x0 DUP3 PUSH2 0x1530 JUMPI PUSH4 0x4E487B71 PUSH1 0xE0 SHL PUSH1 0x0 MSTORE PUSH1 0x12 PUSH1 0x4 MSTORE PUSH1 0x24 PUSH1 0x0 REVERT JUMPDEST POP DIV SWAP1 JUMP JUMPDEST DUP1 DUP3 ADD DUP1 DUP3 GT ISZERO PUSH2 0x10FE JUMPI PUSH2 0x10FE PUSH2 0x14E6 JUMP JUMPDEST PUSH1 0x0 PUSH1 0x20 DUP3 DUP5 SUB SLT ISZERO PUSH2 0x155A JUMPI PUSH1 0x0 DUP1 REVERT JUMPDEST DUP2 MLOAD PUSH2 0xAAA DUP2 PUSH2 0x140F JUMP JUMPDEST DUP2 DUP2 SUB DUP2 DUP2 GT ISZERO PUSH2 0x10FE JUMPI PUSH2 0x10FE PUSH2 0x14E6 JUMP JUMPDEST PUSH1 0x0 PUSH1 0x20 DUP3 DUP5 SUB SLT ISZERO PUSH2 0x158A JUMPI PUSH1 0x0 DUP1 REVERT JUMPDEST POP MLOAD SWAP2 SWAP1 POP JUMP INVALID LOG2 PUSH5 0x6970667358 0x22 SLT KECCAK256 JUMP SMOD 0x4C 0xD2 LOG2 0xCF 0xE2 PUSH19 0xD4C530E3132A441E261DC37835A29AD1EDE1D PUSH8 0x454C2A1764736F6C PUSH4 0x43000814 STOP CALLER "},"methodIdentifiers":{"BASIS_POINTS()":"e1f1c4a7","FEE_RATE()":"2d11c58a","MINIMUM_LIQUIDITY()":"ba9a7a56","addLiquidity(uint256,uint256)":"9cd441da","authorizedSpenders(address)":"d2454e8d","claimRewards()":"372500ab","getPoolStats()":"bbb85188","getUserLiquidity(address)":"dbbdd935","liquidityProviders(address)":"dbd94267","lpToken()":"5fcbd285","mntToken()":"7f0554ca","owner()":"8da5cb5b","pause()":"8456cb59","paused()":"5c975abb","processShoppingPayment(address,uint256,address)":"78f959a9","removeLiquidity(uint256)":"9c8f9f23","renounceOwnership()":"715018a6","setAuthorizedSpender(address,bool)":"042f1ba7","setYieldShopContract(address)":"fec20401","totalFeesCollected()":"60c6d8ae","totalLPSupply()":"d1a86711","totalMNTLiquidity()":"0cecac8e","totalShoppingVolume()":"42702d46","totalUSDCLiquidity()":"e3f2d7b5","transferOwnership(address)":"f2fde38b","unpause()":"3f4ba83a","usdcToken()":"11eac855","yieldShopContract()":"7feb54c8"}}}}}