{
  "_format": "hh-sol-artifact-1",
  "contractName": "FlashLoanProvider",
  "sourceName": "contract/AllContracts.sol",
  "abi": [
    {
      "inputs": [
        {
          "internalType": "address",
          "name": "_mntToken",
          "type": "address"
        },
        {
          "internalType": "address",
          "name": "_usdcToken",
          "type": "address"
        }
      ],
      "stateMutability": "nonpayable",
      "type": "constructor"
    },
    {
      "inputs": [],
      "name": "EnforcedPause",
      "type": "error"
    },
    {
      "inputs": [],
      "name": "ExpectedPause",
      "type": "error"
    },
    {
      "inputs": [
        {
          "internalType": "address",
          "name": "owner",
          "type": "address"
        }
      ],
      "name": "OwnableInvalidOwner",
      "type": "error"
    },
    {
      "inputs": [
        {
          "internalType": "address",
          "name": "account",
          "type": "address"
        }
      ],
      "name": "OwnableUnauthorizedAccount",
      "type": "error"
    },
    {
      "inputs": [],
      "name": "ReentrancyGuardReentrantCall",
      "type": "error"
    },
    {
      "anonymous": false,
      "inputs": [
        {
          "indexed": true,
          "internalType": "address",
          "name": "receiver",
          "type": "address"
        },
        {
          "indexed": true,
          "internalType": "address",
          "name": "token",
          "type": "address"
        },
        {
          "indexed": false,
          "internalType": "uint256",
          "name": "amount",
          "type": "uint256"
        },
        {
          "indexed": false,
          "internalType": "uint256",
          "name": "fee",
          "type": "uint256"
        },
        {
          "indexed": false,
          "internalType": "uint256",
          "name": "timestamp",
          "type": "uint256"
        }
      ],
      "name": "FlashLoan",
      "type": "event"
    },
    {
      "anonymous": false,
      "inputs": [
        {
          "indexed": true,
          "internalType": "address",
          "name": "previousOwner",
          "type": "address"
        },
        {
          "indexed": true,
          "internalType": "address",
          "name": "newOwner",
          "type": "address"
        }
      ],
      "name": "OwnershipTransferred",
      "type": "event"
    },
    {
      "anonymous": false,
      "inputs": [
        {
          "indexed": false,
          "internalType": "address",
          "name": "account",
          "type": "address"
        }
      ],
      "name": "Paused",
      "type": "event"
    },
    {
      "anonymous": false,
      "inputs": [
        {
          "indexed": false,
          "internalType": "address",
          "name": "account",
          "type": "address"
        }
      ],
      "name": "Unpaused",
      "type": "event"
    },
    {
      "inputs": [],
      "name": "FLASH_LOAN_FEE",
      "outputs": [
        {
          "internalType": "uint256",
          "name": "",
          "type": "uint256"
        }
      ],
      "stateMutability": "view",
      "type": "function"
    },
    {
      "inputs": [
        {
          "internalType": "uint256",
          "name": "amount",
          "type": "uint256"
        }
      ],
      "name": "calculateFee",
      "outputs": [
        {
          "internalType": "uint256",
          "name": "",
          "type": "uint256"
        }
      ],
      "stateMutability": "pure",
      "type": "function"
    },
    {
      "inputs": [
        {
          "internalType": "address",
          "name": "receiverAddress",
          "type": "address"
        },
        {
          "internalType": "address",
          "name": "token",
          "type": "address"
        },
        {
          "internalType": "uint256",
          "name": "amount",
          "type": "uint256"
        },
        {
          "internalType": "bytes",
          "name": "params",
          "type": "bytes"
        }
      ],
      "name": "flashLoan",
      "outputs": [],
      "stateMutability": "nonpayable",
      "type": "function"
    },
    {
      "inputs": [
        {
          "internalType": "address",
          "name": "token",
          "type": "address"
        }
      ],
      "name": "getAvailableLiquidity",
      "outputs": [
        {
          "internalType": "uint256",
          "name": "",
          "type": "uint256"
        }
      ],
      "stateMutability": "view",
      "type": "function"
    },
    {
      "inputs": [],
      "name": "mntToken",
      "outputs": [
        {
          "internalType": "contract IERC20",
          "name": "",
          "type": "address"
        }
      ],
      "stateMutability": "view",
      "type": "function"
    },
    {
      "inputs": [],
      "name": "owner",
      "outputs": [
        {
          "internalType": "address",
          "name": "",
          "type": "address"
        }
      ],
      "stateMutability": "view",
      "type": "function"
    },
    {
      "inputs": [],
      "name": "pause",
      "outputs": [],
      "stateMutability": "nonpayable",
      "type": "function"
    },
    {
      "inputs": [],
      "name": "paused",
      "outputs": [
        {
          "internalType": "bool",
          "name": "",
          "type": "bool"
        }
      ],
      "stateMutability": "view",
      "type": "function"
    },
    {
      "inputs": [],
      "name": "renounceOwnership",
      "outputs": [],
      "stateMutability": "nonpayable",
      "type": "function"
    },
    {
      "inputs": [],
      "name": "totalFeesCollected",
      "outputs": [
        {
          "internalType": "uint256",
          "name": "",
          "type": "uint256"
        }
      ],
      "stateMutability": "view",
      "type": "function"
    },
    {
      "inputs": [],
      "name": "totalFlashLoans",
      "outputs": [
        {
          "internalType": "uint256",
          "name": "",
          "type": "uint256"
        }
      ],
      "stateMutability": "view",
      "type": "function"
    },
    {
      "inputs": [
        {
          "internalType": "address",
          "name": "newOwner",
          "type": "address"
        }
      ],
      "name": "transferOwnership",
      "outputs": [],
      "stateMutability": "nonpayable",
      "type": "function"
    },
    {
      "inputs": [],
      "name": "unpause",
      "outputs": [],
      "stateMutability": "nonpayable",
      "type": "function"
    },
    {
      "inputs": [],
      "name": "usdcToken",
      "outputs": [
        {
          "internalType": "contract IERC20",
          "name": "",
          "type": "address"
        }
      ],
      "stateMutability": "view",
      "type": "function"
    },
    {
      "inputs": [
        {
          "internalType": "address",
          "name": "",
          "type": "address"
        }
      ],
      "name": "userFlashLoanCount",
      "outputs": [
        {
          "internalType": "uint256",
          "name": "",
          "type": "uint256"
        }
      ],
      "stateMutability": "view",
      "type": "function"
    },
    {
      "inputs": [
        {
          "internalType": "address",
          "name": "",
          "type": "address"
        }
      ],
      "name": "userFlashLoanVolume",
      "outputs": [
        {
          "internalType": "uint256",
          "name": "",
          "type": "uint256"
        }
      ],
      "stateMutability": "view",
      "type": "function"
    }
  ],
  "bytecode": "0x60c060405234801561001057600080fd5b50604051610d2a380380610d2a83398101604081905261002f916100f1565b6001600055338061005a57604051631e4fbdf760e01b81526000600482015260240160405180910390fd5b6100638161007b565b506001600160a01b039182166080521660a052610124565b600180546001600160a01b03838116610100818102610100600160a81b031985161790945560405193909204169182907f8be0079c531659141344cd1fd0a4f28419497f9722a3daafe3b4186f6b6457e090600090a35050565b80516001600160a01b03811681146100ec57600080fd5b919050565b6000806040838503121561010457600080fd5b61010d836100d5565b915061011b602084016100d5565b90509250929050565b60805160a051610bd36101576000396000818161012601526103450152600081816101bc015261030a0152610bd36000f3fe608060405234801561001057600080fd5b50600436106101005760003560e01c80637f0554ca1161009757806399a5d7471161006657806399a5d74714610204578063c6a8256514610217578063e745bb5114610237578063f2fde38b1461025757600080fd5b80637f0554ca146101b75780638456cb59146101de5780638da5cb5b146101e65780638ffaacaa146101fc57600080fd5b80635c975abb116100d35780635c975abb1461017d5780635cffe9de1461019357806360c6d8ae146101a6578063715018a6146101af57600080fd5b8063114cad2c1461010557806311eac85514610121578063266e2bd8146101605780633f4ba83a14610173575b600080fd5b61010e60025481565b6040519081526020015b60405180910390f35b6101487f000000000000000000000000000000000000000000000000000000000000000081565b6040516001600160a01b039091168152602001610118565b61010e61016e3660046109c5565b61026a565b61017b6102db565b005b60015460ff166040519015158152602001610118565b61017b6101a13660046109e7565b6102ed565b61010e60035481565b61017b6107a4565b6101487f000000000000000000000000000000000000000000000000000000000000000081565b61017b6107b6565b60015461010090046001600160a01b0316610148565b61010e600981565b61010e610212366004610a82565b6107c6565b61010e6102253660046109c5565b60056020526000908152604090205481565b61010e6102453660046109c5565b60046020526000908152604090205481565b61017b6102653660046109c5565b6107e0565b6040516370a0823160e01b81523060048201526000906001600160a01b038316906370a0823190602401602060405180830381865afa1580156102b1573d6000803e3d6000fd5b505050506040513d601f19601f820116820180604052508101906102d59190610a9b565b92915050565b6102e361081e565b6102eb610851565b565b6102f56108a3565b6102fd6108cd565b60008311801561037957507f00000000000000000000000000000000000000000000000000000000000000006001600160a01b0316846001600160a01b0316148061037957507f00000000000000000000000000000000000000000000000000000000000000006001600160a01b0316846001600160a01b0316145b6103bb5760405162461bcd60e51b815260206004820152600e60248201526d496e76616c696420706172616d7360901b60448201526064015b60405180910390fd5b6040516370a0823160e01b8152306004820152849084906001600160a01b038316906370a0823190602401602060405180830381865afa158015610403573d6000803e3d6000fd5b505050506040513d601f19601f820116820180604052508101906104279190610a9b565b101561046e5760405162461bcd60e51b8152602060048201526016602482015275496e73756666696369656e74206c697175696469747960501b60448201526064016103b2565b600061271061047e600987610aca565b6104889190610ae1565b6040516370a0823160e01b81523060048201529091506000906001600160a01b038416906370a0823190602401602060405180830381865afa1580156104d2573d6000803e3d6000fd5b505050506040513d601f19601f820116820180604052508101906104f69190610a9b565b60405163a9059cbb60e01b81526001600160a01b038a81166004830152602482018990529192509084169063a9059cbb906044016020604051808303816000875af1158015610549573d6000803e3d6000fd5b505050506040513d601f19601f8201168201806040525081019061056d9190610b03565b50604051631dd0e4ab60e31b81526001600160a01b0389169063ee872558906105a2908a908a9087908b908b90600401610b25565b6020604051808303816000875af11580156105c1573d6000803e3d6000fd5b505050506040513d601f19601f820116820180604052508101906105e59190610b03565b6106245760405162461bcd60e51b815260206004820152601060248201526f115e1958dd5d1a5bdb8819985a5b195960821b60448201526064016103b2565b61062e8282610b71565b6040516370a0823160e01b81523060048201526001600160a01b038516906370a0823190602401602060405180830381865afa158015610672573d6000803e3d6000fd5b505050506040513d601f19601f820116820180604052508101906106969190610a9b565b10156106d15760405162461bcd60e51b815260206004820152600a602482015269139bdd081c995c185a5960b21b60448201526064016103b2565b600280549060006106e183610b84565b919050555081600360008282546106f89190610b71565b909155505033600090815260046020526040812080549161071883610b84565b9091555050336000908152600560205260408120805488929061073c908490610b71565b90915550506040805187815260208101849052428183015290516001600160a01b0389811692908b16917fea9aac78e0e48af4897630506e75b1ddba28503b58e70fe7bd92bce4f6efde7c9181900360600190a350505061079d6001600055565b5050505050565b6107ac61081e565b6102eb60006108f1565b6107be61081e565b6102eb61094b565b60006127106107d6600984610aca565b6102d59190610ae1565b6107e861081e565b6001600160a01b03811661081257604051631e4fbdf760e01b8152600060048201526024016103b2565b61081b816108f1565b50565b6001546001600160a01b036101009091041633146102eb5760405163118cdaa760e01b81523360048201526024016103b2565b610859610986565b6001805460ff191690557f5db9ee0a495bf2e6ff9c91a7834c1ba4fdd244a5e8aa4e537bd38aeae4b073aa335b6040516001600160a01b03909116815260200160405180910390a1565b6002600054036108c657604051633ee5aeb560e01b815260040160405180910390fd5b6002600055565b60015460ff16156102eb5760405163d93c066560e01b815260040160405180910390fd5b600180546001600160a01b03838116610100818102610100600160a81b031985161790945560405193909204169182907f8be0079c531659141344cd1fd0a4f28419497f9722a3daafe3b4186f6b6457e090600090a35050565b6109536108cd565b6001805460ff1916811790557f62e78cea01bee320cd4e420270b5ea74000d11b0c9f74754ebdbfc544b05a25833610886565b60015460ff166102eb57604051638dfc202b60e01b815260040160405180910390fd5b80356001600160a01b03811681146109c057600080fd5b919050565b6000602082840312156109d757600080fd5b6109e0826109a9565b9392505050565b6000806000806000608086880312156109ff57600080fd5b610a08866109a9565b9450610a16602087016109a9565b935060408601359250606086013567ffffffffffffffff80821115610a3a57600080fd5b818801915088601f830112610a4e57600080fd5b813581811115610a5d57600080fd5b896020828501011115610a6f57600080fd5b9699959850939650602001949392505050565b600060208284031215610a9457600080fd5b5035919050565b600060208284031215610aad57600080fd5b5051919050565b634e487b7160e01b600052601160045260246000fd5b80820281158282048414176102d5576102d5610ab4565b600082610afe57634e487b7160e01b600052601260045260246000fd5b500490565b600060208284031215610b1557600080fd5b815180151581146109e057600080fd5b60018060a01b038616815284602082015283604082015260806060820152816080820152818360a0830137600081830160a090810191909152601f909201601f19160101949350505050565b808201808211156102d5576102d5610ab4565b600060018201610b9657610b96610ab4565b506001019056fea26469706673582212200fe9cdad1a72ed133dc3d299a87789f039006aa9d50f122c837452993ca889e264736f6c63430008140033",
  "linkReferences": {},
  "deployedLinkReferences": {}
}