{
  "_format": "hh-sol-artifact-1",
  "contractName": "KYCRegistry",
  "sourceName": "contract/AllContracts.sol",
  "abi": [
    {
      "inputs": [],
      "stateMutability": "nonpayable",
      "type": "constructor"
    },
    {
      "inputs": [],
      "name": "AccessControlBadConfirmation",
      "type": "error"
    },
    {
      "inputs": [
        {
          "internalType": "address",
          "name": "account",
          "type": "address"
        },
        {
          "internalType": "bytes32",
          "name": "neededRole",
          "type": "bytes32"
        }
      ],
      "name": "AccessControlUnauthorizedAccount",
      "type": "error"
    },
    {
      "anonymous": false,
      "inputs": [
        {
          "indexed": true,
          "internalType": "address",
          "name": "user",
          "type": "address"
        },
        {
          "indexed": false,
          "internalType": "string",
          "name": "reason",
          "type": "string"
        }
      ],
      "name": "KYCRejected",
      "type": "event"
    },
    {
      "anonymous": false,
      "inputs": [
        {
          "indexed": true,
          "internalType": "address",
          "name": "user",
          "type": "address"
        },
        {
          "indexed": false,
          "internalType": "uint256",
          "name": "timestamp",
          "type": "uint256"
        }
      ],
      "name": "KYCSubmitted",
      "type": "event"
    },
    {
      "anonymous": false,
      "inputs": [
        {
          "indexed": true,
          "internalType": "address",
          "name": "user",
          "type": "address"
        },
        {
          "indexed": false,
          "internalType": "string",
          "name": "reason",
          "type": "string"
        }
      ],
      "name": "KYCSuspended",
      "type": "event"
    },
    {
      "anonymous": false,
      "inputs": [
        {
          "indexed": true,
          "internalType": "address",
          "name": "user",
          "type": "address"
        },
        {
          "indexed": false,
          "internalType": "uint8",
          "name": "tier",
          "type": "uint8"
        },
        {
          "indexed": false,
          "internalType": "uint256",
          "name": "expiresAt",
          "type": "uint256"
        }
      ],
      "name": "KYCVerified",
      "type": "event"
    },
    {
      "anonymous": false,
      "inputs": [
        {
          "indexed": true,
          "internalType": "bytes32",
          "name": "role",
          "type": "bytes32"
        },
        {
          "indexed": true,
          "internalType": "bytes32",
          "name": "previousAdminRole",
          "type": "bytes32"
        },
        {
          "indexed": true,
          "internalType": "bytes32",
          "name": "newAdminRole",
          "type": "bytes32"
        }
      ],
      "name": "RoleAdminChanged",
      "type": "event"
    },
    {
      "anonymous": false,
      "inputs": [
        {
          "indexed": true,
          "internalType": "bytes32",
          "name": "role",
          "type": "bytes32"
        },
        {
          "indexed": true,
          "internalType": "address",
          "name": "account",
          "type": "address"
        },
        {
          "indexed": true,
          "internalType": "address",
          "name": "sender",
          "type": "address"
        }
      ],
      "name": "RoleGranted",
      "type": "event"
    },
    {
      "anonymous": false,
      "inputs": [
        {
          "indexed": true,
          "internalType": "bytes32",
          "name": "role",
          "type": "bytes32"
        },
        {
          "indexed": true,
          "internalType": "address",
          "name": "account",
          "type": "address"
        },
        {
          "indexed": true,
          "internalType": "address",
          "name": "sender",
          "type": "address"
        }
      ],
      "name": "RoleRevoked",
      "type": "event"
    },
    {
      "inputs": [],
      "name": "DEFAULT_ADMIN_ROLE",
      "outputs": [
        {
          "internalType": "bytes32",
          "name": "",
          "type": "bytes32"
        }
      ],
      "stateMutability": "view",
      "type": "function"
    },
    {
      "inputs": [],
      "name": "KYC_ADMIN_ROLE",
      "outputs": [
        {
          "internalType": "bytes32",
          "name": "",
          "type": "bytes32"
        }
      ],
      "stateMutability": "view",
      "type": "function"
    },
    {
      "inputs": [
        {
          "internalType": "address",
          "name": "user",
          "type": "address"
        }
      ],
      "name": "getKYCTier",
      "outputs": [
        {
          "internalType": "uint8",
          "name": "",
          "type": "uint8"
        }
      ],
      "stateMutability": "view",
      "type": "function"
    },
    {
      "inputs": [
        {
          "internalType": "bytes32",
          "name": "role",
          "type": "bytes32"
        }
      ],
      "name": "getRoleAdmin",
      "outputs": [
        {
          "internalType": "bytes32",
          "name": "",
          "type": "bytes32"
        }
      ],
      "stateMutability": "view",
      "type": "function"
    },
    {
      "inputs": [
        {
          "internalType": "bytes32",
          "name": "role",
          "type": "bytes32"
        },
        {
          "internalType": "address",
          "name": "account",
          "type": "address"
        }
      ],
      "name": "grantRole",
      "outputs": [],
      "stateMutability": "nonpayable",
      "type": "function"
    },
    {
      "inputs": [
        {
          "internalType": "bytes32",
          "name": "role",
          "type": "bytes32"
        },
        {
          "internalType": "address",
          "name": "account",
          "type": "address"
        }
      ],
      "name": "hasRole",
      "outputs": [
        {
          "internalType": "bool",
          "name": "",
          "type": "bool"
        }
      ],
      "stateMutability": "view",
      "type": "function"
    },
    {
      "inputs": [
        {
          "internalType": "address",
          "name": "user",
          "type": "address"
        }
      ],
      "name": "isKYCVerified",
      "outputs": [
        {
          "internalType": "bool",
          "name": "",
          "type": "bool"
        }
      ],
      "stateMutability": "view",
      "type": "function"
    },
    {
      "inputs": [
        {
          "internalType": "address",
          "name": "",
          "type": "address"
        }
      ],
      "name": "kycData",
      "outputs": [
        {
          "internalType": "enum KYCRegistry.KYCStatus",
          "name": "status",
          "type": "uint8"
        },
        {
          "internalType": "uint256",
          "name": "verifiedAt",
          "type": "uint256"
        },
        {
          "internalType": "uint256",
          "name": "expiresAt",
          "type": "uint256"
        },
        {
          "internalType": "string",
          "name": "country",
          "type": "string"
        },
        {
          "internalType": "uint8",
          "name": "tier",
          "type": "uint8"
        }
      ],
      "stateMutability": "view",
      "type": "function"
    },
    {
      "inputs": [
        {
          "internalType": "address",
          "name": "user",
          "type": "address"
        },
        {
          "internalType": "string",
          "name": "reason",
          "type": "string"
        }
      ],
      "name": "rejectKYC",
      "outputs": [],
      "stateMutability": "nonpayable",
      "type": "function"
    },
    {
      "inputs": [
        {
          "internalType": "bytes32",
          "name": "role",
          "type": "bytes32"
        },
        {
          "internalType": "address",
          "name": "callerConfirmation",
          "type": "address"
        }
      ],
      "name": "renounceRole",
      "outputs": [],
      "stateMutability": "nonpayable",
      "type": "function"
    },
    {
      "inputs": [
        {
          "internalType": "bytes32",
          "name": "role",
          "type": "bytes32"
        },
        {
          "internalType": "address",
          "name": "account",
          "type": "address"
        }
      ],
      "name": "revokeRole",
      "outputs": [],
      "stateMutability": "nonpayable",
      "type": "function"
    },
    {
      "inputs": [
        {
          "internalType": "string",
          "name": "country",
          "type": "string"
        }
      ],
      "name": "submitKYC",
      "outputs": [],
      "stateMutability": "nonpayable",
      "type": "function"
    },
    {
      "inputs": [
        {
          "internalType": "bytes4",
          "name": "interfaceId",
          "type": "bytes4"
        }
      ],
      "name": "supportsInterface",
      "outputs": [
        {
          "internalType": "bool",
          "name": "",
          "type": "bool"
        }
      ],
      "stateMutability": "view",
      "type": "function"
    },
    {
      "inputs": [
        {
          "internalType": "address",
          "name": "user",
          "type": "address"
        },
        {
          "internalType": "string",
          "name": "reason",
          "type": "string"
        }
      ],
      "name": "suspendKYC",
      "outputs": [],
      "stateMutability": "nonpayable",
      "type": "function"
    },
    {
      "inputs": [
        {
          "internalType": "address",
          "name": "user",
          "type": "address"
        },
        {
          "internalType": "uint8",
          "name": "tier",
          "type": "uint8"
        },
        {
          "internalType": "uint256",
          "name": "validityDays",
          "type": "uint256"
        }
      ],
      "name": "verifyKYC",
      "outputs": [],
      "stateMutability": "nonpayable",
      "type": "function"
    }
  ],
  "bytecode": "0x608060405234801561001057600080fd5b5061001c60003361004d565b506100477f811427a0fa4932aef534bba16bc34e9b7b2d7d2a79c475fca1765f6cc1faebea3361004d565b506100f9565b6000828152602081815260408083206001600160a01b038516845290915281205460ff166100ef576000838152602081815260408083206001600160a01b03861684529091529020805460ff191660011790556100a73390565b6001600160a01b0316826001600160a01b0316847f2f8788117e7eff1d82e926ec794901d17c78024a50270940304540a733656f0d60405160405180910390a45060016100f3565b5060005b92915050565b610fbf806101086000396000f3fe608060405234801561001057600080fd5b50600436106100f55760003560e01c8063453ae3cf11610097578063a217fddf11610066578063a217fddf14610213578063b39c3c221461021b578063c828daa41461022e578063d547741f1461025357600080fd5b8063453ae3cf146101c75780634e74451f146101da57806354b7636e146101ed57806391d148541461020057600080fd5b8063238b651c116100d3578063238b651c14610169578063248a9ca31461017e5780632f2ff15d146101a157806336568abe146101b457600080fd5b806301ffc9a7146100fa57806302d7fd9214610122578063076f356514610145575b600080fd5b61010d610108366004610b24565b610266565b60405190151581526020015b60405180910390f35b610137600080516020610f6a83398151915281565b604051908152602001610119565b610158610153366004610b71565b61029d565b604051610119959493929190610ba2565b61017c610177366004610c7d565b61035e565b005b61013761018c366004610cd0565b60009081526020819052604090206001015490565b61017c6101af366004610ce9565b6103d9565b61017c6101c2366004610ce9565b610404565b61017c6101d5366004610d15565b61043c565b61017c6101e8366004610d57565b6105bc565b61010d6101fb366004610b71565b610824565b61010d61020e366004610ce9565b61087e565b610137600081565b61017c610229366004610c7d565b6108a7565b61024161023c366004610b71565b61097f565b60405160ff9091168152602001610119565b61017c610261366004610ce9565b6109b8565b60006001600160e01b03198216637965db0b60e01b148061029757506301ffc9a760e01b6001600160e01b03198316145b92915050565b6001602081905260009182526040909120805491810154600282015460038301805460ff90951694929391926102d290610d9c565b80601f01602080910402602001604051908101604052809291908181526020018280546102fe90610d9c565b801561034b5780601f106103205761010080835404028352916020019161034b565b820191906000526020600020905b81548152906001019060200180831161032e57829003601f168201915b5050506004909301549192505060ff1685565b600080516020610f6a833981519152610376816109dd565b6001600160a01b03841660008181526001602052604090819020805460ff19166003179055517f75f84e3d7c86754b3e5f8bc711d431d67ac0d2f50e92f0754c0552da79b49bfd906103cb9086908690610dd6565b60405180910390a250505050565b6000828152602081905260409020600101546103f4816109dd565b6103fe83836109ea565b50505050565b6001600160a01b038116331461042d5760405163334bd91960e11b815260040160405180910390fd5b6104378282610a7c565b505050565b60023360009081526001602052604090205460ff16600481111561046257610462610b8c565b036104a75760405162461bcd60e51b815260206004820152601060248201526f105b1c9958591e481d995c9a599a595960821b60448201526064015b60405180910390fd5b6040805160a081019091528060018152602001600081526020016000815260200183838080601f01602080910402602001604051908101604052809392919081815260200183838082843760009201829052509385525050506020918201819052338152600191829052604090208251815491929091839160ff199091169083600481111561053857610538610b8c565b02179055506020820151600182015560408201516002820155606082015160038201906105659082610e69565b50608091909101516004909101805460ff191660ff90921691909117905560405142815233907f2c3dea8db96f9d4588bb336e6b5c792bfaa97ca6516c306e79447561879425229060200160405180910390a25050565b600080516020610f6a8339815191526105d4816109dd565b60018360ff16101580156105ec575060038360ff1611155b8015610624575060016001600160a01b03851660009081526001602052604090205460ff16600481111561062257610622610b8c565b145b61065a5760405162461bcd60e51b8152602060048201526007602482015266125b9d985b1a5960ca1b604482015260640161049e565b60006106698362015180610f3f565b6106739042610f56565b6040805160a08101909152909150806002815260200142815260200182815260200160016000886001600160a01b03166001600160a01b0316815260200190815260200160002060030180546106c890610d9c565b80601f01602080910402602001604051908101604052809291908181526020018280546106f490610d9c565b80156107415780601f1061071657610100808354040283529160200191610741565b820191906000526020600020905b81548152906001019060200180831161072457829003601f168201915b505050918352505060ff86166020918201526001600160a01b0387166000908152600191829052604090208251815491929091839160ff199091169083600481111561078f5761078f610b8c565b02179055506020820151600182015560408201516002820155606082015160038201906107bc9082610e69565b50608091909101516004909101805460ff191660ff928316179055604080519186168252602082018390526001600160a01b038716917fe31789edf2ea12b3c29588a99e019ca85791c8d2f66b179e8fef487566ba1ce4910160405180910390a25050505050565b600060026001600160a01b03831660009081526001602052604090205460ff16600481111561085557610855610b8c565b1480156102975750506001600160a01b0316600090815260016020526040902060020154421090565b6000918252602082815260408084206001600160a01b0393909316845291905290205460ff1690565b600080516020610f6a8339815191526108bf816109dd565b60026001600160a01b03851660009081526001602052604090205460ff1660048111156108ee576108ee610b8c565b1461092a5760405162461bcd60e51b815260206004820152600c60248201526b139bdd081d995c9a599a595960a21b604482015260640161049e565b6001600160a01b03841660008181526001602052604090819020805460ff19166004179055517f17ccde318bfef3d7da189b133ba413ce6c242c82f805227ec85d20b64f029178906103cb9086908690610dd6565b600061098a82610824565b61099657506000919050565b506001600160a01b031660009081526001602052604090206004015460ff1690565b6000828152602081905260409020600101546109d3816109dd565b6103fe8383610a7c565b6109e78133610ae7565b50565b60006109f6838361087e565b610a74576000838152602081815260408083206001600160a01b03861684529091529020805460ff19166001179055610a2c3390565b6001600160a01b0316826001600160a01b0316847f2f8788117e7eff1d82e926ec794901d17c78024a50270940304540a733656f0d60405160405180910390a4506001610297565b506000610297565b6000610a88838361087e565b15610a74576000838152602081815260408083206001600160a01b0386168085529252808320805460ff1916905551339286917ff6391f5c32d9c69d2a47ea670b442974b53935d1edc7fd64eb21e047a839171b9190a4506001610297565b610af1828261087e565b610b205760405163e2517d3f60e01b81526001600160a01b03821660048201526024810183905260440161049e565b5050565b600060208284031215610b3657600080fd5b81356001600160e01b031981168114610b4e57600080fd5b9392505050565b80356001600160a01b0381168114610b6c57600080fd5b919050565b600060208284031215610b8357600080fd5b610b4e82610b55565b634e487b7160e01b600052602160045260246000fd5b600060058710610bc257634e487b7160e01b600052602160045260246000fd5b8682526020868184015285604084015260a0606084015284518060a085015260005b81811015610c005786810183015185820160c001528201610be4565b50600060c0828601015260c0601f19601f83011685010192505050610c2a608083018460ff169052565b9695505050505050565b60008083601f840112610c4657600080fd5b50813567ffffffffffffffff811115610c5e57600080fd5b602083019150836020828501011115610c7657600080fd5b9250929050565b600080600060408486031215610c9257600080fd5b610c9b84610b55565b9250602084013567ffffffffffffffff811115610cb757600080fd5b610cc386828701610c34565b9497909650939450505050565b600060208284031215610ce257600080fd5b5035919050565b60008060408385031215610cfc57600080fd5b82359150610d0c60208401610b55565b90509250929050565b60008060208385031215610d2857600080fd5b823567ffffffffffffffff811115610d3f57600080fd5b610d4b85828601610c34565b90969095509350505050565b600080600060608486031215610d6c57600080fd5b610d7584610b55565b9250602084013560ff81168114610d8b57600080fd5b929592945050506040919091013590565b600181811c90821680610db057607f821691505b602082108103610dd057634e487b7160e01b600052602260045260246000fd5b50919050565b60208152816020820152818360408301376000818301604090810191909152601f909201601f19160101919050565b634e487b7160e01b600052604160045260246000fd5b601f82111561043757600081815260208120601f850160051c81016020861015610e425750805b601f850160051c820191505b81811015610e6157828155600101610e4e565b505050505050565b815167ffffffffffffffff811115610e8357610e83610e05565b610e9781610e918454610d9c565b84610e1b565b602080601f831160018114610ecc5760008415610eb45750858301515b600019600386901b1c1916600185901b178555610e61565b600085815260208120601f198616915b82811015610efb57888601518255948401946001909101908401610edc565b5085821015610f195787850151600019600388901b60f8161c191681555b5050505050600190811b01905550565b634e487b7160e01b600052601160045260246000fd5b808202811582820484141761029757610297610f29565b8082018082111561029757610297610f2956fe811427a0fa4932aef534bba16bc34e9b7b2d7d2a79c475fca1765f6cc1faebeaa2646970667358221220a88b462abc52ca33400e17a13dfae73a3af7696272d0c18f92b4ca4393acdab164736f6c63430008140033",
  "linkReferences": {},
  "deployedLinkReferences": {}
}