{
  "_format": "hh-sol-artifact-1",
  "contractName": "LendingSystem",
  "sourceName": "contract/AllContracts.sol",
  "abi": [
    {
      "inputs": [
        {
          "internalType": "address",
          "name": "_mntToken",
          "type": "address"
        },
        {
          "internalType": "address",
          "name": "_usdcToken",
          "type": "address"
        }
      ],
      "stateMutability": "nonpayable",
      "type": "constructor"
    },
    {
      "inputs": [],
      "name": "EnforcedPause",
      "type": "error"
    },
    {
      "inputs": [],
      "name": "ExpectedPause",
      "type": "error"
    },
    {
      "inputs": [
        {
          "internalType": "address",
          "name": "owner",
          "type": "address"
        }
      ],
      "name": "OwnableInvalidOwner",
      "type": "error"
    },
    {
      "inputs": [
        {
          "internalType": "address",
          "name": "account",
          "type": "address"
        }
      ],
      "name": "OwnableUnauthorizedAccount",
      "type": "error"
    },
    {
      "inputs": [],
      "name": "ReentrancyGuardReentrantCall",
      "type": "error"
    },
    {
      "anonymous": false,
      "inputs": [
        {
          "indexed": true,
          "internalType": "uint256",
          "name": "loanId",
          "type": "uint256"
        },
        {
          "indexed": true,
          "internalType": "address",
          "name": "borrower",
          "type": "address"
        },
        {
          "indexed": false,
          "internalType": "uint256",
          "name": "collateralAmount",
          "type": "uint256"
        },
        {
          "indexed": false,
          "internalType": "uint256",
          "name": "borrowedAmount",
          "type": "uint256"
        },
        {
          "indexed": false,
          "internalType": "uint256",
          "name": "duration",
          "type": "uint256"
        }
      ],
      "name": "LoanCreated",
      "type": "event"
    },
    {
      "anonymous": false,
      "inputs": [
        {
          "indexed": true,
          "internalType": "uint256",
          "name": "loanId",
          "type": "uint256"
        },
        {
          "indexed": true,
          "internalType": "address",
          "name": "borrower",
          "type": "address"
        },
        {
          "indexed": false,
          "internalType": "uint256",
          "name": "repaidAmount",
          "type": "uint256"
        },
        {
          "indexed": false,
          "internalType": "bool",
          "name": "onTime",
          "type": "bool"
        }
      ],
      "name": "LoanRepaid",
      "type": "event"
    },
    {
      "anonymous": false,
      "inputs": [
        {
          "indexed": true,
          "internalType": "address",
          "name": "previousOwner",
          "type": "address"
        },
        {
          "indexed": true,
          "internalType": "address",
          "name": "newOwner",
          "type": "address"
        }
      ],
      "name": "OwnershipTransferred",
      "type": "event"
    },
    {
      "anonymous": false,
      "inputs": [
        {
          "indexed": false,
          "internalType": "address",
          "name": "account",
          "type": "address"
        }
      ],
      "name": "Paused",
      "type": "event"
    },
    {
      "anonymous": false,
      "inputs": [
        {
          "indexed": false,
          "internalType": "address",
          "name": "account",
          "type": "address"
        }
      ],
      "name": "Unpaused",
      "type": "event"
    },
    {
      "inputs": [],
      "name": "COLLATERAL_RATIO",
      "outputs": [
        {
          "internalType": "uint256",
          "name": "",
          "type": "uint256"
        }
      ],
      "stateMutability": "view",
      "type": "function"
    },
    {
      "inputs": [],
      "name": "INTEREST_RATE",
      "outputs": [
        {
          "internalType": "uint256",
          "name": "",
          "type": "uint256"
        }
      ],
      "stateMutability": "view",
      "type": "function"
    },
    {
      "inputs": [],
      "name": "REPUTATION_BONUS",
      "outputs": [
        {
          "internalType": "uint256",
          "name": "",
          "type": "uint256"
        }
      ],
      "stateMutability": "view",
      "type": "function"
    },
    {
      "inputs": [
        {
          "internalType": "address",
          "name": "user",
          "type": "address"
        }
      ],
      "name": "calculateInterestRate",
      "outputs": [
        {
          "internalType": "uint256",
          "name": "",
          "type": "uint256"
        }
      ],
      "stateMutability": "view",
      "type": "function"
    },
    {
      "inputs": [
        {
          "internalType": "uint256",
          "name": "collateralAmount",
          "type": "uint256"
        },
        {
          "internalType": "uint256",
          "name": "borrowAmount",
          "type": "uint256"
        },
        {
          "internalType": "uint256",
          "name": "duration",
          "type": "uint256"
        },
        {
          "internalType": "address",
          "name": "collateralToken",
          "type": "address"
        },
        {
          "internalType": "address",
          "name": "borrowToken",
          "type": "address"
        }
      ],
      "name": "createLoan",
      "outputs": [
        {
          "internalType": "uint256",
          "name": "",
          "type": "uint256"
        }
      ],
      "stateMutability": "nonpayable",
      "type": "function"
    },
    {
      "inputs": [
        {
          "internalType": "address",
          "name": "user",
          "type": "address"
        }
      ],
      "name": "getUserLoans",
      "outputs": [
        {
          "internalType": "uint256[]",
          "name": "",
          "type": "uint256[]"
        }
      ],
      "stateMutability": "view",
      "type": "function"
    },
    {
      "inputs": [
        {
          "internalType": "uint256",
          "name": "",
          "type": "uint256"
        }
      ],
      "name": "loans",
      "outputs": [
        {
          "internalType": "uint256",
          "name": "id",
          "type": "uint256"
        },
        {
          "internalType": "address",
          "name": "borrower",
          "type": "address"
        },
        {
          "internalType": "uint256",
          "name": "collateralAmount",
          "type": "uint256"
        },
        {
          "internalType": "uint256",
          "name": "borrowedAmount",
          "type": "uint256"
        },
        {
          "internalType": "uint256",
          "name": "interestRate",
          "type": "uint256"
        },
        {
          "internalType": "uint256",
          "name": "startTime",
          "type": "uint256"
        },
        {
          "internalType": "uint256",
          "name": "duration",
          "type": "uint256"
        },
        {
          "internalType": "bool",
          "name": "active",
          "type": "bool"
        },
        {
          "internalType": "bool",
          "name": "repaid",
          "type": "bool"
        },
        {
          "internalType": "address",
          "name": "collateralToken",
          "type": "address"
        },
        {
          "internalType": "address",
          "name": "borrowToken",
          "type": "address"
        }
      ],
      "stateMutability": "view",
      "type": "function"
    },
    {
      "inputs": [],
      "name": "mntToken",
      "outputs": [
        {
          "internalType": "contract IERC20",
          "name": "",
          "type": "address"
        }
      ],
      "stateMutability": "view",
      "type": "function"
    },
    {
      "inputs": [],
      "name": "nextLoanId",
      "outputs": [
        {
          "internalType": "uint256",
          "name": "",
          "type": "uint256"
        }
      ],
      "stateMutability": "view",
      "type": "function"
    },
    {
      "inputs": [],
      "name": "owner",
      "outputs": [
        {
          "internalType": "address",
          "name": "",
          "type": "address"
        }
      ],
      "stateMutability": "view",
      "type": "function"
    },
    {
      "inputs": [],
      "name": "pause",
      "outputs": [],
      "stateMutability": "nonpayable",
      "type": "function"
    },
    {
      "inputs": [],
      "name": "paused",
      "outputs": [
        {
          "internalType": "bool",
          "name": "",
          "type": "bool"
        }
      ],
      "stateMutability": "view",
      "type": "function"
    },
    {
      "inputs": [],
      "name": "renounceOwnership",
      "outputs": [],
      "stateMutability": "nonpayable",
      "type": "function"
    },
    {
      "inputs": [
        {
          "internalType": "uint256",
          "name": "loanId",
          "type": "uint256"
        }
      ],
      "name": "repayLoan",
      "outputs": [],
      "stateMutability": "nonpayable",
      "type": "function"
    },
    {
      "inputs": [
        {
          "internalType": "address",
          "name": "newOwner",
          "type": "address"
        }
      ],
      "name": "transferOwnership",
      "outputs": [],
      "stateMutability": "nonpayable",
      "type": "function"
    },
    {
      "inputs": [],
      "name": "unpause",
      "outputs": [],
      "stateMutability": "nonpayable",
      "type": "function"
    },
    {
      "inputs": [],
      "name": "usdcToken",
      "outputs": [
        {
          "internalType": "contract IERC20",
          "name": "",
          "type": "address"
        }
      ],
      "stateMutability": "view",
      "type": "function"
    },
    {
      "inputs": [
        {
          "internalType": "address",
          "name": "",
          "type": "address"
        },
        {
          "internalType": "uint256",
          "name": "",
          "type": "uint256"
        }
      ],
      "name": "userLoans",
      "outputs": [
        {
          "internalType": "uint256",
          "name": "",
          "type": "uint256"
        }
      ],
      "stateMutability": "view",
      "type": "function"
    },
    {
      "inputs": [
        {
          "internalType": "address",
          "name": "",
          "type": "address"
        }
      ],
      "name": "userReputation",
      "outputs": [
        {
          "internalType": "uint256",
          "name": "level",
          "type": "uint256"
        },
        {
          "internalType": "uint256",
          "name": "totalLoans",
          "type": "uint256"
        },
        {
          "internalType": "uint256",
          "name": "repaidOnTime",
          "type": "uint256"
        },
        {
          "internalType": "uint256",
          "name": "totalVolume",
          "type": "uint256"
        },
        {
          "internalType": "uint256",
          "name": "lastUpdate",
          "type": "uint256"
        }
      ],
      "stateMutability": "view",
      "type": "function"
    }
  ],
  "bytecode": "0x60c060405234801561001057600080fd5b50604051610f87380380610f8783398101604081905261002f916100f1565b6001600055338061005a57604051631e4fbdf760e01b81526000600482015260240160405180910390fd5b6100638161007b565b506001600160a01b039182166080521660a052610124565b600180546001600160a01b03838116610100818102610100600160a81b031985161790945560405193909204169182907f8be0079c531659141344cd1fd0a4f28419497f9722a3daafe3b4186f6b6457e090600090a35050565b80516001600160a01b03811681146100ec57600080fd5b919050565b6000806040838503121561010457600080fd5b61010d836100d5565b915061011b602084016100d5565b90509250929050565b60805160a051610e3e6101496000396000610154015260006101d20152610e3e6000f3fe608060405234801561001057600080fd5b50600436106101215760003560e01c80638da5cb5b116100ad578063d8bad5bd11610071578063d8bad5bd1461025c578063d9e69a051461026f578063e1ec3c6814610278578063e503bb0514610356578063f2fde38b146103bb57600080fd5b80638da5cb5b14610205578063950bc8781461021b578063ab7b1c891461022e578063c0d1884314610241578063cf7b48301461025457600080fd5b80635c975abb116100f45780635c975abb146101af578063715018a6146101c55780637f0554ca146101cd5780638456cb59146101f457806387c51459146101fc57600080fd5b806302bf321f1461012657806311eac8551461014f5780633f4ba83a1461018e5780635b72a33a14610198575b600080fd5b610139610134366004610c60565b6103ce565b6040516101469190610c7b565b60405180910390f35b6101767f000000000000000000000000000000000000000000000000000000000000000081565b6040516001600160a01b039091168152602001610146565b61019661043a565b005b6101a16101f481565b604051908152602001610146565b60015460ff166040519015158152602001610146565b61019661044c565b6101767f000000000000000000000000000000000000000000000000000000000000000081565b61019661045e565b6101a160025481565b60015461010090046001600160a01b0316610176565b6101a1610229366004610cbf565b61046e565b61019661023c366004610d0f565b610794565b6101a161024f366004610c60565b6109ff565b6101a160c881565b6101a161026a366004610d28565b610a4d565b6101a1613a9881565b6102f5610286366004610d0f565b600360208190526000918252604090912080546001820154600283015493830154600484015460058501546006860154600787015460089097015495976001600160a01b03958616979096949593949293919260ff80831693610100840490911692620100009004811691168b565b604080519b8c526001600160a01b039a8b1660208d01528b019890985260608a0196909652608089019490945260a088019290925260c0870152151560e0860152151561010085015282166101208401521661014082015261016001610146565b610393610364366004610c60565b600560205260009081526040902080546001820154600283015460038401546004909401549293919290919085565b604080519586526020860194909452928401919091526060830152608082015260a001610146565b6101966103c9366004610c60565b610a7e565b6001600160a01b03811660009081526004602090815260409182902080548351818402810184019094528084526060939283018282801561042e57602002820191906000526020600020905b81548152602001906001019080831161041a575b50505050509050919050565b610442610ab9565b61044a610aec565b565b610454610ab9565b61044a6000610b3e565b610466610ab9565b61044a610b98565b6000610478610bd3565b610480610bfd565b6000861180156104905750600085115b80156104a057506301e133808411155b6104e25760405162461bcd60e51b815260206004820152600e60248201526d496e76616c696420706172616d7360901b60448201526064015b60405180910390fd5b6127106104f1613a9887610d68565b6104fb9190610d85565b86101561054a5760405162461bcd60e51b815260206004820152601760248201527f496e73756666696369656e7420636f6c6c61746572616c00000000000000000060448201526064016104d9565b6040516323b872dd60e01b8152336004820152306024820152604481018790526001600160a01b038416906323b872dd906064016020604051808303816000875af115801561059d573d6000803e3d6000fd5b505050506040513d601f19601f820116820180604052508101906105c19190610da7565b5060028054600091826105d383610dc9565b9091555060008181526003602081905260409091208281556001810180546001600160a01b03191633908117909155600282018b905591810189905591925061061b906109ff565b60048281019190915542600583015560068201879055600782018054600161ff01600160b01b0319909116620100006001600160a01b038a8116919091029190911782179092556008840180546001600160a01b0319169288169283179055336000818152602085815260408083208054958601815583529120909201869055905163a9059cbb60e01b815292830152602482018990529063a9059cbb906044016020604051808303816000875af11580156106db573d6000803e3d6000fd5b505050506040513d601f19601f820116820180604052508101906106ff9190610da7565b50336000908152600560205260408120600181018054919261072083610dc9565b9190505550878160030160008282546107399190610de2565b9091555050604080518a8152602081018a9052908101889052339084907fb2cca1719ad611d325136b9c9a4357f412d33694d93c60d4c1b6e922d524cf599060600160405180910390a3505060016000559695505050505050565b61079c610bd3565b6000818152600360205260409020600781015460ff1680156107ca575060018101546001600160a01b031633145b6108055760405162461bcd60e51b815260206004820152600c60248201526b24b73b30b634b2103637b0b760a11b60448201526064016104d9565b600064496cebb80082600501544261081d9190610df5565b836004015484600301546108319190610d68565b61083b9190610d68565b6108459190610d85565b905060008183600301546108599190610de2565b60088401546040516323b872dd60e01b8152336004820152306024820152604481018390529192506001600160a01b0316906323b872dd906064016020604051808303816000875af11580156108b3573d6000803e3d6000fd5b505050506040513d601f19601f820116820180604052508101906108d79190610da7565b506007830154600284015460405163a9059cbb60e01b81523360048201526024810191909152620100009091046001600160a01b03169063a9059cbb906044016020604051808303816000875af1158015610936573d6000803e3d6000fd5b505050506040513d601f19601f8201168201806040525081019061095a9190610da7565b5060078301805461ffff19166101001790556006830154600584015460009161098291610de2565b4211801591506109b0573360009081526005602052604081206002018054916109aa83610dc9565b91905055505b604080518381528215156020820152339187917f2010de6ec11f83338b76cf98d4924c7ea74a036c590a8180872a82d2871c47ca910160405180910390a3505050506109fc6001600055565b50565b6001600160a01b0381166000908152600560205260408120548190610a269060c890610d68565b90506101f4811015610a4357610a3e816101f4610df5565b610a46565b60645b9392505050565b60046020528160005260406000208181548110610a6957600080fd5b90600052602060002001600091509150505481565b610a86610ab9565b6001600160a01b038116610ab057604051631e4fbdf760e01b8152600060048201526024016104d9565b6109fc81610b3e565b6001546001600160a01b0361010090910416331461044a5760405163118cdaa760e01b81523360048201526024016104d9565b610af4610c21565b6001805460ff191690557f5db9ee0a495bf2e6ff9c91a7834c1ba4fdd244a5e8aa4e537bd38aeae4b073aa335b6040516001600160a01b03909116815260200160405180910390a1565b600180546001600160a01b03838116610100818102610100600160a81b031985161790945560405193909204169182907f8be0079c531659141344cd1fd0a4f28419497f9722a3daafe3b4186f6b6457e090600090a35050565b610ba0610bfd565b6001805460ff1916811790557f62e78cea01bee320cd4e420270b5ea74000d11b0c9f74754ebdbfc544b05a25833610b21565b600260005403610bf657604051633ee5aeb560e01b815260040160405180910390fd5b6002600055565b60015460ff161561044a5760405163d93c066560e01b815260040160405180910390fd5b60015460ff1661044a57604051638dfc202b60e01b815260040160405180910390fd5b80356001600160a01b0381168114610c5b57600080fd5b919050565b600060208284031215610c7257600080fd5b610a4682610c44565b6020808252825182820181905260009190848201906040850190845b81811015610cb357835183529284019291840191600101610c97565b50909695505050505050565b600080600080600060a08688031215610cd757600080fd5b853594506020860135935060408601359250610cf560608701610c44565b9150610d0360808701610c44565b90509295509295909350565b600060208284031215610d2157600080fd5b5035919050565b60008060408385031215610d3b57600080fd5b610d4483610c44565b946020939093013593505050565b634e487b7160e01b600052601160045260246000fd5b8082028115828204841417610d7f57610d7f610d52565b92915050565b600082610da257634e487b7160e01b600052601260045260246000fd5b500490565b600060208284031215610db957600080fd5b81518015158114610a4657600080fd5b600060018201610ddb57610ddb610d52565b5060010190565b80820180821115610d7f57610d7f610d52565b81810381811115610d7f57610d7f610d5256fea2646970667358221220369f1d58f1ef01a1f5cb70534d2cceecd3eeeedfe11aa47b26cd10ed742545a364736f6c63430008140033",
  "linkReferences": {},
  "deployedLinkReferences": {}
}