{
  "_format": "hh-sol-artifact-1",
  "contractName": "LiquidityPool",
  "sourceName": "contract/AllContracts.sol",
  "abi": [
    {
      "inputs": [
        {
          "internalType": "address",
          "name": "_mntToken",
          "type": "address"
        },
        {
          "internalType": "address",
          "name": "_usdcToken",
          "type": "address"
        },
        {
          "internalType": "address",
          "name": "_lpToken",
          "type": "address"
        }
      ],
      "stateMutability": "nonpayable",
      "type": "constructor"
    },
    {
      "inputs": [],
      "name": "EnforcedPause",
      "type": "error"
    },
    {
      "inputs": [],
      "name": "ExpectedPause",
      "type": "error"
    },
    {
      "inputs": [
        {
          "internalType": "address",
          "name": "owner",
          "type": "address"
        }
      ],
      "name": "OwnableInvalidOwner",
      "type": "error"
    },
    {
      "inputs": [
        {
          "internalType": "address",
          "name": "account",
          "type": "address"
        }
      ],
      "name": "OwnableUnauthorizedAccount",
      "type": "error"
    },
    {
      "inputs": [],
      "name": "ReentrancyGuardReentrantCall",
      "type": "error"
    },
    {
      "anonymous": false,
      "inputs": [
        {
          "indexed": true,
          "internalType": "address",
          "name": "spender",
          "type": "address"
        },
        {
          "indexed": false,
          "internalType": "bool",
          "name": "authorized",
          "type": "bool"
        }
      ],
      "name": "AuthorizedSpenderUpdated",
      "type": "event"
    },
    {
      "anonymous": false,
      "inputs": [
        {
          "indexed": true,
          "internalType": "address",
          "name": "provider",
          "type": "address"
        },
        {
          "indexed": false,
          "internalType": "uint256",
          "name": "mntAmount",
          "type": "uint256"
        },
        {
          "indexed": false,
          "internalType": "uint256",
          "name": "usdcAmount",
          "type": "uint256"
        },
        {
          "indexed": false,
          "internalType": "uint256",
          "name": "lpTokens",
          "type": "uint256"
        }
      ],
      "name": "LiquidityAdded",
      "type": "event"
    },
    {
      "anonymous": false,
      "inputs": [
        {
          "indexed": true,
          "internalType": "address",
          "name": "provider",
          "type": "address"
        },
        {
          "indexed": false,
          "internalType": "uint256",
          "name": "mntAmount",
          "type": "uint256"
        },
        {
          "indexed": false,
          "internalType": "uint256",
          "name": "usdcAmount",
          "type": "uint256"
        },
        {
          "indexed": false,
          "internalType": "uint256",
          "name": "lpTokens",
          "type": "uint256"
        }
      ],
      "name": "LiquidityRemoved",
      "type": "event"
    },
    {
      "anonymous": false,
      "inputs": [
        {
          "indexed": true,
          "internalType": "address",
          "name": "previousOwner",
          "type": "address"
        },
        {
          "indexed": true,
          "internalType": "address",
          "name": "newOwner",
          "type": "address"
        }
      ],
      "name": "OwnershipTransferred",
      "type": "event"
    },
    {
      "anonymous": false,
      "inputs": [
        {
          "indexed": false,
          "internalType": "address",
          "name": "account",
          "type": "address"
        }
      ],
      "name": "Paused",
      "type": "event"
    },
    {
      "anonymous": false,
      "inputs": [
        {
          "indexed": true,
          "internalType": "address",
          "name": "provider",
          "type": "address"
        },
        {
          "indexed": false,
          "internalType": "uint256",
          "name": "amount",
          "type": "uint256"
        }
      ],
      "name": "RewardsClaimed",
      "type": "event"
    },
    {
      "anonymous": false,
      "inputs": [
        {
          "indexed": true,
          "internalType": "address",
          "name": "buyer",
          "type": "address"
        },
        {
          "indexed": false,
          "internalType": "uint256",
          "name": "amount",
          "type": "uint256"
        },
        {
          "indexed": false,
          "internalType": "address",
          "name": "token",
          "type": "address"
        },
        {
          "indexed": false,
          "internalType": "uint256",
          "name": "fee",
          "type": "uint256"
        }
      ],
      "name": "ShoppingPayment",
      "type": "event"
    },
    {
      "anonymous": false,
      "inputs": [
        {
          "indexed": false,
          "internalType": "address",
          "name": "account",
          "type": "address"
        }
      ],
      "name": "Unpaused",
      "type": "event"
    },
    {
      "inputs": [],
      "name": "BASIS_POINTS",
      "outputs": [
        {
          "internalType": "uint256",
          "name": "",
          "type": "uint256"
        }
      ],
      "stateMutability": "view",
      "type": "function"
    },
    {
      "inputs": [],
      "name": "FEE_RATE",
      "outputs": [
        {
          "internalType": "uint256",
          "name": "",
          "type": "uint256"
        }
      ],
      "stateMutability": "view",
      "type": "function"
    },
    {
      "inputs": [],
      "name": "MINIMUM_LIQUIDITY",
      "outputs": [
        {
          "internalType": "uint256",
          "name": "",
          "type": "uint256"
        }
      ],
      "stateMutability": "view",
      "type": "function"
    },
    {
      "inputs": [
        {
          "internalType": "uint256",
          "name": "mntAmount",
          "type": "uint256"
        },
        {
          "internalType": "uint256",
          "name": "usdcAmount",
          "type": "uint256"
        }
      ],
      "name": "addLiquidity",
      "outputs": [
        {
          "internalType": "uint256",
          "name": "lpTokensToMint",
          "type": "uint256"
        }
      ],
      "stateMutability": "nonpayable",
      "type": "function"
    },
    {
      "inputs": [
        {
          "internalType": "address",
          "name": "",
          "type": "address"
        }
      ],
      "name": "authorizedSpenders",
      "outputs": [
        {
          "internalType": "bool",
          "name": "",
          "type": "bool"
        }
      ],
      "stateMutability": "view",
      "type": "function"
    },
    {
      "inputs": [],
      "name": "claimRewards",
      "outputs": [
        {
          "internalType": "uint256",
          "name": "",
          "type": "uint256"
        }
      ],
      "stateMutability": "nonpayable",
      "type": "function"
    },
    {
      "inputs": [],
      "name": "getPoolStats",
      "outputs": [
        {
          "internalType": "uint256",
          "name": "mntLiquidity",
          "type": "uint256"
        },
        {
          "internalType": "uint256",
          "name": "usdcLiquidity",
          "type": "uint256"
        },
        {
          "internalType": "uint256",
          "name": "lpSupply",
          "type": "uint256"
        },
        {
          "internalType": "uint256",
          "name": "feesCollected",
          "type": "uint256"
        },
        {
          "internalType": "uint256",
          "name": "shoppingVolume",
          "type": "uint256"
        }
      ],
      "stateMutability": "view",
      "type": "function"
    },
    {
      "inputs": [
        {
          "internalType": "address",
          "name": "user",
          "type": "address"
        }
      ],
      "name": "getUserLiquidity",
      "outputs": [
        {
          "internalType": "uint256",
          "name": "mntDeposited",
          "type": "uint256"
        },
        {
          "internalType": "uint256",
          "name": "usdcDeposited",
          "type": "uint256"
        },
        {
          "internalType": "uint256",
          "name": "lpTokens",
          "type": "uint256"
        },
        {
          "internalType": "uint256",
          "name": "rewardsEarned",
          "type": "uint256"
        },
        {
          "internalType": "uint256",
          "name": "depositTime",
          "type": "uint256"
        }
      ],
      "stateMutability": "view",
      "type": "function"
    },
    {
      "inputs": [
        {
          "internalType": "address",
          "name": "",
          "type": "address"
        }
      ],
      "name": "liquidityProviders",
      "outputs": [
        {
          "internalType": "uint256",
          "name": "mntDeposited",
          "type": "uint256"
        },
        {
          "internalType": "uint256",
          "name": "usdcDeposited",
          "type": "uint256"
        },
        {
          "internalType": "uint256",
          "name": "lpTokens",
          "type": "uint256"
        },
        {
          "internalType": "uint256",
          "name": "rewardsEarned",
          "type": "uint256"
        },
        {
          "internalType": "uint256",
          "name": "depositTime",
          "type": "uint256"
        }
      ],
      "stateMutability": "view",
      "type": "function"
    },
    {
      "inputs": [],
      "name": "lpToken",
      "outputs": [
        {
          "internalType": "contract IERC20",
          "name": "",
          "type": "address"
        }
      ],
      "stateMutability": "view",
      "type": "function"
    },
    {
      "inputs": [],
      "name": "mntToken",
      "outputs": [
        {
          "internalType": "contract IERC20",
          "name": "",
          "type": "address"
        }
      ],
      "stateMutability": "view",
      "type": "function"
    },
    {
      "inputs": [],
      "name": "owner",
      "outputs": [
        {
          "internalType": "address",
          "name": "",
          "type": "address"
        }
      ],
      "stateMutability": "view",
      "type": "function"
    },
    {
      "inputs": [],
      "name": "pause",
      "outputs": [],
      "stateMutability": "nonpayable",
      "type": "function"
    },
    {
      "inputs": [],
      "name": "paused",
      "outputs": [
        {
          "internalType": "bool",
          "name": "",
          "type": "bool"
        }
      ],
      "stateMutability": "view",
      "type": "function"
    },
    {
      "inputs": [
        {
          "internalType": "address",
          "name": "buyer",
          "type": "address"
        },
        {
          "internalType": "uint256",
          "name": "amount",
          "type": "uint256"
        },
        {
          "internalType": "address",
          "name": "paymentToken",
          "type": "address"
        }
      ],
      "name": "processShoppingPayment",
      "outputs": [
        {
          "internalType": "bool",
          "name": "",
          "type": "bool"
        }
      ],
      "stateMutability": "nonpayable",
      "type": "function"
    },
    {
      "inputs": [
        {
          "internalType": "uint256",
          "name": "lpTokenAmount",
          "type": "uint256"
        }
      ],
      "name": "removeLiquidity",
      "outputs": [
        {
          "internalType": "uint256",
          "name": "mntAmount",
          "type": "uint256"
        },
        {
          "internalType": "uint256",
          "name": "usdcAmount",
          "type": "uint256"
        }
      ],
      "stateMutability": "nonpayable",
      "type": "function"
    },
    {
      "inputs": [],
      "name": "renounceOwnership",
      "outputs": [],
      "stateMutability": "nonpayable",
      "type": "function"
    },
    {
      "inputs": [
        {
          "internalType": "address",
          "name": "spender",
          "type": "address"
        },
        {
          "internalType": "bool",
          "name": "authorized",
          "type": "bool"
        }
      ],
      "name": "setAuthorizedSpender",
      "outputs": [],
      "stateMutability": "nonpayable",
      "type": "function"
    },
    {
      "inputs": [
        {
          "internalType": "address",
          "name": "_yieldShopContract",
          "type": "address"
        }
      ],
      "name": "setYieldShopContract",
      "outputs": [],
      "stateMutability": "nonpayable",
      "type": "function"
    },
    {
      "inputs": [],
      "name": "totalFeesCollected",
      "outputs": [
        {
          "internalType": "uint256",
          "name": "",
          "type": "uint256"
        }
      ],
      "stateMutability": "view",
      "type": "function"
    },
    {
      "inputs": [],
      "name": "totalLPSupply",
      "outputs": [
        {
          "internalType": "uint256",
          "name": "",
          "type": "uint256"
        }
      ],
      "stateMutability": "view",
      "type": "function"
    },
    {
      "inputs": [],
      "name": "totalMNTLiquidity",
      "outputs": [
        {
          "internalType": "uint256",
          "name": "",
          "type": "uint256"
        }
      ],
      "stateMutability": "view",
      "type": "function"
    },
    {
      "inputs": [],
      "name": "totalShoppingVolume",
      "outputs": [
        {
          "internalType": "uint256",
          "name": "",
          "type": "uint256"
        }
      ],
      "stateMutability": "view",
      "type": "function"
    },
    {
      "inputs": [],
      "name": "totalUSDCLiquidity",
      "outputs": [
        {
          "internalType": "uint256",
          "name": "",
          "type": "uint256"
        }
      ],
      "stateMutability": "view",
      "type": "function"
    },
    {
      "inputs": [
        {
          "internalType": "address",
          "name": "newOwner",
          "type": "address"
        }
      ],
      "name": "transferOwnership",
      "outputs": [],
      "stateMutability": "nonpayable",
      "type": "function"
    },
    {
      "inputs": [],
      "name": "unpause",
      "outputs": [],
      "stateMutability": "nonpayable",
      "type": "function"
    },
    {
      "inputs": [],
      "name": "usdcToken",
      "outputs": [
        {
          "internalType": "contract IERC20",
          "name": "",
          "type": "address"
        }
      ],
      "stateMutability": "view",
      "type": "function"
    },
    {
      "inputs": [],
      "name": "yieldShopContract",
      "outputs": [
        {
          "internalType": "address",
          "name": "",
          "type": "address"
        }
      ],
      "stateMutability": "view",
      "type": "function"
    }
  ],
  "bytecode": "0x60e06040523480156200001157600080fd5b50604051620017e8380380620017e883398101604081905262000034916200016f565b33806200005c57604051631e4fbdf760e01b8152600060048201526024015b60405180910390fd5b620000678162000102565b50600180556001600160a01b038316158015906200008d57506001600160a01b03821615155b8015620000a257506001600160a01b03811615155b620000e45760405162461bcd60e51b8152602060048201526011602482015270496e76616c69642061646472657373657360781b604482015260640162000053565b6001600160a01b0392831660805290821660a0521660c052620001b9565b600080546001600160a01b038381166001600160a01b0319831681178455604051919092169283917f8be0079c531659141344cd1fd0a4f28419497f9722a3daafe3b4186f6b6457e09190a35050565b80516001600160a01b03811681146200016a57600080fd5b919050565b6000806000606084860312156200018557600080fd5b620001908462000152565b9250620001a06020850162000152565b9150620001b06040850162000152565b90509250925092565b60805160a05160c0516115c76200022160003960006102760152600081816101ff01528181610629015281816107e801528181610cea0152610ecc0152600081816102c1015281816107ad015281816109b001528181610c580152610e3401526115c76000f3fe608060405234801561001057600080fd5b50600436106101c45760003560e01c80638456cb59116100f9578063d2454e8d11610097578063e1f1c4a711610071578063e1f1c4a714610465578063e3f2d7b51461046e578063f2fde38b14610477578063fec204011461048a57600080fd5b8063d2454e8d14610399578063dbbdd935146103bc578063dbd942671461042857600080fd5b80639cd441da116100d35780639cd441da1461033c578063ba9a7a561461034f578063bbb8518814610358578063d1a867111461039057600080fd5b80638456cb59146102fb5780638da5cb5b146103035780639c8f9f231461031457600080fd5b80635c975abb11610166578063715018a611610140578063715018a6146102a157806378f959a9146102a95780637f0554ca146102bc5780637feb54c8146102e357600080fd5b80635c975abb1461025a5780635fcbd2851461027157806360c6d8ae1461029857600080fd5b80632d11c58a116101a25780632d11c58a14610239578063372500ab146102415780633f4ba83a1461024957806342702d461461025157600080fd5b8063042f1ba7146101c95780630cecac8e146101de57806311eac855146101fa575b600080fd5b6101dc6101d736600461141d565b61049d565b005b6101e760035481565b6040519081526020015b60405180910390f35b6102217f000000000000000000000000000000000000000000000000000000000000000081565b6040516001600160a01b0390911681526020016101f1565b6101e7601e81565b6101e7610504565b6101dc6106e4565b6101e760095481565b60025460ff165b60405190151581526020016101f1565b6102217f000000000000000000000000000000000000000000000000000000000000000081565b6101e760085481565b6101dc6106f6565b6102616102b7366004611454565b610708565b6102217f000000000000000000000000000000000000000000000000000000000000000081565b6002546102219061010090046001600160a01b031681565b6101dc610ab1565b6000546001600160a01b0316610221565b610327610322366004611490565b610ac1565b604080519283526020830191909152016101f1565b6101e761034a3660046114a9565b610db2565b6101e76103e881565b6003546004546005546008546009545b604080519586526020860194909452928401919091526060830152608082015260a0016101f1565b6101e760055481565b6102616103a73660046114cb565b60076020526000908152604090205460ff1681565b6103686103ca3660046114cb565b6001600160a01b0316600090815260066020908152604091829020825160a081018452815480825260018301549382018490526002830154948201859052600383015460608301819052600490930154608090920182905294929392565b6103686104363660046114cb565b600660205260009081526040902080546001820154600283015460038401546004909401549293919290919085565b6101e761271081565b6101e760045481565b6101dc6104853660046114cb565b611104565b6101dc6104983660046114cb565b611142565b6104a561120b565b6001600160a01b038216600081815260076020908152604091829020805460ff191685151590811790915591519182527fcf0513c74b4d77095356357b35b5e34ac3424c008299b2cef0e805ee3c523275910160405180910390a25050565b600061050e611238565b336000908152600660205260409020600281015461056b5760405162461bcd60e51b8152602060048201526015602482015274139bc81b1a5c5d5a591a5d1e481c1c9bdd9a591959605a1b60448201526064015b60405180910390fd5b6000600554612710836002015461058291906114fc565b61058c9190611513565b90506000612710826008546105a191906114fc565b6105ab9190611513565b9050600081116105f45760405162461bcd60e51b81526020600482015260146024820152734e6f207265776172647320617661696c61626c6560601b6044820152606401610562565b808360030160008282546106089190611535565b909155505060405163a9059cbb60e01b8152336004820152602481018290527f00000000000000000000000000000000000000000000000000000000000000006001600160a01b03169063a9059cbb906044016020604051808303816000875af115801561067a573d6000803e3d6000fd5b505050506040513d601f19601f8201168201806040525081019061069e9190611548565b5060405181815233907ffc30cddea38e2bf4d6ea7d3f9ed3b6ad7f176419f4963bd81318067a4aee73fe9060200160405180910390a2925050506106e160018055565b90565b6106ec61120b565b6106f4611262565b565b6106fe61120b565b6106f460006112b4565b6000610712611238565b61071a611304565b3360009081526007602052604090205460ff1661076a5760405162461bcd60e51b815260206004820152600e60248201526d139bdd08185d5d1a1bdc9a5e995960921b6044820152606401610562565b600083116107ab5760405162461bcd60e51b815260206004820152600e60248201526d125b9d985b1a5908185b5bdd5b9d60921b6044820152606401610562565b7f00000000000000000000000000000000000000000000000000000000000000006001600160a01b0316826001600160a01b0316148061081c57507f00000000000000000000000000000000000000000000000000000000000000006001600160a01b0316826001600160a01b0316145b61085c5760405162461bcd60e51b81526020600482015260116024820152702ab739bab83837b93a32b2103a37b5b2b760791b6044820152606401610562565b600061271061086c601e866114fc565b6108769190611513565b905060006108848286611565565b6040516370a0823160e01b8152306004820152909150849082906001600160a01b038316906370a0823190602401602060405180830381865afa1580156108cf573d6000803e3d6000fd5b505050506040513d601f19601f820116820180604052508101906108f39190611578565b101561093a5760405162461bcd60e51b8152602060048201526016602482015275496e73756666696369656e74206c697175696469747960501b6044820152606401610562565b60405163a9059cbb60e01b81526001600160a01b0388811660048301526024820184905282169063a9059cbb906044016020604051808303816000875af1158015610989573d6000803e3d6000fd5b505050506040513d601f19601f820116820180604052508101906109ad9190611548565b507f00000000000000000000000000000000000000000000000000000000000000006001600160a01b0316856001600160a01b031603610a045781600360008282546109f99190611565565b90915550610a1c9050565b8160046000828254610a169190611565565b90915550505b8260086000828254610a2e9190611535565b925050819055508560096000828254610a479190611535565b9091555050604080518781526001600160a01b038781166020830152918101859052908816907fd1d90576f90d21d12f5baaac44dafbc7bbd9eef8e68266feaf8a71991cb61a189060600160405180910390a260019350505050610aaa60018055565b9392505050565b610ab961120b565b6106f4611328565b600080610acc611238565b60008311610b0d5760405162461bcd60e51b815260206004820152600e60248201526d125b9d985b1a5908185b5bdd5b9d60921b6044820152606401610562565b3360009081526006602052604090206002810154841115610b695760405162461bcd60e51b8152602060048201526016602482015275496e73756666696369656e74204c5020746f6b656e7360501b6044820152606401610562565b600554600354610b7990866114fc565b610b839190611513565b925060055460045485610b9691906114fc565b610ba09190611513565b915082816000016000828254610bb69190611565565b9250508190555081816001016000828254610bd19190611565565b9250508190555083816002016000828254610bec9190611565565b925050819055508260036000828254610c059190611565565b925050819055508160046000828254610c1e9190611565565b925050819055508360056000828254610c379190611565565b909155505060405163a9059cbb60e01b8152336004820152602481018490527f00000000000000000000000000000000000000000000000000000000000000006001600160a01b03169063a9059cbb906044016020604051808303816000875af1158015610ca9573d6000803e3d6000fd5b505050506040513d601f19601f82011682018060405250810190610ccd9190611548565b5060405163a9059cbb60e01b8152336004820152602481018390527f00000000000000000000000000000000000000000000000000000000000000006001600160a01b03169063a9059cbb906044016020604051808303816000875af1158015610d3b573d6000803e3d6000fd5b505050506040513d601f19601f82011682018060405250810190610d5f9190611548565b50604080518481526020810184905290810185905233907f1dc8bb69df2b8e91fbdcbfcf93d951b3f0000f085a95fe3f7946d6161439245d9060600160405180910390a250610dad60018055565b915091565b6000610dbc611238565b610dc4611304565b600083118015610dd45750600082115b610e125760405162461bcd60e51b815260206004820152600f60248201526e496e76616c696420616d6f756e747360881b6044820152606401610562565b6040516323b872dd60e01b8152336004820152306024820152604481018490527f00000000000000000000000000000000000000000000000000000000000000006001600160a01b0316906323b872dd906064016020604051808303816000875af1158015610e85573d6000803e3d6000fd5b505050506040513d601f19601f82011682018060405250810190610ea99190611548565b506040516323b872dd60e01b8152336004820152306024820152604481018390527f00000000000000000000000000000000000000000000000000000000000000006001600160a01b0316906323b872dd906064016020604051808303816000875af1158015610f1d573d6000803e3d6000fd5b505050506040513d601f19601f82011682018060405250810190610f419190611548565b50600554600003610faf57610f5e610f5983856114fc565b611365565b90506103e88111610faa5760405162461bcd60e51b8152602060048201526016602482015275496e73756666696369656e74206c697175696469747960501b6044820152606401610562565b611001565b600060035460055485610fc291906114fc565b610fcc9190611513565b9050600060045460055485610fe191906114fc565b610feb9190611513565b9050808210610ffa5780610ffc565b815b925050505b336000908152600660205260408120805490918591839190611024908490611535565b925050819055508281600101600082825461103f9190611535565b925050819055508181600201600082825461105a9190611535565b90915550504260048201556003805485919060009061107a908490611535565b9250508190555082600460008282546110939190611535565b9250508190555081600560008282546110ac9190611535565b9091555050604080518581526020810185905290810183905233907f64b83944e79c3ce8d4c297411de637c3e102d064677aac0c163976ebdcd6f50e9060600160405180910390a2506110fe60018055565b92915050565b61110c61120b565b6001600160a01b03811661113657604051631e4fbdf760e01b815260006004820152602401610562565b61113f816112b4565b50565b61114a61120b565b6001600160a01b0381166111925760405162461bcd60e51b815260206004820152600f60248201526e496e76616c6964206164647265737360881b6044820152606401610562565b60028054610100600160a81b0319166101006001600160a01b03841690810291909117909155600081815260076020908152604091829020805460ff1916600190811790915591519182527fcf0513c74b4d77095356357b35b5e34ac3424c008299b2cef0e805ee3c523275910160405180910390a250565b6000546001600160a01b031633146106f45760405163118cdaa760e01b8152336004820152602401610562565b60026001540361125b57604051633ee5aeb560e01b815260040160405180910390fd5b6002600155565b61126a6113d5565b6002805460ff191690557f5db9ee0a495bf2e6ff9c91a7834c1ba4fdd244a5e8aa4e537bd38aeae4b073aa335b6040516001600160a01b03909116815260200160405180910390a1565b600080546001600160a01b038381166001600160a01b0319831681178455604051919092169283917f8be0079c531659141344cd1fd0a4f28419497f9722a3daafe3b4186f6b6457e09190a35050565b60025460ff16156106f45760405163d93c066560e01b815260040160405180910390fd5b611330611304565b6002805460ff191660011790557f62e78cea01bee320cd4e420270b5ea74000d11b0c9f74754ebdbfc544b05a2586112973390565b600060038211156113c6575080600061137f600283611513565b61138a906001611535565b90505b818110156113c0579050806002816113a58186611513565b6113af9190611535565b6113b99190611513565b905061138d565b50919050565b81156113d0575060015b919050565b60025460ff166106f457604051638dfc202b60e01b815260040160405180910390fd5b80356001600160a01b03811681146113d057600080fd5b801515811461113f57600080fd5b6000806040838503121561143057600080fd5b611439836113f8565b915060208301356114498161140f565b809150509250929050565b60008060006060848603121561146957600080fd5b611472846113f8565b925060208401359150611487604085016113f8565b90509250925092565b6000602082840312156114a257600080fd5b5035919050565b600080604083850312156114bc57600080fd5b50508035926020909101359150565b6000602082840312156114dd57600080fd5b610aaa826113f8565b634e487b7160e01b600052601160045260246000fd5b80820281158282048414176110fe576110fe6114e6565b60008261153057634e487b7160e01b600052601260045260246000fd5b500490565b808201808211156110fe576110fe6114e6565b60006020828403121561155a57600080fd5b8151610aaa8161140f565b818103818111156110fe576110fe6114e6565b60006020828403121561158a57600080fd5b505191905056fea264697066735822122056074cd2a2cfe2720d4c530e3132a441e261dc37835a29ad1ede1d67454c2a1764736f6c63430008140033",
  "linkReferences": {},
  "deployedLinkReferences": {}
}