{
  "_format": "hh-sol-artifact-1",
  "contractName": "RWACustody",
  "sourceName": "contract/AllContracts.sol",
  "abi": [
    {
      "inputs": [],
      "stateMutability": "nonpayable",
      "type": "constructor"
    },
    {
      "inputs": [],
      "name": "AccessControlBadConfirmation",
      "type": "error"
    },
    {
      "inputs": [
        {
          "internalType": "address",
          "name": "account",
          "type": "address"
        },
        {
          "internalType": "bytes32",
          "name": "neededRole",
          "type": "bytes32"
        }
      ],
      "name": "AccessControlUnauthorizedAccount",
      "type": "error"
    },
    {
      "inputs": [],
      "name": "ReentrancyGuardReentrantCall",
      "type": "error"
    },
    {
      "anonymous": false,
      "inputs": [
        {
          "indexed": true,
          "internalType": "address",
          "name": "token",
          "type": "address"
        },
        {
          "indexed": true,
          "internalType": "address",
          "name": "user",
          "type": "address"
        },
        {
          "indexed": false,
          "internalType": "address",
          "name": "beneficiary",
          "type": "address"
        }
      ],
      "name": "BeneficiarySet",
      "type": "event"
    },
    {
      "anonymous": false,
      "inputs": [
        {
          "indexed": true,
          "internalType": "address",
          "name": "token",
          "type": "address"
        },
        {
          "indexed": true,
          "internalType": "address",
          "name": "user",
          "type": "address"
        },
        {
          "indexed": false,
          "internalType": "uint256",
          "name": "amount",
          "type": "uint256"
        }
      ],
      "name": "Deposited",
      "type": "event"
    },
    {
      "anonymous": false,
      "inputs": [
        {
          "indexed": true,
          "internalType": "address",
          "name": "token",
          "type": "address"
        },
        {
          "indexed": true,
          "internalType": "address",
          "name": "user",
          "type": "address"
        },
        {
          "indexed": false,
          "internalType": "uint256",
          "name": "unlockTime",
          "type": "uint256"
        }
      ],
      "name": "Locked",
      "type": "event"
    },
    {
      "anonymous": false,
      "inputs": [
        {
          "indexed": true,
          "internalType": "bytes32",
          "name": "role",
          "type": "bytes32"
        },
        {
          "indexed": true,
          "internalType": "bytes32",
          "name": "previousAdminRole",
          "type": "bytes32"
        },
        {
          "indexed": true,
          "internalType": "bytes32",
          "name": "newAdminRole",
          "type": "bytes32"
        }
      ],
      "name": "RoleAdminChanged",
      "type": "event"
    },
    {
      "anonymous": false,
      "inputs": [
        {
          "indexed": true,
          "internalType": "bytes32",
          "name": "role",
          "type": "bytes32"
        },
        {
          "indexed": true,
          "internalType": "address",
          "name": "account",
          "type": "address"
        },
        {
          "indexed": true,
          "internalType": "address",
          "name": "sender",
          "type": "address"
        }
      ],
      "name": "RoleGranted",
      "type": "event"
    },
    {
      "anonymous": false,
      "inputs": [
        {
          "indexed": true,
          "internalType": "bytes32",
          "name": "role",
          "type": "bytes32"
        },
        {
          "indexed": true,
          "internalType": "address",
          "name": "account",
          "type": "address"
        },
        {
          "indexed": true,
          "internalType": "address",
          "name": "sender",
          "type": "address"
        }
      ],
      "name": "RoleRevoked",
      "type": "event"
    },
    {
      "anonymous": false,
      "inputs": [
        {
          "indexed": true,
          "internalType": "address",
          "name": "token",
          "type": "address"
        },
        {
          "indexed": true,
          "internalType": "address",
          "name": "user",
          "type": "address"
        },
        {
          "indexed": false,
          "internalType": "uint256",
          "name": "amount",
          "type": "uint256"
        }
      ],
      "name": "Withdrawn",
      "type": "event"
    },
    {
      "inputs": [],
      "name": "CUSTODIAN_ROLE",
      "outputs": [
        {
          "internalType": "bytes32",
          "name": "",
          "type": "bytes32"
        }
      ],
      "stateMutability": "view",
      "type": "function"
    },
    {
      "inputs": [],
      "name": "DEFAULT_ADMIN_ROLE",
      "outputs": [
        {
          "internalType": "bytes32",
          "name": "",
          "type": "bytes32"
        }
      ],
      "stateMutability": "view",
      "type": "function"
    },
    {
      "inputs": [
        {
          "internalType": "address",
          "name": "",
          "type": "address"
        },
        {
          "internalType": "address",
          "name": "",
          "type": "address"
        }
      ],
      "name": "accounts",
      "outputs": [
        {
          "internalType": "uint256",
          "name": "balance",
          "type": "uint256"
        },
        {
          "internalType": "uint256",
          "name": "lockedUntil",
          "type": "uint256"
        },
        {
          "internalType": "address",
          "name": "beneficiary",
          "type": "address"
        },
        {
          "internalType": "bool",
          "name": "isActive",
          "type": "bool"
        }
      ],
      "stateMutability": "view",
      "type": "function"
    },
    {
      "inputs": [
        {
          "internalType": "address",
          "name": "token",
          "type": "address"
        },
        {
          "internalType": "uint256",
          "name": "amount",
          "type": "uint256"
        }
      ],
      "name": "deposit",
      "outputs": [],
      "stateMutability": "nonpayable",
      "type": "function"
    },
    {
      "inputs": [
        {
          "internalType": "address",
          "name": "token",
          "type": "address"
        },
        {
          "internalType": "address",
          "name": "user",
          "type": "address"
        },
        {
          "internalType": "uint256",
          "name": "amount",
          "type": "uint256"
        }
      ],
      "name": "emergencyWithdraw",
      "outputs": [],
      "stateMutability": "nonpayable",
      "type": "function"
    },
    {
      "inputs": [
        {
          "internalType": "bytes32",
          "name": "role",
          "type": "bytes32"
        }
      ],
      "name": "getRoleAdmin",
      "outputs": [
        {
          "internalType": "bytes32",
          "name": "",
          "type": "bytes32"
        }
      ],
      "stateMutability": "view",
      "type": "function"
    },
    {
      "inputs": [
        {
          "internalType": "bytes32",
          "name": "role",
          "type": "bytes32"
        },
        {
          "internalType": "address",
          "name": "account",
          "type": "address"
        }
      ],
      "name": "grantRole",
      "outputs": [],
      "stateMutability": "nonpayable",
      "type": "function"
    },
    {
      "inputs": [
        {
          "internalType": "bytes32",
          "name": "role",
          "type": "bytes32"
        },
        {
          "internalType": "address",
          "name": "account",
          "type": "address"
        }
      ],
      "name": "hasRole",
      "outputs": [
        {
          "internalType": "bool",
          "name": "",
          "type": "bool"
        }
      ],
      "stateMutability": "view",
      "type": "function"
    },
    {
      "inputs": [
        {
          "internalType": "address",
          "name": "token",
          "type": "address"
        },
        {
          "internalType": "uint256",
          "name": "unlockTime",
          "type": "uint256"
        }
      ],
      "name": "lockTokens",
      "outputs": [],
      "stateMutability": "nonpayable",
      "type": "function"
    },
    {
      "inputs": [
        {
          "internalType": "bytes32",
          "name": "role",
          "type": "bytes32"
        },
        {
          "internalType": "address",
          "name": "callerConfirmation",
          "type": "address"
        }
      ],
      "name": "renounceRole",
      "outputs": [],
      "stateMutability": "nonpayable",
      "type": "function"
    },
    {
      "inputs": [
        {
          "internalType": "bytes32",
          "name": "role",
          "type": "bytes32"
        },
        {
          "internalType": "address",
          "name": "account",
          "type": "address"
        }
      ],
      "name": "revokeRole",
      "outputs": [],
      "stateMutability": "nonpayable",
      "type": "function"
    },
    {
      "inputs": [
        {
          "internalType": "address",
          "name": "token",
          "type": "address"
        },
        {
          "internalType": "address",
          "name": "beneficiary",
          "type": "address"
        }
      ],
      "name": "setBeneficiary",
      "outputs": [],
      "stateMutability": "nonpayable",
      "type": "function"
    },
    {
      "inputs": [
        {
          "internalType": "bytes4",
          "name": "interfaceId",
          "type": "bytes4"
        }
      ],
      "name": "supportsInterface",
      "outputs": [
        {
          "internalType": "bool",
          "name": "",
          "type": "bool"
        }
      ],
      "stateMutability": "view",
      "type": "function"
    },
    {
      "inputs": [
        {
          "internalType": "address",
          "name": "token",
          "type": "address"
        },
        {
          "internalType": "uint256",
          "name": "amount",
          "type": "uint256"
        }
      ],
      "name": "withdraw",
      "outputs": [],
      "stateMutability": "nonpayable",
      "type": "function"
    }
  ],
  "bytecode": "0x608060405234801561001057600080fd5b50600160009081556100229033610053565b5061004d7fe28434228950b641dbbc0178de89daa359a87c6ee0d8399aeace52a98fe902b933610053565b506100e8565b60008281526001602090815260408083206001600160a01b038516845290915281205460ff166100de5760008381526001602081815260408084206001600160a01b0387168086529252808420805460ff19169093179092559051339286917f2f8788117e7eff1d82e926ec794901d17c78024a50270940304540a733656f0d9190a45060016100e2565b5060005b92915050565b610c1f806100f76000396000f3fe608060405234801561001057600080fd5b50600436106100ea5760003560e01c8063ad74b7751161008c578063d547741f11610066578063d547741f14610255578063e63ea40814610268578063f3fef3a31461027b578063f52564ec1461028e57600080fd5b8063ad74b7751461019f578063b1c255861461021b578063c79445d01461022e57600080fd5b806336568abe116100c857806336568abe1461015e57806347e7ef241461017157806391d1485414610184578063a217fddf1461019757600080fd5b806301ffc9a7146100ef578063248a9ca3146101175780632f2ff15d14610149575b600080fd5b6101026100fd366004610a69565b6102a1565b60405190151581526020015b60405180910390f35b61013b610125366004610a9a565b6000908152600160208190526040909120015490565b60405190815260200161010e565b61015c610157366004610acf565b6102d8565b005b61015c61016c366004610acf565b610304565b61015c61017f366004610afb565b61033c565b610102610192366004610acf565b6104a9565b61013b600081565b6101ea6101ad366004610b25565b600260208181526000938452604080852090915291835291208054600182015491909201546001600160a01b03811690600160a01b900460ff1684565b60405161010e949392919093845260208401929092526001600160a01b031660408301521515606082015260800190565b61015c610229366004610afb565b6104d4565b61013b7fe28434228950b641dbbc0178de89daa359a87c6ee0d8399aeace52a98fe902b981565b61015c610263366004610acf565b6105bc565b61015c610276366004610b4f565b6105e2565b61015c610289366004610afb565b61070d565b61015c61029c366004610b25565b610853565b60006001600160e01b03198216637965db0b60e01b14806102d257506301ffc9a760e01b6001600160e01b03198316145b92915050565b600082815260016020819052604090912001546102f481610913565b6102fe8383610920565b50505050565b6001600160a01b038116331461032d5760405163334bd91960e11b815260040160405180910390fd5b6103378282610999565b505050565b610344610a06565b6000811161038a5760405162461bcd60e51b815260206004820152600e60248201526d125b9d985b1a5908185b5bdd5b9d60921b60448201526064015b60405180910390fd5b6040516323b872dd60e01b8152336004820152306024820152604481018290526001600160a01b038316906323b872dd906064016020604051808303816000875af11580156103dd573d6000803e3d6000fd5b505050506040513d601f19601f820116820180604052508101906104019190610b8b565b506001600160a01b03821660009081526002602090815260408083203384529091528120805490918391839190610439908490610bc3565b909155505060028101805460ff60a01b1916600160a01b17905560405133906001600160a01b038516907f8752a472e571a816aea92eec8dae9baf628e840f4929fbcc2d155e6233ff68a7906104929086815260200190565b60405180910390a3506104a56001600055565b5050565b60009182526001602090815260408084206001600160a01b0393909316845291905290205460ff1690565b4281116105125760405162461bcd60e51b815260206004820152600c60248201526b496e76616c69642074696d6560a01b6044820152606401610381565b6001600160a01b0382166000908152600260209081526040808320338452909152902080546105705760405162461bcd60e51b815260206004820152600a6024820152694e6f2062616c616e636560b01b6044820152606401610381565b6001810182905560405182815233906001600160a01b038516907f989eaa915cbb416ea3d6f9a63b1a3de51770c7674b11fe21ecdf76b4e1d139109060200160405180910390a3505050565b600082815260016020819052604090912001546105d881610913565b6102fe8383610999565b7fe28434228950b641dbbc0178de89daa359a87c6ee0d8399aeace52a98fe902b961060c81610913565b6001600160a01b03808516600090815260026020908152604080832093871683529290522080548311156106795760405162461bcd60e51b8152602060048201526014602482015273496e73756666696369656e742062616c616e636560601b6044820152606401610381565b8281600001600082825461068d9190610bd6565b909155505060405163a9059cbb60e01b81526001600160a01b0385811660048301526024820185905286169063a9059cbb906044016020604051808303816000875af11580156106e1573d6000803e3d6000fd5b505050506040513d601f19601f820116820180604052508101906107059190610b8b565b505050505050565b610715610a06565b6001600160a01b038216600090815260026020908152604080832033845290915290208054821180159061074d575080600101544210155b61078b5760405162461bcd60e51b815260206004820152600f60248201526e43616e6e6f7420776974686472617760881b6044820152606401610381565b8181600001600082825461079f9190610bd6565b909155505060405163a9059cbb60e01b8152336004820152602481018390526001600160a01b0384169063a9059cbb906044016020604051808303816000875af11580156107f1573d6000803e3d6000fd5b505050506040513d601f19601f820116820180604052508101906108159190610b8b565b5060405182815233906001600160a01b038516907fd1c19fbcd4551a5edfb66d43d2e337c04837afda3482b42bdf569a8fccdae5fb90602001610492565b6001600160a01b03811661089f5760405162461bcd60e51b8152602060048201526013602482015272496e76616c69642062656e656669636961727960681b6044820152606401610381565b6001600160a01b038281166000818152600260208181526040808420338086529083529381902090920180546001600160a01b0319169587169586179055905193845290927f2dfd640b61a699633aec6499f213f6f1c6f053a80c0ab0ef2d911a3bd98a48e7910160405180910390a35050565b61091d8133610a30565b50565b600061092c83836104a9565b6109915760008381526001602081815260408084206001600160a01b0387168086529252808420805460ff19169093179092559051339286917f2f8788117e7eff1d82e926ec794901d17c78024a50270940304540a733656f0d9190a45060016102d2565b5060006102d2565b60006109a583836104a9565b156109915760008381526001602090815260408083206001600160a01b0386168085529252808320805460ff1916905551339286917ff6391f5c32d9c69d2a47ea670b442974b53935d1edc7fd64eb21e047a839171b9190a45060016102d2565b600260005403610a2957604051633ee5aeb560e01b815260040160405180910390fd5b6002600055565b610a3a82826104a9565b6104a55760405163e2517d3f60e01b81526001600160a01b038216600482015260248101839052604401610381565b600060208284031215610a7b57600080fd5b81356001600160e01b031981168114610a9357600080fd5b9392505050565b600060208284031215610aac57600080fd5b5035919050565b80356001600160a01b0381168114610aca57600080fd5b919050565b60008060408385031215610ae257600080fd5b82359150610af260208401610ab3565b90509250929050565b60008060408385031215610b0e57600080fd5b610b1783610ab3565b946020939093013593505050565b60008060408385031215610b3857600080fd5b610b4183610ab3565b9150610af260208401610ab3565b600080600060608486031215610b6457600080fd5b610b6d84610ab3565b9250610b7b60208501610ab3565b9150604084013590509250925092565b600060208284031215610b9d57600080fd5b81518015158114610a9357600080fd5b634e487b7160e01b600052601160045260246000fd5b808201808211156102d2576102d2610bad565b818103818111156102d2576102d2610bad56fea2646970667358221220f715d3d9fa24a11d406d19ac9f5b2aa4078ac523cfefb55a643121e758f9f01064736f6c63430008140033",
  "linkReferences": {},
  "deployedLinkReferences": {}
}