{
  "_format": "hh-sol-artifact-1",
  "contractName": "ShopToken",
  "sourceName": "contract/AllContracts.sol",
  "abi": [
    {
      "inputs": [],
      "stateMutability": "nonpayable",
      "type": "constructor"
    },
    {
      "inputs": [
        {
          "internalType": "address",
          "name": "spender",
          "type": "address"
        },
        {
          "internalType": "uint256",
          "name": "allowance",
          "type": "uint256"
        },
        {
          "internalType": "uint256",
          "name": "needed",
          "type": "uint256"
        }
      ],
      "name": "ERC20InsufficientAllowance",
      "type": "error"
    },
    {
      "inputs": [
        {
          "internalType": "address",
          "name": "sender",
          "type": "address"
        },
        {
          "internalType": "uint256",
          "name": "balance",
          "type": "uint256"
        },
        {
          "internalType": "uint256",
          "name": "needed",
          "type": "uint256"
        }
      ],
      "name": "ERC20InsufficientBalance",
      "type": "error"
    },
    {
      "inputs": [
        {
          "internalType": "address",
          "name": "approver",
          "type": "address"
        }
      ],
      "name": "ERC20InvalidApprover",
      "type": "error"
    },
    {
      "inputs": [
        {
          "internalType": "address",
          "name": "receiver",
          "type": "address"
        }
      ],
      "name": "ERC20InvalidReceiver",
      "type": "error"
    },
    {
      "inputs": [
        {
          "internalType": "address",
          "name": "sender",
          "type": "address"
        }
      ],
      "name": "ERC20InvalidSender",
      "type": "error"
    },
    {
      "inputs": [
        {
          "internalType": "address",
          "name": "spender",
          "type": "address"
        }
      ],
      "name": "ERC20InvalidSpender",
      "type": "error"
    },
    {
      "inputs": [
        {
          "internalType": "address",
          "name": "owner",
          "type": "address"
        }
      ],
      "name": "OwnableInvalidOwner",
      "type": "error"
    },
    {
      "inputs": [
        {
          "internalType": "address",
          "name": "account",
          "type": "address"
        }
      ],
      "name": "OwnableUnauthorizedAccount",
      "type": "error"
    },
    {
      "anonymous": false,
      "inputs": [
        {
          "indexed": true,
          "internalType": "address",
          "name": "owner",
          "type": "address"
        },
        {
          "indexed": true,
          "internalType": "address",
          "name": "spender",
          "type": "address"
        },
        {
          "indexed": false,
          "internalType": "uint256",
          "name": "value",
          "type": "uint256"
        }
      ],
      "name": "Approval",
      "type": "event"
    },
    {
      "anonymous": false,
      "inputs": [
        {
          "indexed": true,
          "internalType": "address",
          "name": "previousOwner",
          "type": "address"
        },
        {
          "indexed": true,
          "internalType": "address",
          "name": "newOwner",
          "type": "address"
        }
      ],
      "name": "OwnershipTransferred",
      "type": "event"
    },
    {
      "anonymous": false,
      "inputs": [
        {
          "indexed": true,
          "internalType": "address",
          "name": "from",
          "type": "address"
        },
        {
          "indexed": true,
          "internalType": "address",
          "name": "to",
          "type": "address"
        },
        {
          "indexed": false,
          "internalType": "uint256",
          "name": "value",
          "type": "uint256"
        }
      ],
      "name": "Transfer",
      "type": "event"
    },
    {
      "inputs": [],
      "name": "MAX_SUPPLY",
      "outputs": [
        {
          "internalType": "uint256",
          "name": "",
          "type": "uint256"
        }
      ],
      "stateMutability": "view",
      "type": "function"
    },
    {
      "inputs": [
        {
          "internalType": "address",
          "name": "owner",
          "type": "address"
        },
        {
          "internalType": "address",
          "name": "spender",
          "type": "address"
        }
      ],
      "name": "allowance",
      "outputs": [
        {
          "internalType": "uint256",
          "name": "",
          "type": "uint256"
        }
      ],
      "stateMutability": "view",
      "type": "function"
    },
    {
      "inputs": [
        {
          "internalType": "address",
          "name": "spender",
          "type": "address"
        },
        {
          "internalType": "uint256",
          "name": "value",
          "type": "uint256"
        }
      ],
      "name": "approve",
      "outputs": [
        {
          "internalType": "bool",
          "name": "",
          "type": "bool"
        }
      ],
      "stateMutability": "nonpayable",
      "type": "function"
    },
    {
      "inputs": [
        {
          "internalType": "address",
          "name": "account",
          "type": "address"
        }
      ],
      "name": "balanceOf",
      "outputs": [
        {
          "internalType": "uint256",
          "name": "",
          "type": "uint256"
        }
      ],
      "stateMutability": "view",
      "type": "function"
    },
    {
      "inputs": [
        {
          "internalType": "uint256",
          "name": "amount",
          "type": "uint256"
        }
      ],
      "name": "burn",
      "outputs": [],
      "stateMutability": "nonpayable",
      "type": "function"
    },
    {
      "inputs": [],
      "name": "decimals",
      "outputs": [
        {
          "internalType": "uint8",
          "name": "",
          "type": "uint8"
        }
      ],
      "stateMutability": "view",
      "type": "function"
    },
    {
      "inputs": [
        {
          "internalType": "address",
          "name": "to",
          "type": "address"
        },
        {
          "internalType": "uint256",
          "name": "amount",
          "type": "uint256"
        }
      ],
      "name": "mint",
      "outputs": [],
      "stateMutability": "nonpayable",
      "type": "function"
    },
    {
      "inputs": [],
      "name": "name",
      "outputs": [
        {
          "internalType": "string",
          "name": "",
          "type": "string"
        }
      ],
      "stateMutability": "view",
      "type": "function"
    },
    {
      "inputs": [],
      "name": "owner",
      "outputs": [
        {
          "internalType": "address",
          "name": "",
          "type": "address"
        }
      ],
      "stateMutability": "view",
      "type": "function"
    },
    {
      "inputs": [],
      "name": "renounceOwnership",
      "outputs": [],
      "stateMutability": "nonpayable",
      "type": "function"
    },
    {
      "inputs": [
        {
          "internalType": "address",
          "name": "_yieldShopContract",
          "type": "address"
        }
      ],
      "name": "setYieldShopContract",
      "outputs": [],
      "stateMutability": "nonpayable",
      "type": "function"
    },
    {
      "inputs": [],
      "name": "symbol",
      "outputs": [
        {
          "internalType": "string",
          "name": "",
          "type": "string"
        }
      ],
      "stateMutability": "view",
      "type": "function"
    },
    {
      "inputs": [],
      "name": "totalSupply",
      "outputs": [
        {
          "internalType": "uint256",
          "name": "",
          "type": "uint256"
        }
      ],
      "stateMutability": "view",
      "type": "function"
    },
    {
      "inputs": [
        {
          "internalType": "address",
          "name": "to",
          "type": "address"
        },
        {
          "internalType": "uint256",
          "name": "value",
          "type": "uint256"
        }
      ],
      "name": "transfer",
      "outputs": [
        {
          "internalType": "bool",
          "name": "",
          "type": "bool"
        }
      ],
      "stateMutability": "nonpayable",
      "type": "function"
    },
    {
      "inputs": [
        {
          "internalType": "address",
          "name": "from",
          "type": "address"
        },
        {
          "internalType": "address",
          "name": "to",
          "type": "address"
        },
        {
          "internalType": "uint256",
          "name": "value",
          "type": "uint256"
        }
      ],
      "name": "transferFrom",
      "outputs": [
        {
          "internalType": "bool",
          "name": "",
          "type": "bool"
        }
      ],
      "stateMutability": "nonpayable",
      "type": "function"
    },
    {
      "inputs": [
        {
          "internalType": "address",
          "name": "newOwner",
          "type": "address"
        }
      ],
      "name": "transferOwnership",
      "outputs": [],
      "stateMutability": "nonpayable",
      "type": "function"
    },
    {
      "inputs": [],
      "name": "yieldShopContract",
      "outputs": [
        {
          "internalType": "address",
          "name": "",
          "type": "address"
        }
      ],
      "stateMutability": "view",
      "type": "function"
    }
  ],
  "bytecode": "0x60806040523480156200001157600080fd5b50336040518060400160405280600f81526020016e2cb4b2b63229b437b8102a37b5b2b760891b81525060405180604001604052806004815260200163053484f560e41b8152508160039081620000699190620001b3565b506004620000788282620001b3565b5050506001600160a01b038116620000aa57604051631e4fbdf760e01b81526000600482015260240160405180910390fd5b620000b581620000bc565b506200027f565b600580546001600160a01b038381166001600160a01b0319831681179093556040519116919082907f8be0079c531659141344cd1fd0a4f28419497f9722a3daafe3b4186f6b6457e090600090a35050565b634e487b7160e01b600052604160045260246000fd5b600181811c908216806200013957607f821691505b6020821081036200015a57634e487b7160e01b600052602260045260246000fd5b50919050565b601f821115620001ae57600081815260208120601f850160051c81016020861015620001895750805b601f850160051c820191505b81811015620001aa5782815560010162000195565b5050505b505050565b81516001600160401b03811115620001cf57620001cf6200010e565b620001e781620001e0845462000124565b8462000160565b602080601f8311600181146200021f5760008415620002065750858301515b600019600386901b1c1916600185901b178555620001aa565b600085815260208120601f198616915b8281101562000250578886015182559484019460019091019084016200022f565b50858210156200026f5787850151600019600388901b60f8161c191681555b5050505050600190811b01905550565b610b24806200028f6000396000f3fe608060405234801561001057600080fd5b506004361061010b5760003560e01c806370a08231116100a257806395d89b411161007157806395d89b411461022d578063a9059cbb14610235578063dd62ed3e14610248578063f2fde38b14610281578063fec204011461029457600080fd5b806370a08231146101c0578063715018a6146101e95780637feb54c8146101f15780638da5cb5b1461021c57600080fd5b8063313ce567116100de578063313ce5671461017657806332cb6b0c1461018557806340c10f191461019857806342966c68146101ad57600080fd5b806306fdde0314610110578063095ea7b31461012e57806318160ddd1461015157806323b872dd14610163575b600080fd5b6101186102a7565b6040516101259190610955565b60405180910390f35b61014161013c3660046109bf565b610339565b6040519015158152602001610125565b6002545b604051908152602001610125565b6101416101713660046109e9565b610353565b60405160128152602001610125565b6101556b033b2e3c9fd0803ce800000081565b6101ab6101a63660046109bf565b610377565b005b6101ab6101bb366004610a25565b610449565b6101556101ce366004610a3e565b6001600160a01b031660009081526020819052604090205490565b6101ab610456565b600654610204906001600160a01b031681565b6040516001600160a01b039091168152602001610125565b6005546001600160a01b0316610204565b61011861046a565b6101416102433660046109bf565b610479565b610155610256366004610a60565b6001600160a01b03918216600090815260016020908152604080832093909416825291909152205490565b6101ab61028f366004610a3e565b610487565b6101ab6102a2366004610a3e565b6104c2565b6060600380546102b690610a93565b80601f01602080910402602001604051908101604052809291908181526020018280546102e290610a93565b801561032f5780601f106103045761010080835404028352916020019161032f565b820191906000526020600020905b81548152906001019060200180831161031257829003601f168201915b5050505050905090565b60003361034781858561057b565b60019150505b92915050565b60003361036185828561058d565b61036c85858561060c565b506001949350505050565b6006546001600160a01b031633146103d65760405162461bcd60e51b815260206004820152601760248201527f4f6e6c79205969656c6453686f702063616e206d696e7400000000000000000060448201526064015b60405180910390fd5b6b033b2e3c9fd0803ce8000000816103ed60025490565b6103f79190610acd565b111561043b5760405162461bcd60e51b815260206004820152601360248201527213585e081cdd5c1c1b1e48195e18d959591959606a1b60448201526064016103cd565b610445828261066b565b5050565b61045333826106a1565b50565b61045e6106d7565b6104686000610704565b565b6060600480546102b690610a93565b60003361034781858561060c565b61048f6106d7565b6001600160a01b0381166104b957604051631e4fbdf760e01b8152600060048201526024016103cd565b61045381610704565b6104ca6106d7565b6006546001600160a01b0316156105115760405162461bcd60e51b815260206004820152600b60248201526a105b1c9958591e481cd95d60aa1b60448201526064016103cd565b6001600160a01b0381166105595760405162461bcd60e51b815260206004820152600f60248201526e496e76616c6964206164647265737360881b60448201526064016103cd565b600680546001600160a01b0319166001600160a01b0392909216919091179055565b6105888383836001610756565b505050565b6001600160a01b0383811660009081526001602090815260408083209386168352929052205460001981101561060657818110156105f757604051637dc7a0d960e11b81526001600160a01b038416600482015260248101829052604481018390526064016103cd565b61060684848484036000610756565b50505050565b6001600160a01b03831661063657604051634b637e8f60e11b8152600060048201526024016103cd565b6001600160a01b0382166106605760405163ec442f0560e01b8152600060048201526024016103cd565b61058883838361082b565b6001600160a01b0382166106955760405163ec442f0560e01b8152600060048201526024016103cd565b6104456000838361082b565b6001600160a01b0382166106cb57604051634b637e8f60e11b8152600060048201526024016103cd565b6104458260008361082b565b6005546001600160a01b031633146104685760405163118cdaa760e01b81523360048201526024016103cd565b600580546001600160a01b038381166001600160a01b0319831681179093556040519116919082907f8be0079c531659141344cd1fd0a4f28419497f9722a3daafe3b4186f6b6457e090600090a35050565b6001600160a01b0384166107805760405163e602df0560e01b8152600060048201526024016103cd565b6001600160a01b0383166107aa57604051634a1406b160e11b8152600060048201526024016103cd565b6001600160a01b038085166000908152600160209081526040808320938716835292905220829055801561060657826001600160a01b0316846001600160a01b03167f8c5be1e5ebec7d5bd14f71427d1e84f3dd0314c0f7b2291e5b200ac8c7c3b9258460405161081d91815260200190565b60405180910390a350505050565b6001600160a01b03831661085657806002600082825461084b9190610acd565b909155506108c89050565b6001600160a01b038316600090815260208190526040902054818110156108a95760405163391434e360e21b81526001600160a01b038516600482015260248101829052604481018390526064016103cd565b6001600160a01b03841660009081526020819052604090209082900390555b6001600160a01b0382166108e457600280548290039055610903565b6001600160a01b03821660009081526020819052604090208054820190555b816001600160a01b0316836001600160a01b03167fddf252ad1be2c89b69c2b068fc378daa952ba7f163c4a11628f55a4df523b3ef8360405161094891815260200190565b60405180910390a3505050565b600060208083528351808285015260005b8181101561098257858101830151858201604001528201610966565b506000604082860101526040601f19601f8301168501019250505092915050565b80356001600160a01b03811681146109ba57600080fd5b919050565b600080604083850312156109d257600080fd5b6109db836109a3565b946020939093013593505050565b6000806000606084860312156109fe57600080fd5b610a07846109a3565b9250610a15602085016109a3565b9150604084013590509250925092565b600060208284031215610a3757600080fd5b5035919050565b600060208284031215610a5057600080fd5b610a59826109a3565b9392505050565b60008060408385031215610a7357600080fd5b610a7c836109a3565b9150610a8a602084016109a3565b90509250929050565b600181811c90821680610aa757607f821691505b602082108103610ac757634e487b7160e01b600052602260045260246000fd5b50919050565b8082018082111561034d57634e487b7160e01b600052601160045260246000fdfea26469706673582212209e9f5d1c5d06ecc95334a611b35186b881250bdd62c221dc87d188904038f31964736f6c63430008140033",
  "linkReferences": {},
  "deployedLinkReferences": {}
}