{
  "_format": "hh-sol-artifact-1",
  "contractName": "YieldDistributor",
  "sourceName": "contract/AllContracts.sol",
  "abi": [
    {
      "inputs": [
        {
          "internalType": "address",
          "name": "_yieldToken",
          "type": "address"
        }
      ],
      "stateMutability": "nonpayable",
      "type": "constructor"
    },
    {
      "inputs": [],
      "name": "AccessControlBadConfirmation",
      "type": "error"
    },
    {
      "inputs": [
        {
          "internalType": "address",
          "name": "account",
          "type": "address"
        },
        {
          "internalType": "bytes32",
          "name": "neededRole",
          "type": "bytes32"
        }
      ],
      "name": "AccessControlUnauthorizedAccount",
      "type": "error"
    },
    {
      "inputs": [],
      "name": "ReentrancyGuardReentrantCall",
      "type": "error"
    },
    {
      "anonymous": false,
      "inputs": [
        {
          "indexed": true,
          "internalType": "uint256",
          "name": "id",
          "type": "uint256"
        },
        {
          "indexed": true,
          "internalType": "address",
          "name": "token",
          "type": "address"
        },
        {
          "indexed": false,
          "internalType": "uint256",
          "name": "amount",
          "type": "uint256"
        }
      ],
      "name": "DistributionCreated",
      "type": "event"
    },
    {
      "anonymous": false,
      "inputs": [
        {
          "indexed": true,
          "internalType": "bytes32",
          "name": "role",
          "type": "bytes32"
        },
        {
          "indexed": true,
          "internalType": "bytes32",
          "name": "previousAdminRole",
          "type": "bytes32"
        },
        {
          "indexed": true,
          "internalType": "bytes32",
          "name": "newAdminRole",
          "type": "bytes32"
        }
      ],
      "name": "RoleAdminChanged",
      "type": "event"
    },
    {
      "anonymous": false,
      "inputs": [
        {
          "indexed": true,
          "internalType": "bytes32",
          "name": "role",
          "type": "bytes32"
        },
        {
          "indexed": true,
          "internalType": "address",
          "name": "account",
          "type": "address"
        },
        {
          "indexed": true,
          "internalType": "address",
          "name": "sender",
          "type": "address"
        }
      ],
      "name": "RoleGranted",
      "type": "event"
    },
    {
      "anonymous": false,
      "inputs": [
        {
          "indexed": true,
          "internalType": "bytes32",
          "name": "role",
          "type": "bytes32"
        },
        {
          "indexed": true,
          "internalType": "address",
          "name": "account",
          "type": "address"
        },
        {
          "indexed": true,
          "internalType": "address",
          "name": "sender",
          "type": "address"
        }
      ],
      "name": "RoleRevoked",
      "type": "event"
    },
    {
      "anonymous": false,
      "inputs": [
        {
          "indexed": true,
          "internalType": "uint256",
          "name": "distributionId",
          "type": "uint256"
        },
        {
          "indexed": true,
          "internalType": "address",
          "name": "user",
          "type": "address"
        },
        {
          "indexed": false,
          "internalType": "uint256",
          "name": "amount",
          "type": "uint256"
        }
      ],
      "name": "YieldClaimed",
      "type": "event"
    },
    {
      "inputs": [],
      "name": "DEFAULT_ADMIN_ROLE",
      "outputs": [
        {
          "internalType": "bytes32",
          "name": "",
          "type": "bytes32"
        }
      ],
      "stateMutability": "view",
      "type": "function"
    },
    {
      "inputs": [],
      "name": "DISTRIBUTOR_ROLE",
      "outputs": [
        {
          "internalType": "bytes32",
          "name": "",
          "type": "bytes32"
        }
      ],
      "stateMutability": "view",
      "type": "function"
    },
    {
      "inputs": [
        {
          "internalType": "uint256",
          "name": "distributionId",
          "type": "uint256"
        }
      ],
      "name": "claimYield",
      "outputs": [],
      "stateMutability": "nonpayable",
      "type": "function"
    },
    {
      "inputs": [
        {
          "internalType": "uint256",
          "name": "",
          "type": "uint256"
        },
        {
          "internalType": "address",
          "name": "",
          "type": "address"
        }
      ],
      "name": "claims",
      "outputs": [
        {
          "internalType": "uint256",
          "name": "claimableAmount",
          "type": "uint256"
        },
        {
          "internalType": "uint256",
          "name": "claimedAmount",
          "type": "uint256"
        },
        {
          "internalType": "uint256",
          "name": "lastClaimTime",
          "type": "uint256"
        }
      ],
      "stateMutability": "view",
      "type": "function"
    },
    {
      "inputs": [
        {
          "internalType": "address",
          "name": "token",
          "type": "address"
        },
        {
          "internalType": "uint256",
          "name": "totalYield",
          "type": "uint256"
        }
      ],
      "name": "createDistribution",
      "outputs": [
        {
          "internalType": "uint256",
          "name": "",
          "type": "uint256"
        }
      ],
      "stateMutability": "nonpayable",
      "type": "function"
    },
    {
      "inputs": [
        {
          "internalType": "uint256",
          "name": "",
          "type": "uint256"
        }
      ],
      "name": "distributions",
      "outputs": [
        {
          "internalType": "uint256",
          "name": "id",
          "type": "uint256"
        },
        {
          "internalType": "address",
          "name": "token",
          "type": "address"
        },
        {
          "internalType": "uint256",
          "name": "totalYield",
          "type": "uint256"
        },
        {
          "internalType": "uint256",
          "name": "timestamp",
          "type": "uint256"
        },
        {
          "internalType": "uint256",
          "name": "snapshotBlock",
          "type": "uint256"
        },
        {
          "internalType": "bool",
          "name": "executed",
          "type": "bool"
        }
      ],
      "stateMutability": "view",
      "type": "function"
    },
    {
      "inputs": [
        {
          "internalType": "uint256",
          "name": "distributionId",
          "type": "uint256"
        },
        {
          "internalType": "address",
          "name": "user",
          "type": "address"
        }
      ],
      "name": "getClaimable",
      "outputs": [
        {
          "internalType": "uint256",
          "name": "",
          "type": "uint256"
        }
      ],
      "stateMutability": "view",
      "type": "function"
    },
    {
      "inputs": [
        {
          "internalType": "bytes32",
          "name": "role",
          "type": "bytes32"
        }
      ],
      "name": "getRoleAdmin",
      "outputs": [
        {
          "internalType": "bytes32",
          "name": "",
          "type": "bytes32"
        }
      ],
      "stateMutability": "view",
      "type": "function"
    },
    {
      "inputs": [
        {
          "internalType": "bytes32",
          "name": "role",
          "type": "bytes32"
        },
        {
          "internalType": "address",
          "name": "account",
          "type": "address"
        }
      ],
      "name": "grantRole",
      "outputs": [],
      "stateMutability": "nonpayable",
      "type": "function"
    },
    {
      "inputs": [
        {
          "internalType": "bytes32",
          "name": "role",
          "type": "bytes32"
        },
        {
          "internalType": "address",
          "name": "account",
          "type": "address"
        }
      ],
      "name": "hasRole",
      "outputs": [
        {
          "internalType": "bool",
          "name": "",
          "type": "bool"
        }
      ],
      "stateMutability": "view",
      "type": "function"
    },
    {
      "inputs": [
        {
          "internalType": "uint256",
          "name": "distributionId",
          "type": "uint256"
        }
      ],
      "name": "markExecuted",
      "outputs": [],
      "stateMutability": "nonpayable",
      "type": "function"
    },
    {
      "inputs": [],
      "name": "nextDistributionId",
      "outputs": [
        {
          "internalType": "uint256",
          "name": "",
          "type": "uint256"
        }
      ],
      "stateMutability": "view",
      "type": "function"
    },
    {
      "inputs": [
        {
          "internalType": "bytes32",
          "name": "role",
          "type": "bytes32"
        },
        {
          "internalType": "address",
          "name": "callerConfirmation",
          "type": "address"
        }
      ],
      "name": "renounceRole",
      "outputs": [],
      "stateMutability": "nonpayable",
      "type": "function"
    },
    {
      "inputs": [
        {
          "internalType": "bytes32",
          "name": "role",
          "type": "bytes32"
        },
        {
          "internalType": "address",
          "name": "account",
          "type": "address"
        }
      ],
      "name": "revokeRole",
      "outputs": [],
      "stateMutability": "nonpayable",
      "type": "function"
    },
    {
      "inputs": [
        {
          "internalType": "uint256",
          "name": "distributionId",
          "type": "uint256"
        },
        {
          "internalType": "address[]",
          "name": "users",
          "type": "address[]"
        },
        {
          "internalType": "uint256[]",
          "name": "amounts",
          "type": "uint256[]"
        }
      ],
      "name": "setClaimableAmounts",
      "outputs": [],
      "stateMutability": "nonpayable",
      "type": "function"
    },
    {
      "inputs": [
        {
          "internalType": "bytes4",
          "name": "interfaceId",
          "type": "bytes4"
        }
      ],
      "name": "supportsInterface",
      "outputs": [
        {
          "internalType": "bool",
          "name": "",
          "type": "bool"
        }
      ],
      "stateMutability": "view",
      "type": "function"
    },
    {
      "inputs": [],
      "name": "yieldToken",
      "outputs": [
        {
          "internalType": "contract IERC20",
          "name": "",
          "type": "address"
        }
      ],
      "stateMutability": "view",
      "type": "function"
    }
  ],
  "bytecode": "0x608060405234801561001057600080fd5b50604051610e3c380380610e3c83398101604081905261002f91610126565b600160009081556100409033610091565b5061006b7ffbd454f36a7e1a388bd6fc3ab10d434aa4578f811acbbcf33afb1c697486313c33610091565b50600580546001600160a01b0319166001600160a01b0392909216919091179055610156565b60008281526001602090815260408083206001600160a01b038516845290915281205460ff1661011c5760008381526001602081815260408084206001600160a01b0387168086529252808420805460ff19169093179092559051339286917f2f8788117e7eff1d82e926ec794901d17c78024a50270940304540a733656f0d9190a4506001610120565b5060005b92915050565b60006020828403121561013857600080fd5b81516001600160a01b038116811461014f57600080fd5b9392505050565b610cd7806101656000396000f3fe608060405234801561001057600080fd5b506004361061010b5760003560e01c806376d5de85116100a2578063a217fddf11610071578063a217fddf146102f1578063b961cbe1146102f9578063d547741f1461030c578063f0bd87cc1461031f578063f64051191461033457600080fd5b806376d5de8514610297578063795be4b9146102c257806391d14854146102cb5780639d6a261a146102de57600080fd5b80632f2ff15d116100de5780632f2ff15d146101d457806336568abe146101e757806340bd2e23146101fa5780634487d3df1461020d57600080fd5b806301ffc9a7146101105780631da4c66b146101385780631f1b670e1461018d578063248a9ca3146101a2575b600080fd5b61012361011e366004610a57565b610347565b60405190151581526020015b60405180910390f35b610172610146366004610aa4565b600460209081526000928352604080842090915290825290208054600182015460029092015490919083565b6040805193845260208401929092529082015260600161012f565b6101a061019b366004610b1c565b61037e565b005b6101c66101b0366004610b96565b6000908152600160208190526040909120015490565b60405190815260200161012f565b6101a06101e2366004610aa4565b610487565b6101a06101f5366004610aa4565b6104b3565b6101a0610208366004610b96565b6104eb565b61026061021b366004610b96565b600360208190526000918252604090912080546001820154600283015493830154600484015460059094015492946001600160a01b0390921693919290919060ff1686565b604080519687526001600160a01b0390951660208701529385019290925260608401526080830152151560a082015260c00161012f565b6005546102aa906001600160a01b031681565b6040516001600160a01b03909116815260200161012f565b6101c660025481565b6101236102d9366004610aa4565b610640565b6101c66102ec366004610baf565b61066b565b6101c6600081565b6101c6610307366004610aa4565b610849565b6101a061031a366004610aa4565b6108a3565b6101c6600080516020610c8283398151915281565b6101a0610342366004610b96565b6108c9565b60006001600160e01b03198216637965db0b60e01b148061037857506301ffc9a760e01b6001600160e01b03198316145b92915050565b600080516020610c8283398151915261039681610900565b83821480156103b7575060008681526003602052604090206005015460ff16155b6103f25760405162461bcd60e51b8152602060048201526007602482015266125b9d985b1a5960ca1b60448201526064015b60405180910390fd5b60005b8481101561047e5783838281811061040f5761040f610bd9565b9050602002013560046000898152602001908152602001600020600088888581811061043d5761043d610bd9565b90506020020160208101906104529190610bef565b6001600160a01b031681526020810191909152604001600020558061047681610c20565b9150506103f5565b50505050505050565b600082815260016020819052604090912001546104a381610900565b6104ad838361090a565b50505050565b6001600160a01b03811633146104dc5760405163334bd91960e11b815260040160405180910390fd5b6104e68282610983565b505050565b6104f36109f0565b60008181526004602090815260408083203384529091528120600181015481549192916105209190610c39565b9050600081116105655760405162461bcd60e51b815260206004820152601060248201526f4e6f7468696e6720746f20636c61696d60801b60448201526064016103e9565b808260010160008282546105799190610c4c565b909155505042600283015560055460405163a9059cbb60e01b8152336004820152602481018390526001600160a01b039091169063a9059cbb906044016020604051808303816000875af11580156105d5573d6000803e3d6000fd5b505050506040513d601f19601f820116820180604052508101906105f99190610c5f565b50604051818152339084907f1448cb68839238fd008abe5bad73d996f9849e020313466fa9f3476d98006df29060200160405180910390a3505061063d6001600055565b50565b60009182526001602090815260408084206001600160a01b0393909316845291905290205460ff1690565b6000600080516020610c8283398151915261068581610900565b600083116106c65760405162461bcd60e51b815260206004820152600e60248201526d125b9d985b1a5908185b5bdd5b9d60921b60448201526064016103e9565b6005546040516323b872dd60e01b8152336004820152306024820152604481018590526001600160a01b03909116906323b872dd906064016020604051808303816000875af115801561071d573d6000803e3d6000fd5b505050506040513d601f19601f820116820180604052508101906107419190610c5f565b50600280546000918261075383610c20565b9190505590506040518060c00160405280828152602001866001600160a01b031681526020018581526020014281526020016001436107929190610c39565b815260006020918201819052838152600380835260409182902084518155848401516001820180546001600160a01b0319166001600160a01b039283161790558584015160028301556060860151928201929092556080850151600482015560a0909401516005909401805460ff191694151594909417909355518681529187169183917fd120877de59fd387dfa9bf53184bec3ec55f0514932430f3a54ef181431f8caa910160405180910390a3949350505050565b60008281526004602090815260408083206001600160a01b0385168452825280832081516060810183528154808252600183015494820185905260029092015492810192909252909161089b91610c39565b949350505050565b600082815260016020819052604090912001546108bf81610900565b6104ad8383610983565b600080516020610c828339815191526108e181610900565b506000908152600360205260409020600501805460ff19166001179055565b61063d8133610a1a565b60006109168383610640565b61097b5760008381526001602081815260408084206001600160a01b0387168086529252808420805460ff19169093179092559051339286917f2f8788117e7eff1d82e926ec794901d17c78024a50270940304540a733656f0d9190a4506001610378565b506000610378565b600061098f8383610640565b1561097b5760008381526001602090815260408083206001600160a01b0386168085529252808320805460ff1916905551339286917ff6391f5c32d9c69d2a47ea670b442974b53935d1edc7fd64eb21e047a839171b9190a4506001610378565b600260005403610a1357604051633ee5aeb560e01b815260040160405180910390fd5b6002600055565b610a248282610640565b610a535760405163e2517d3f60e01b81526001600160a01b0382166004820152602481018390526044016103e9565b5050565b600060208284031215610a6957600080fd5b81356001600160e01b031981168114610a8157600080fd5b9392505050565b80356001600160a01b0381168114610a9f57600080fd5b919050565b60008060408385031215610ab757600080fd5b82359150610ac760208401610a88565b90509250929050565b60008083601f840112610ae257600080fd5b50813567ffffffffffffffff811115610afa57600080fd5b6020830191508360208260051b8501011115610b1557600080fd5b9250929050565b600080600080600060608688031215610b3457600080fd5b85359450602086013567ffffffffffffffff80821115610b5357600080fd5b610b5f89838a01610ad0565b90965094506040880135915080821115610b7857600080fd5b50610b8588828901610ad0565b969995985093965092949392505050565b600060208284031215610ba857600080fd5b5035919050565b60008060408385031215610bc257600080fd5b610bcb83610a88565b946020939093013593505050565b634e487b7160e01b600052603260045260246000fd5b600060208284031215610c0157600080fd5b610a8182610a88565b634e487b7160e01b600052601160045260246000fd5b600060018201610c3257610c32610c0a565b5060010190565b8181038181111561037857610378610c0a565b8082018082111561037857610378610c0a565b600060208284031215610c7157600080fd5b81518015158114610a8157600080fdfefbd454f36a7e1a388bd6fc3ab10d434aa4578f811acbbcf33afb1c697486313ca2646970667358221220bb4dd53ee5dc33d20de0d913a87597ef80ecc1863e3582f3c9f0544a845d376b64736f6c63430008140033",
  "linkReferences": {},
  "deployedLinkReferences": {}
}