{
  "_format": "hh-sol-artifact-1",
  "contractName": "YieldShop",
  "sourceName": "contract/AllContracts.sol",
  "abi": [
    {
      "inputs": [
        {
          "internalType": "address",
          "name": "_mntToken",
          "type": "address"
        },
        {
          "internalType": "address",
          "name": "_usdcToken",
          "type": "address"
        },
        {
          "internalType": "address",
          "name": "_shopToken",
          "type": "address"
        }
      ],
      "stateMutability": "nonpayable",
      "type": "constructor"
    },
    {
      "inputs": [],
      "name": "EnforcedPause",
      "type": "error"
    },
    {
      "inputs": [],
      "name": "ExpectedPause",
      "type": "error"
    },
    {
      "inputs": [
        {
          "internalType": "address",
          "name": "owner",
          "type": "address"
        }
      ],
      "name": "OwnableInvalidOwner",
      "type": "error"
    },
    {
      "inputs": [
        {
          "internalType": "address",
          "name": "account",
          "type": "address"
        }
      ],
      "name": "OwnableUnauthorizedAccount",
      "type": "error"
    },
    {
      "inputs": [],
      "name": "ReentrancyGuardReentrantCall",
      "type": "error"
    },
    {
      "anonymous": false,
      "inputs": [
        {
          "indexed": true,
          "internalType": "uint256",
          "name": "purchaseId",
          "type": "uint256"
        },
        {
          "indexed": true,
          "internalType": "address",
          "name": "buyer",
          "type": "address"
        },
        {
          "indexed": false,
          "internalType": "uint256",
          "name": "amount",
          "type": "uint256"
        },
        {
          "indexed": false,
          "internalType": "uint256",
          "name": "yieldEarned",
          "type": "uint256"
        }
      ],
      "name": "CashbackClaimed",
      "type": "event"
    },
    {
      "anonymous": false,
      "inputs": [
        {
          "indexed": true,
          "internalType": "uint256",
          "name": "couponId",
          "type": "uint256"
        }
      ],
      "name": "CouponCancelled",
      "type": "event"
    },
    {
      "anonymous": false,
      "inputs": [
        {
          "indexed": true,
          "internalType": "uint256",
          "name": "couponId",
          "type": "uint256"
        },
        {
          "indexed": true,
          "internalType": "address",
          "name": "seller",
          "type": "address"
        },
        {
          "indexed": false,
          "internalType": "string",
          "name": "retailer",
          "type": "string"
        },
        {
          "indexed": false,
          "internalType": "uint256",
          "name": "faceValue",
          "type": "uint256"
        },
        {
          "indexed": false,
          "internalType": "uint256",
          "name": "sellingPrice",
          "type": "uint256"
        }
      ],
      "name": "CouponListed",
      "type": "event"
    },
    {
      "anonymous": false,
      "inputs": [
        {
          "indexed": true,
          "internalType": "uint256",
          "name": "couponId",
          "type": "uint256"
        },
        {
          "indexed": true,
          "internalType": "address",
          "name": "buyer",
          "type": "address"
        },
        {
          "indexed": true,
          "internalType": "address",
          "name": "seller",
          "type": "address"
        },
        {
          "indexed": false,
          "internalType": "uint256",
          "name": "price",
          "type": "uint256"
        }
      ],
      "name": "CouponPurchased",
      "type": "event"
    },
    {
      "anonymous": false,
      "inputs": [
        {
          "indexed": true,
          "internalType": "uint256",
          "name": "giftCardId",
          "type": "uint256"
        },
        {
          "indexed": true,
          "internalType": "address",
          "name": "buyer",
          "type": "address"
        },
        {
          "indexed": false,
          "internalType": "string",
          "name": "retailer",
          "type": "string"
        },
        {
          "indexed": false,
          "internalType": "uint256",
          "name": "amount",
          "type": "uint256"
        },
        {
          "indexed": false,
          "internalType": "uint256",
          "name": "shopReward",
          "type": "uint256"
        },
        {
          "indexed": false,
          "internalType": "address",
          "name": "paymentToken",
          "type": "address"
        }
      ],
      "name": "GiftCardPurchased",
      "type": "event"
    },
    {
      "anonymous": false,
      "inputs": [
        {
          "indexed": true,
          "internalType": "address",
          "name": "previousOwner",
          "type": "address"
        },
        {
          "indexed": true,
          "internalType": "address",
          "name": "newOwner",
          "type": "address"
        }
      ],
      "name": "OwnershipTransferred",
      "type": "event"
    },
    {
      "anonymous": false,
      "inputs": [
        {
          "indexed": false,
          "internalType": "address",
          "name": "account",
          "type": "address"
        }
      ],
      "name": "Paused",
      "type": "event"
    },
    {
      "anonymous": false,
      "inputs": [
        {
          "indexed": true,
          "internalType": "uint256",
          "name": "purchaseId",
          "type": "uint256"
        },
        {
          "indexed": true,
          "internalType": "address",
          "name": "buyer",
          "type": "address"
        },
        {
          "indexed": false,
          "internalType": "string",
          "name": "retailer",
          "type": "string"
        },
        {
          "indexed": false,
          "internalType": "uint256",
          "name": "amount",
          "type": "uint256"
        },
        {
          "indexed": false,
          "internalType": "uint256",
          "name": "cashbackAmount",
          "type": "uint256"
        },
        {
          "indexed": false,
          "internalType": "enum YieldShop.PurchaseType",
          "name": "purchaseType",
          "type": "uint8"
        }
      ],
      "name": "PurchaseRecorded",
      "type": "event"
    },
    {
      "anonymous": false,
      "inputs": [
        {
          "indexed": true,
          "internalType": "address",
          "name": "recipient",
          "type": "address"
        },
        {
          "indexed": false,
          "internalType": "uint256",
          "name": "amount",
          "type": "uint256"
        }
      ],
      "name": "ShopTokensDistributed",
      "type": "event"
    },
    {
      "anonymous": false,
      "inputs": [
        {
          "indexed": false,
          "internalType": "address",
          "name": "account",
          "type": "address"
        }
      ],
      "name": "Unpaused",
      "type": "event"
    },
    {
      "anonymous": false,
      "inputs": [
        {
          "indexed": true,
          "internalType": "uint256",
          "name": "purchaseId",
          "type": "uint256"
        },
        {
          "indexed": false,
          "internalType": "uint256",
          "name": "yieldAmount",
          "type": "uint256"
        }
      ],
      "name": "YieldAccrued",
      "type": "event"
    },
    {
      "inputs": [],
      "name": "BASIS_POINTS",
      "outputs": [
        {
          "internalType": "uint256",
          "name": "",
          "type": "uint256"
        }
      ],
      "stateMutability": "view",
      "type": "function"
    },
    {
      "inputs": [],
      "name": "CASHBACK_RATE",
      "outputs": [
        {
          "internalType": "uint256",
          "name": "",
          "type": "uint256"
        }
      ],
      "stateMutability": "view",
      "type": "function"
    },
    {
      "inputs": [],
      "name": "PLATFORM_FEE",
      "outputs": [
        {
          "internalType": "uint256",
          "name": "",
          "type": "uint256"
        }
      ],
      "stateMutability": "view",
      "type": "function"
    },
    {
      "inputs": [],
      "name": "RETURN_PERIOD",
      "outputs": [
        {
          "internalType": "uint256",
          "name": "",
          "type": "uint256"
        }
      ],
      "stateMutability": "view",
      "type": "function"
    },
    {
      "inputs": [],
      "name": "SHOP_REWARD_RATE",
      "outputs": [
        {
          "internalType": "uint256",
          "name": "",
          "type": "uint256"
        }
      ],
      "stateMutability": "view",
      "type": "function"
    },
    {
      "inputs": [
        {
          "internalType": "uint256",
          "name": "couponId",
          "type": "uint256"
        },
        {
          "internalType": "address",
          "name": "paymentToken",
          "type": "address"
        }
      ],
      "name": "buyCoupon",
      "outputs": [],
      "stateMutability": "nonpayable",
      "type": "function"
    },
    {
      "inputs": [
        {
          "internalType": "uint256",
          "name": "purchaseId",
          "type": "uint256"
        }
      ],
      "name": "claimCashback",
      "outputs": [],
      "stateMutability": "nonpayable",
      "type": "function"
    },
    {
      "inputs": [
        {
          "internalType": "uint256",
          "name": "",
          "type": "uint256"
        }
      ],
      "name": "couponListings",
      "outputs": [
        {
          "internalType": "uint256",
          "name": "id",
          "type": "uint256"
        },
        {
          "internalType": "address",
          "name": "seller",
          "type": "address"
        },
        {
          "internalType": "string",
          "name": "retailer",
          "type": "string"
        },
        {
          "internalType": "uint256",
          "name": "faceValue",
          "type": "uint256"
        },
        {
          "internalType": "uint256",
          "name": "sellingPrice",
          "type": "uint256"
        },
        {
          "internalType": "uint256",
          "name": "expiryDate",
          "type": "uint256"
        },
        {
          "internalType": "bytes32",
          "name": "couponCodeHash",
          "type": "bytes32"
        },
        {
          "internalType": "bool",
          "name": "active",
          "type": "bool"
        },
        {
          "internalType": "bool",
          "name": "sold",
          "type": "bool"
        }
      ],
      "stateMutability": "view",
      "type": "function"
    },
    {
      "inputs": [
        {
          "internalType": "uint256",
          "name": "purchaseId",
          "type": "uint256"
        }
      ],
      "name": "getPurchase",
      "outputs": [
        {
          "components": [
            {
              "internalType": "uint256",
              "name": "id",
              "type": "uint256"
            },
            {
              "internalType": "address",
              "name": "buyer",
              "type": "address"
            },
            {
              "internalType": "string",
              "name": "retailer",
              "type": "string"
            },
            {
              "internalType": "uint256",
              "name": "amount",
              "type": "uint256"
            },
            {
              "internalType": "uint256",
              "name": "cashbackAmount",
              "type": "uint256"
            },
            {
              "internalType": "uint256",
              "name": "yieldEarned",
              "type": "uint256"
            },
            {
              "internalType": "uint256",
              "name": "purchaseTime",
              "type": "uint256"
            },
            {
              "internalType": "uint256",
              "name": "releaseTime",
              "type": "uint256"
            },
            {
              "internalType": "bool",
              "name": "claimed",
              "type": "bool"
            },
            {
              "internalType": "enum YieldShop.PurchaseType",
              "name": "purchaseType",
              "type": "uint8"
            }
          ],
          "internalType": "struct YieldShop.Purchase",
          "name": "",
          "type": "tuple"
        }
      ],
      "stateMutability": "view",
      "type": "function"
    },
    {
      "inputs": [
        {
          "internalType": "address",
          "name": "user",
          "type": "address"
        }
      ],
      "name": "getUserGiftCards",
      "outputs": [
        {
          "internalType": "uint256[]",
          "name": "",
          "type": "uint256[]"
        }
      ],
      "stateMutability": "view",
      "type": "function"
    },
    {
      "inputs": [
        {
          "internalType": "address",
          "name": "user",
          "type": "address"
        }
      ],
      "name": "getUserPurchases",
      "outputs": [
        {
          "internalType": "uint256[]",
          "name": "",
          "type": "uint256[]"
        }
      ],
      "stateMutability": "view",
      "type": "function"
    },
    {
      "inputs": [
        {
          "internalType": "uint256",
          "name": "",
          "type": "uint256"
        }
      ],
      "name": "giftCards",
      "outputs": [
        {
          "internalType": "uint256",
          "name": "id",
          "type": "uint256"
        },
        {
          "internalType": "address",
          "name": "buyer",
          "type": "address"
        },
        {
          "internalType": "string",
          "name": "retailer",
          "type": "string"
        },
        {
          "internalType": "uint256",
          "name": "amount",
          "type": "uint256"
        },
        {
          "internalType": "string",
          "name": "giftCardCode",
          "type": "string"
        },
        {
          "internalType": "uint256",
          "name": "shopReward",
          "type": "uint256"
        },
        {
          "internalType": "uint256",
          "name": "timestamp",
          "type": "uint256"
        },
        {
          "internalType": "bool",
          "name": "redeemed",
          "type": "bool"
        }
      ],
      "stateMutability": "view",
      "type": "function"
    },
    {
      "inputs": [
        {
          "internalType": "string",
          "name": "retailer",
          "type": "string"
        },
        {
          "internalType": "uint256",
          "name": "faceValue",
          "type": "uint256"
        },
        {
          "internalType": "uint256",
          "name": "sellingPrice",
          "type": "uint256"
        },
        {
          "internalType": "uint256",
          "name": "expiryDate",
          "type": "uint256"
        },
        {
          "internalType": "string",
          "name": "couponCode",
          "type": "string"
        }
      ],
      "name": "listCoupon",
      "outputs": [
        {
          "internalType": "uint256",
          "name": "",
          "type": "uint256"
        }
      ],
      "stateMutability": "nonpayable",
      "type": "function"
    },
    {
      "inputs": [],
      "name": "mntToken",
      "outputs": [
        {
          "internalType": "contract IERC20",
          "name": "",
          "type": "address"
        }
      ],
      "stateMutability": "view",
      "type": "function"
    },
    {
      "inputs": [],
      "name": "nextCouponId",
      "outputs": [
        {
          "internalType": "uint256",
          "name": "",
          "type": "uint256"
        }
      ],
      "stateMutability": "view",
      "type": "function"
    },
    {
      "inputs": [],
      "name": "nextGiftCardId",
      "outputs": [
        {
          "internalType": "uint256",
          "name": "",
          "type": "uint256"
        }
      ],
      "stateMutability": "view",
      "type": "function"
    },
    {
      "inputs": [],
      "name": "nextPurchaseId",
      "outputs": [
        {
          "internalType": "uint256",
          "name": "",
          "type": "uint256"
        }
      ],
      "stateMutability": "view",
      "type": "function"
    },
    {
      "inputs": [],
      "name": "owner",
      "outputs": [
        {
          "internalType": "address",
          "name": "",
          "type": "address"
        }
      ],
      "stateMutability": "view",
      "type": "function"
    },
    {
      "inputs": [],
      "name": "pause",
      "outputs": [],
      "stateMutability": "nonpayable",
      "type": "function"
    },
    {
      "inputs": [],
      "name": "paused",
      "outputs": [
        {
          "internalType": "bool",
          "name": "",
          "type": "bool"
        }
      ],
      "stateMutability": "view",
      "type": "function"
    },
    {
      "inputs": [
        {
          "internalType": "address",
          "name": "",
          "type": "address"
        }
      ],
      "name": "pendingCashback",
      "outputs": [
        {
          "internalType": "uint256",
          "name": "",
          "type": "uint256"
        }
      ],
      "stateMutability": "view",
      "type": "function"
    },
    {
      "inputs": [
        {
          "internalType": "string",
          "name": "retailer",
          "type": "string"
        },
        {
          "internalType": "uint256",
          "name": "amount",
          "type": "uint256"
        },
        {
          "internalType": "address",
          "name": "paymentToken",
          "type": "address"
        }
      ],
      "name": "purchaseGiftCard",
      "outputs": [
        {
          "internalType": "uint256",
          "name": "",
          "type": "uint256"
        }
      ],
      "stateMutability": "nonpayable",
      "type": "function"
    },
    {
      "inputs": [
        {
          "internalType": "uint256",
          "name": "",
          "type": "uint256"
        }
      ],
      "name": "purchases",
      "outputs": [
        {
          "internalType": "uint256",
          "name": "id",
          "type": "uint256"
        },
        {
          "internalType": "address",
          "name": "buyer",
          "type": "address"
        },
        {
          "internalType": "string",
          "name": "retailer",
          "type": "string"
        },
        {
          "internalType": "uint256",
          "name": "amount",
          "type": "uint256"
        },
        {
          "internalType": "uint256",
          "name": "cashbackAmount",
          "type": "uint256"
        },
        {
          "internalType": "uint256",
          "name": "yieldEarned",
          "type": "uint256"
        },
        {
          "internalType": "uint256",
          "name": "purchaseTime",
          "type": "uint256"
        },
        {
          "internalType": "uint256",
          "name": "releaseTime",
          "type": "uint256"
        },
        {
          "internalType": "bool",
          "name": "claimed",
          "type": "bool"
        },
        {
          "internalType": "enum YieldShop.PurchaseType",
          "name": "purchaseType",
          "type": "uint8"
        }
      ],
      "stateMutability": "view",
      "type": "function"
    },
    {
      "inputs": [
        {
          "internalType": "address",
          "name": "buyer",
          "type": "address"
        },
        {
          "internalType": "string",
          "name": "retailer",
          "type": "string"
        },
        {
          "internalType": "uint256",
          "name": "amount",
          "type": "uint256"
        }
      ],
      "name": "recordAffiliatePurchase",
      "outputs": [
        {
          "internalType": "uint256",
          "name": "",
          "type": "uint256"
        }
      ],
      "stateMutability": "nonpayable",
      "type": "function"
    },
    {
      "inputs": [],
      "name": "renounceOwnership",
      "outputs": [],
      "stateMutability": "nonpayable",
      "type": "function"
    },
    {
      "inputs": [],
      "name": "shopToken",
      "outputs": [
        {
          "internalType": "contract IERC20",
          "name": "",
          "type": "address"
        }
      ],
      "stateMutability": "view",
      "type": "function"
    },
    {
      "inputs": [],
      "name": "totalCashbackDistributed",
      "outputs": [
        {
          "internalType": "uint256",
          "name": "",
          "type": "uint256"
        }
      ],
      "stateMutability": "view",
      "type": "function"
    },
    {
      "inputs": [],
      "name": "totalGiftCardsSold",
      "outputs": [
        {
          "internalType": "uint256",
          "name": "",
          "type": "uint256"
        }
      ],
      "stateMutability": "view",
      "type": "function"
    },
    {
      "inputs": [
        {
          "internalType": "address",
          "name": "",
          "type": "address"
        }
      ],
      "name": "totalYieldEarned",
      "outputs": [
        {
          "internalType": "uint256",
          "name": "",
          "type": "uint256"
        }
      ],
      "stateMutability": "view",
      "type": "function"
    },
    {
      "inputs": [],
      "name": "totalYieldGenerated",
      "outputs": [
        {
          "internalType": "uint256",
          "name": "",
          "type": "uint256"
        }
      ],
      "stateMutability": "view",
      "type": "function"
    },
    {
      "inputs": [
        {
          "internalType": "address",
          "name": "newOwner",
          "type": "address"
        }
      ],
      "name": "transferOwnership",
      "outputs": [],
      "stateMutability": "nonpayable",
      "type": "function"
    },
    {
      "inputs": [],
      "name": "unpause",
      "outputs": [],
      "stateMutability": "nonpayable",
      "type": "function"
    },
    {
      "inputs": [],
      "name": "usdcToken",
      "outputs": [
        {
          "internalType": "contract IERC20",
          "name": "",
          "type": "address"
        }
      ],
      "stateMutability": "view",
      "type": "function"
    },
    {
      "inputs": [
        {
          "internalType": "address",
          "name": "",
          "type": "address"
        },
        {
          "internalType": "uint256",
          "name": "",
          "type": "uint256"
        }
      ],
      "name": "userGiftCards",
      "outputs": [
        {
          "internalType": "uint256",
          "name": "",
          "type": "uint256"
        }
      ],
      "stateMutability": "view",
      "type": "function"
    },
    {
      "inputs": [
        {
          "internalType": "address",
          "name": "",
          "type": "address"
        },
        {
          "internalType": "uint256",
          "name": "",
          "type": "uint256"
        }
      ],
      "name": "userListings",
      "outputs": [
        {
          "internalType": "uint256",
          "name": "",
          "type": "uint256"
        }
      ],
      "stateMutability": "view",
      "type": "function"
    },
    {
      "inputs": [
        {
          "internalType": "address",
          "name": "",
          "type": "address"
        },
        {
          "internalType": "uint256",
          "name": "",
          "type": "uint256"
        }
      ],
      "name": "userPurchases",
      "outputs": [
        {
          "internalType": "uint256",
          "name": "",
          "type": "uint256"
        }
      ],
      "stateMutability": "view",
      "type": "function"
    }
  ],
  "bytecode": "0x60e06040523480156200001157600080fd5b506040516200239b3803806200239b83398101604081905262000034916200016f565b33806200005c57604051631e4fbdf760e01b8152600060048201526024015b60405180910390fd5b620000678162000102565b50600180556001600160a01b038316158015906200008d57506001600160a01b03821615155b8015620000a257506001600160a01b03811615155b620000e45760405162461bcd60e51b8152602060048201526011602482015270496e76616c69642061646472657373657360781b604482015260640162000053565b6001600160a01b0392831660805290821660a0521660c052620001b9565b600080546001600160a01b038381166001600160a01b0319831681178455604051919092169283917f8be0079c531659141344cd1fd0a4f28419497f9722a3daafe3b4186f6b6457e09190a35050565b80516001600160a01b03811681146200016a57600080fd5b919050565b6000806000606084860312156200018557600080fd5b620001908462000152565b9250620001a06020850162000152565b9150620001b06040850162000152565b90509250925092565b60805160a05160c05161217a62000221600039600081816104dc0152818161091101528181610cbb015261135c01526000818161022601528181610aa5015281816111ba015261162d01526000818161035601528181610a6a015261117f015261217a6000f3fe608060405234801561001057600080fd5b506004361061021c5760003560e01c80638456cb5911610125578063bf29142a116100ad578063e086272d1161007c578063e086272d146104a8578063e1f1c4a7146104bb578063e80f117b146104c4578063ece571d1146104d7578063f2fde38b146104fe57600080fd5b8063bf29142a1461044c578063c6e5d8f614610455578063c96b988a14610475578063cf2c03341461049557600080fd5b80638da5cb5b116100f45780638da5cb5b146103e55780639898135f146103f6578063b29f6ef21461041d578063b62bc1bc14610426578063bd4efe261461043957600080fd5b80638456cb59146103a15780638687b381146103a957806386cfa7d3146103c95780638c825056146103dc57600080fd5b80634b79c85f116101a8578063703247a311610177578063703247a314610336578063715018a6146103495780637f0554ca1461035157806382d97545146102d35780638392fe311461037857600080fd5b80634b79c85f146102db5780634ffedb3b1461030357806353678c56146103165780635c975abb1461032057600080fd5b80633742a9f7116101ef5780633742a9f71461028d5780633cde0e7f146102ad5780633e272534146102b65780633f4ba83a146102c9578063458d192f146102d357600080fd5b806311eac855146102215780631cb00df11461026557806323b4a7a31461027c57806334fbc9a114610285575b600080fd5b6102487f000000000000000000000000000000000000000000000000000000000000000081565b6040516001600160a01b0390911681526020015b60405180910390f35b61026e60035481565b60405190815260200161025c565b61026e600e5481565b61026e60c881565b6102a061029b36600461192c565b610511565b60405161025c91906119cd565b61026e600f5481565b61026e6102c4366004611a96565b610660565b6102d1610691565b005b61026e606481565b6102ee6102e936600461192c565b6106a3565b60405161025c99989796959493929190611ac0565b61026e610311366004611bc7565b610783565b61026e62278d0081565b60025460ff16604051901515815260200161025c565b6102d1610344366004611c1e565b6109cb565b6102d1610d7e565b6102487f000000000000000000000000000000000000000000000000000000000000000081565b61038b61038636600461192c565b610d90565b60405161025c9a99989796959493929190611c4a565b6102d1610e78565b61026e6103b7366004611cbc565b600c6020526000908152604090205481565b61026e6103d7366004611a96565b610e88565b61026e60055481565b6000546001600160a01b0316610248565b61040961040436600461192c565b610ea4565b60405161025c989796959493929190611cd7565b61026e60045481565b61026e610434366004611d3f565b611004565b61026e610447366004611dc0565b611160565b61026e60105481565b610468610463366004611cbc565b611428565b60405161025c9190611e17565b61026e610483366004611cbc565b600d6020526000908152604090205481565b61026e6104a3366004611a96565b611494565b6104686104b6366004611cbc565b6114b0565b61026e61271081565b6102d16104d236600461192c565b61151a565b6102487f000000000000000000000000000000000000000000000000000000000000000081565b6102d161050c366004611cbc565b611706565b6105196118be565b6000828152600660209081526040918290208251610140810184528154815260018201546001600160a01b031692810192909252600281018054929391929184019161056490611e5b565b80601f016020809104026020016040519081016040528092919081815260200182805461059090611e5b565b80156105dd5780601f106105b2576101008083540402835291602001916105dd565b820191906000526020600020905b8154815290600101906020018083116105c057829003601f168201915b505050918352505060038201546020820152600482015460408201526005820154606082015260068201546080820152600782015460a0820152600882015460ff808216151560c084015260e09092019161010090910416600181111561064657610646611995565b600181111561065757610657611995565b90525092915050565b600a602052816000526040600020818154811061067c57600080fd5b90600052602060002001600091509150505481565b610699611741565b6106a161176e565b565b60086020526000908152604090208054600182015460028301805492936001600160a01b03909216926106d590611e5b565b80601f016020809104026020016040519081016040528092919081815260200182805461070190611e5b565b801561074e5780601f106107235761010080835404028352916020019161074e565b820191906000526020600020905b81548152906001019060200180831161073157829003601f168201915b505050600384015460048501546005860154600687015460079097015495969295919450925060ff8082169161010090041689565b600061078d611741565b6107956117c0565b61079d6117ea565b6001600160a01b038416158015906107b55750600082115b6107da5760405162461bcd60e51b81526004016107d190611e95565b60405180910390fd5b60006127106107ea606485611ed3565b6107f49190611ef0565b90506000612710610806856064611ed3565b6108109190611ef0565b600e8054919250600091908261082583611f12565b9091555060008181526006602052604090208181556001810180546001600160a01b0319166001600160a01b038b16179055909150600281016108688882611f7a565b506003810186905560048101849055426006820181905561088d9062278d009061203a565b600782015560088101805461ff00191690556001600160a01b0388166000818152600960209081526040808320805460018101825590845282842001869055928252600c905290812080548692906108e690849061203a565b90915550506040516340c10f1960e01b81526001600160a01b038981166004830152602482018590527f000000000000000000000000000000000000000000000000000000000000000016906340c10f1990604401600060405180830381600087803b15801561095557600080fd5b505af1158015610969573d6000803e3d6000fd5b50505050876001600160a01b0316827f2559d969621f8b7d7ce31f60dfde28b70354dc02aa092067151faeb6a8b07ba189898860006040516109ae949392919061204d565b60405180910390a350925050506109c460018055565b9392505050565b6109d36117c0565b6109db6117ea565b6000828152600860205260409020600781015460ff168015610a0757506007810154610100900460ff16155b8015610a165750428160050154115b8015610a2f575060018101546001600160a01b03163314155b610a685760405162461bcd60e51b815260206004820152600a60248201526943616e6e6f742062757960b01b60448201526064016107d1565b7f00000000000000000000000000000000000000000000000000000000000000006001600160a01b0316826001600160a01b03161480610ad957507f00000000000000000000000000000000000000000000000000000000000000006001600160a01b0316826001600160a01b0316145b610b155760405162461bcd60e51b815260206004820152600d60248201526c24b73b30b634b2103a37b5b2b760991b60448201526064016107d1565b600061271060c88360040154610b2b9190611ed3565b610b359190611ef0565b90506000818360040154610b49919061207b565b60018401546040516323b872dd60e01b81523360048201526001600160a01b039182166024820152604481018390529192508591908216906323b872dd906064016020604051808303816000875af1158015610ba9573d6000803e3d6000fd5b505050506040513d601f19601f82011682018060405250810190610bcd919061208e565b50806001600160a01b03166323b872dd33610bf06000546001600160a01b031690565b6040516001600160e01b031960e085901b1681526001600160a01b03928316600482015291166024820152604481018690526064016020604051808303816000875af1158015610c44573d6000803e3d6000fd5b505050506040513d601f19601f82011682018060405250810190610c68919061208e565b5060078401805461ffff1916610100179055600384015460009061271090610c9290606490611ed3565b610c9c9190611ef0565b6040516340c10f1960e01b8152336004820152602481018290529091507f00000000000000000000000000000000000000000000000000000000000000006001600160a01b0316906340c10f1990604401600060405180830381600087803b158015610d0757600080fd5b505af1158015610d1b573d6000803e3d6000fd5b50505050600185015460048601546040519081526001600160a01b0390911690339089907fd190ae56c7835f1ea3b65687deda3e45a971702598fee629280cc3231bc22cd49060200160405180910390a45050505050610d7a60018055565b5050565b610d86611741565b6106a1600061180e565b60066020526000908152604090208054600182015460028301805492936001600160a01b0390921692610dc290611e5b565b80601f0160208091040260200160405190810160405280929190818152602001828054610dee90611e5b565b8015610e3b5780601f10610e1057610100808354040283529160200191610e3b565b820191906000526020600020905b815481529060010190602001808311610e1e57829003601f168201915b5050506003840154600485015460058601546006870154600788015460089098015496979396929550909350919060ff808216916101009004168a565b610e80611741565b6106a161185e565b600b602052816000526040600020818154811061067c57600080fd5b60076020526000908152604090208054600182015460028301805492936001600160a01b0390921692610ed690611e5b565b80601f0160208091040260200160405190810160405280929190818152602001828054610f0290611e5b565b8015610f4f5780601f10610f2457610100808354040283529160200191610f4f565b820191906000526020600020905b815481529060010190602001808311610f3257829003601f168201915b505050505090806003015490806004018054610f6a90611e5b565b80601f0160208091040260200160405190810160405280929190818152602001828054610f9690611e5b565b8015610fe35780601f10610fb857610100808354040283529160200191610fe3565b820191906000526020600020905b815481529060010190602001808311610fc657829003601f168201915b50505050600583015460068401546007909401549293909290915060ff1688565b600061100e6117c0565b6110166117ea565b60008511801561102557508484105b801561103057504283115b61104c5760405162461bcd60e51b81526004016107d190611e95565b601080546000918261105d83611f12565b9091555060008181526008602052604090208181556001810180546001600160a01b03191633179055909150600281016110978982611f7a565b506003810187905560048101869055600581018590556040516110c090859033906020016120b0565b60408051601f198184030181528282528051602091820120600685015560078401805460ff19166001908117909155336000818152600b8452938420805492830181558452919092209091018490559083907f3635c3f3acd91b9a02905fbbcf4f5b7f06f553143b26353c95e53d55ac7869a590611143908c908c908c906120e7565b60405180910390a350905061115760018055565b95945050505050565b600061116a6117c0565b6111726117ea565b6000831180156111ee57507f00000000000000000000000000000000000000000000000000000000000000006001600160a01b0316826001600160a01b031614806111ee57507f00000000000000000000000000000000000000000000000000000000000000006001600160a01b0316826001600160a01b0316145b61120a5760405162461bcd60e51b81526004016107d190611e95565b6040516323b872dd60e01b8152336004820152306024820152604481018490526001600160a01b038316906323b872dd906064016020604051808303816000875af115801561125d573d6000803e3d6000fd5b505050506040513d601f19601f82011682018060405250810190611281919061208e565b506000612710611292606486611ed3565b61129c9190611ef0565b600f805491925060009190826112b183611f12565b9091555060008181526007602052604090208181556001810180546001600160a01b03191633179055909150600281016112eb8882611f7a565b50600380820187905560058201849055426006830155336000908152600a60209081526040822080546001810182559083529082200184905581548892919061133590849061203a565b909155505082156113d35760405163a9059cbb60e01b8152336004820152602481018490527f00000000000000000000000000000000000000000000000000000000000000006001600160a01b03169063a9059cbb906044016020604051808303816000875af11580156113ad573d6000803e3d6000fd5b505050506040513d601f19601f820116820180604052508101906113d1919061208e565b505b336001600160a01b0316827fceed7b1069f0338869ade6363dbe40c9b3e664117d0d20291b40e6bb94ce53cd8989878a604051611413949392919061210c565b60405180910390a3509150506109c460018055565b6001600160a01b03811660009081526009602090815260409182902080548351818402810184019094528084526060939283018282801561148857602002820191906000526020600020905b815481526020019060010190808311611474575b50505050509050919050565b6009602052816000526040600020818154811061067c57600080fd5b6001600160a01b0381166000908152600a602090815260409182902080548351818402810184019094528084526060939283018282801561148857602002820191906000526020600020908154815260200190600101908083116114745750505050509050919050565b6115226117c0565b61152a6117ea565b600081815260066020526040902060018101546001600160a01b0316331480156115595750600881015460ff16155b8015611569575080600701544210155b6115a45760405162461bcd60e51b815260206004820152600c60248201526b43616e6e6f7420636c61696d60a01b60448201526064016107d1565b6000816005015482600401546115ba919061203a565b60088301805460ff191660011790556004830154336000908152600c60205260408120805493945091926115ef90849061207b565b9250508190555081600401546004600082825461160c919061203a565b909155505060405163a9059cbb60e01b8152336004820152602481018290527f00000000000000000000000000000000000000000000000000000000000000006001600160a01b03169063a9059cbb906044016020604051808303816000875af115801561167e573d6000803e3d6000fd5b505050506040513d601f19601f820116820180604052508101906116a2919061208e565b50336001600160a01b0316837fd398c9a0ba1caeb9daef7e6d974b896d37eb2717c6848f65b989a1b30ccda06c846004015485600501546040516116f0929190918252602082015260400190565b60405180910390a3505061170360018055565b50565b61170e611741565b6001600160a01b03811661173857604051631e4fbdf760e01b8152600060048201526024016107d1565b6117038161180e565b6000546001600160a01b031633146106a15760405163118cdaa760e01b81523360048201526024016107d1565b61177661189b565b6002805460ff191690557f5db9ee0a495bf2e6ff9c91a7834c1ba4fdd244a5e8aa4e537bd38aeae4b073aa335b6040516001600160a01b03909116815260200160405180910390a1565b6002600154036117e357604051633ee5aeb560e01b815260040160405180910390fd5b6002600155565b60025460ff16156106a15760405163d93c066560e01b815260040160405180910390fd5b600080546001600160a01b038381166001600160a01b0319831681178455604051919092169283917f8be0079c531659141344cd1fd0a4f28419497f9722a3daafe3b4186f6b6457e09190a35050565b6118666117ea565b6002805460ff191660011790557f62e78cea01bee320cd4e420270b5ea74000d11b0c9f74754ebdbfc544b05a2586117a33390565b60025460ff166106a157604051638dfc202b60e01b815260040160405180910390fd5b6040518061014001604052806000815260200160006001600160a01b031681526020016060815260200160008152602001600081526020016000815260200160008152602001600081526020016000151581526020016000600181111561192757611927611995565b905290565b60006020828403121561193e57600080fd5b5035919050565b60005b83811015611960578181015183820152602001611948565b50506000910152565b60008151808452611981816020860160208601611945565b601f01601f19169290920160200192915050565b634e487b7160e01b600052602160045260246000fd5b600281106119c957634e487b7160e01b600052602160045260246000fd5b9052565b6020815281516020820152600060208301516119f460408401826001600160a01b03169052565b506040830151610140806060850152611a11610160850183611969565b915060608501516080850152608085015160a085015260a085015160c085015260c085015160e085015260e0850151610100818187015280870151915050610120611a5f8187018315159052565b8601519050611a70858301826119ab565b5090949350505050565b80356001600160a01b0381168114611a9157600080fd5b919050565b60008060408385031215611aa957600080fd5b611ab283611a7a565b946020939093013593505050565b8981526001600160a01b038916602082015261012060408201819052600090611aeb8382018b611969565b60608401999099525050608081019590955260a085019390935260c0840191909152151560e08301521515610100909101529392505050565b634e487b7160e01b600052604160045260246000fd5b600082601f830112611b4b57600080fd5b813567ffffffffffffffff80821115611b6657611b66611b24565b604051601f8301601f19908116603f01168101908282118183101715611b8e57611b8e611b24565b81604052838152866020858801011115611ba757600080fd5b836020870160208301376000602085830101528094505050505092915050565b600080600060608486031215611bdc57600080fd5b611be584611a7a565b9250602084013567ffffffffffffffff811115611c0157600080fd5b611c0d86828701611b3a565b925050604084013590509250925092565b60008060408385031215611c3157600080fd5b82359150611c4160208401611a7a565b90509250929050565b8a81526001600160a01b038a16602082015261014060408201819052600090611c758382018c611969565b9150508860608301528760808301528660a08301528560c08301528460e0830152831515610100830152611cad6101208301846119ab565b9b9a5050505050505050505050565b600060208284031215611cce57600080fd5b6109c482611a7a565b8881526001600160a01b038816602082015261010060408201819052600090611d028382018a611969565b90508760608401528281036080840152611d1c8188611969565b60a0840196909652505060c0810192909252151560e09091015295945050505050565b600080600080600060a08688031215611d5757600080fd5b853567ffffffffffffffff80821115611d6f57600080fd5b611d7b89838a01611b3a565b96506020880135955060408801359450606088013593506080880135915080821115611da657600080fd5b50611db388828901611b3a565b9150509295509295909350565b600080600060608486031215611dd557600080fd5b833567ffffffffffffffff811115611dec57600080fd5b611df886828701611b3a565b93505060208401359150611e0e60408501611a7a565b90509250925092565b6020808252825182820181905260009190848201906040850190845b81811015611e4f57835183529284019291840191600101611e33565b50909695505050505050565b600181811c90821680611e6f57607f821691505b602082108103611e8f57634e487b7160e01b600052602260045260246000fd5b50919050565b6020808252600e908201526d496e76616c696420706172616d7360901b604082015260600190565b634e487b7160e01b600052601160045260246000fd5b8082028115828204841417611eea57611eea611ebd565b92915050565b600082611f0d57634e487b7160e01b600052601260045260246000fd5b500490565b600060018201611f2457611f24611ebd565b5060010190565b601f821115611f7557600081815260208120601f850160051c81016020861015611f525750805b601f850160051c820191505b81811015611f7157828155600101611f5e565b5050505b505050565b815167ffffffffffffffff811115611f9457611f94611b24565b611fa881611fa28454611e5b565b84611f2b565b602080601f831160018114611fdd5760008415611fc55750858301515b600019600386901b1c1916600185901b178555611f71565b600085815260208120601f198616915b8281101561200c57888601518255948401946001909101908401611fed565b508582101561202a5787850151600019600388901b60f8161c191681555b5050505050600190811b01905550565b80820180821115611eea57611eea611ebd565b6080815260006120606080830187611969565b905084602083015283604083015261115760608301846119ab565b81810381811115611eea57611eea611ebd565b6000602082840312156120a057600080fd5b815180151581146109c457600080fd5b600083516120c2818460208801611945565b60609390931b6bffffffffffffffffffffffff19169190920190815260140192915050565b6060815260006120fa6060830186611969565b60208301949094525060400152919050565b60808152600061211f6080830187611969565b60208301959095525060408101929092526001600160a01b031660609091015291905056fea26469706673582212201ce8f42090bab5533f9cf45b530e9cc822f79b2b845ffc4f6f40546ec7501b3764736f6c63430008140033",
  "linkReferences": {},
  "deployedLinkReferences": {}
}